{
  "_format": "hh-sol-artifact-1",
  "contractName": "PrivateToken",
  "sourceName": "contracts/PrivateToken.sol",
  "abi": [
    {
      "inputs": [
        {
          "internalType": "address",
          "name": "initialOwner",
          "type": "address"
        }
      ],
      "stateMutability": "nonpayable",
      "type": "constructor"
    },
    {
      "inputs": [],
      "name": "ECDSAInvalidSignature",
      "type": "error"
    },
    {
      "inputs": [
        {
          "internalType": "uint256",
          "name": "length",
          "type": "uint256"
        }
      ],
      "name": "ECDSAInvalidSignatureLength",
      "type": "error"
    },
    {
      "inputs": [
        {
          "internalType": "bytes32",
          "name": "s",
          "type": "bytes32"
        }
      ],
      "name": "ECDSAInvalidSignatureS",
      "type": "error"
    },
    {
      "inputs": [
        {
          "internalType": "address",
          "name": "spender",
          "type": "address"
        },
        {
          "internalType": "uint256",
          "name": "allowance",
          "type": "uint256"
        },
        {
          "internalType": "uint256",
          "name": "needed",
          "type": "uint256"
        }
      ],
      "name": "ERC20InsufficientAllowance",
      "type": "error"
    },
    {
      "inputs": [
        {
          "internalType": "address",
          "name": "sender",
          "type": "address"
        },
        {
          "internalType": "uint256",
          "name": "balance",
          "type": "uint256"
        },
        {
          "internalType": "uint256",
          "name": "needed",
          "type": "uint256"
        }
      ],
      "name": "ERC20InsufficientBalance",
      "type": "error"
    },
    {
      "inputs": [
        {
          "internalType": "address",
          "name": "approver",
          "type": "address"
        }
      ],
      "name": "ERC20InvalidApprover",
      "type": "error"
    },
    {
      "inputs": [
        {
          "internalType": "address",
          "name": "receiver",
          "type": "address"
        }
      ],
      "name": "ERC20InvalidReceiver",
      "type": "error"
    },
    {
      "inputs": [
        {
          "internalType": "address",
          "name": "sender",
          "type": "address"
        }
      ],
      "name": "ERC20InvalidSender",
      "type": "error"
    },
    {
      "inputs": [
        {
          "internalType": "address",
          "name": "spender",
          "type": "address"
        }
      ],
      "name": "ERC20InvalidSpender",
      "type": "error"
    },
    {
      "inputs": [
        {
          "internalType": "uint256",
          "name": "deadline",
          "type": "uint256"
        }
      ],
      "name": "ERC2612ExpiredSignature",
      "type": "error"
    },
    {
      "inputs": [
        {
          "internalType": "address",
          "name": "signer",
          "type": "address"
        },
        {
          "internalType": "address",
          "name": "owner",
          "type": "address"
        }
      ],
      "name": "ERC2612InvalidSigner",
      "type": "error"
    },
    {
      "inputs": [
        {
          "internalType": "address",
          "name": "account",
          "type": "address"
        },
        {
          "internalType": "uint256",
          "name": "currentNonce",
          "type": "uint256"
        }
      ],
      "name": "InvalidAccountNonce",
      "type": "error"
    },
    {
      "inputs": [],
      "name": "InvalidShortString",
      "type": "error"
    },
    {
      "inputs": [
        {
          "internalType": "address",
          "name": "owner",
          "type": "address"
        }
      ],
      "name": "OwnableInvalidOwner",
      "type": "error"
    },
    {
      "inputs": [
        {
          "internalType": "address",
          "name": "account",
          "type": "address"
        }
      ],
      "name": "OwnableUnauthorizedAccount",
      "type": "error"
    },
    {
      "inputs": [
        {
          "internalType": "string",
          "name": "str",
          "type": "string"
        }
      ],
      "name": "StringTooLong",
      "type": "error"
    },
    {
      "anonymous": false,
      "inputs": [
        {
          "indexed": true,
          "internalType": "address",
          "name": "owner",
          "type": "address"
        },
        {
          "indexed": true,
          "internalType": "address",
          "name": "spender",
          "type": "address"
        },
        {
          "indexed": false,
          "internalType": "uint256",
          "name": "value",
          "type": "uint256"
        }
      ],
      "name": "Approval",
      "type": "event"
    },
    {
      "anonymous": false,
      "inputs": [],
      "name": "EIP712DomainChanged",
      "type": "event"
    },
    {
      "anonymous": false,
      "inputs": [
        {
          "indexed": true,
          "internalType": "address",
          "name": "previousOwner",
          "type": "address"
        },
        {
          "indexed": true,
          "internalType": "address",
          "name": "newOwner",
          "type": "address"
        }
      ],
      "name": "OwnershipTransferred",
      "type": "event"
    },
    {
      "anonymous": false,
      "inputs": [
        {
          "indexed": true,
          "internalType": "address",
          "name": "from",
          "type": "address"
        },
        {
          "indexed": true,
          "internalType": "address",
          "name": "to",
          "type": "address"
        },
        {
          "indexed": false,
          "internalType": "uint256",
          "name": "value",
          "type": "uint256"
        }
      ],
      "name": "Transfer",
      "type": "event"
    },
    {
      "inputs": [],
      "name": "DOMAIN_SEPARATOR",
      "outputs": [
        {
          "internalType": "bytes32",
          "name": "",
          "type": "bytes32"
        }
      ],
      "stateMutability": "view",
      "type": "function"
    },
    {
      "inputs": [
        {
          "internalType": "address",
          "name": "owner",
          "type": "address"
        },
        {
          "internalType": "address",
          "name": "spender",
          "type": "address"
        }
      ],
      "name": "allowance",
      "outputs": [
        {
          "internalType": "uint256",
          "name": "",
          "type": "uint256"
        }
      ],
      "stateMutability": "view",
      "type": "function"
    },
    {
      "inputs": [
        {
          "internalType": "address",
          "name": "spender",
          "type": "address"
        },
        {
          "internalType": "uint256",
          "name": "value",
          "type": "uint256"
        }
      ],
      "name": "approve",
      "outputs": [
        {
          "internalType": "bool",
          "name": "",
          "type": "bool"
        }
      ],
      "stateMutability": "nonpayable",
      "type": "function"
    },
    {
      "inputs": [
        {
          "internalType": "address",
          "name": "account",
          "type": "address"
        }
      ],
      "name": "balanceOf",
      "outputs": [
        {
          "internalType": "uint256",
          "name": "",
          "type": "uint256"
        }
      ],
      "stateMutability": "view",
      "type": "function"
    },
    {
      "inputs": [],
      "name": "decimals",
      "outputs": [
        {
          "internalType": "uint8",
          "name": "",
          "type": "uint8"
        }
      ],
      "stateMutability": "view",
      "type": "function"
    },
    {
      "inputs": [],
      "name": "eip712Domain",
      "outputs": [
        {
          "internalType": "bytes1",
          "name": "fields",
          "type": "bytes1"
        },
        {
          "internalType": "string",
          "name": "name",
          "type": "string"
        },
        {
          "internalType": "string",
          "name": "version",
          "type": "string"
        },
        {
          "internalType": "uint256",
          "name": "chainId",
          "type": "uint256"
        },
        {
          "internalType": "address",
          "name": "verifyingContract",
          "type": "address"
        },
        {
          "internalType": "bytes32",
          "name": "salt",
          "type": "bytes32"
        },
        {
          "internalType": "uint256[]",
          "name": "extensions",
          "type": "uint256[]"
        }
      ],
      "stateMutability": "view",
      "type": "function"
    },
    {
      "inputs": [
        {
          "internalType": "address",
          "name": "addr",
          "type": "address"
        }
      ],
      "name": "isLocked",
      "outputs": [
        {
          "internalType": "bool",
          "name": "",
          "type": "bool"
        }
      ],
      "stateMutability": "nonpayable",
      "type": "function"
    },
    {
      "inputs": [
        {
          "internalType": "address",
          "name": "addr",
          "type": "address"
        }
      ],
      "name": "lock",
      "outputs": [
        {
          "internalType": "bool",
          "name": "",
          "type": "bool"
        }
      ],
      "stateMutability": "nonpayable",
      "type": "function"
    },
    {
      "inputs": [
        {
          "internalType": "address",
          "name": "to",
          "type": "address"
        },
        {
          "internalType": "uint256",
          "name": "amount",
          "type": "uint256"
        }
      ],
      "name": "mint",
      "outputs": [],
      "stateMutability": "nonpayable",
      "type": "function"
    },
    {
      "inputs": [],
      "name": "name",
      "outputs": [
        {
          "internalType": "string",
          "name": "",
          "type": "string"
        }
      ],
      "stateMutability": "view",
      "type": "function"
    },
    {
      "inputs": [
        {
          "internalType": "address",
          "name": "owner",
          "type": "address"
        }
      ],
      "name": "nonces",
      "outputs": [
        {
          "internalType": "uint256",
          "name": "",
          "type": "uint256"
        }
      ],
      "stateMutability": "view",
      "type": "function"
    },
    {
      "inputs": [],
      "name": "owner",
      "outputs": [
        {
          "internalType": "address",
          "name": "",
          "type": "address"
        }
      ],
      "stateMutability": "view",
      "type": "function"
    },
    {
      "inputs": [
        {
          "internalType": "address",
          "name": "owner",
          "type": "address"
        },
        {
          "internalType": "address",
          "name": "spender",
          "type": "address"
        },
        {
          "internalType": "uint256",
          "name": "value",
          "type": "uint256"
        },
        {
          "internalType": "uint256",
          "name": "deadline",
          "type": "uint256"
        },
        {
          "internalType": "uint8",
          "name": "v",
          "type": "uint8"
        },
        {
          "internalType": "bytes32",
          "name": "r",
          "type": "bytes32"
        },
        {
          "internalType": "bytes32",
          "name": "s",
          "type": "bytes32"
        }
      ],
      "name": "permit",
      "outputs": [],
      "stateMutability": "nonpayable",
      "type": "function"
    },
    {
      "inputs": [],
      "name": "renounceOwnership",
      "outputs": [],
      "stateMutability": "nonpayable",
      "type": "function"
    },
    {
      "inputs": [],
      "name": "symbol",
      "outputs": [
        {
          "internalType": "string",
          "name": "",
          "type": "string"
        }
      ],
      "stateMutability": "view",
      "type": "function"
    },
    {
      "inputs": [],
      "name": "totalSupply",
      "outputs": [
        {
          "internalType": "uint256",
          "name": "",
          "type": "uint256"
        }
      ],
      "stateMutability": "view",
      "type": "function"
    },
    {
      "inputs": [
        {
          "internalType": "address",
          "name": "to",
          "type": "address"
        },
        {
          "internalType": "uint256",
          "name": "value",
          "type": "uint256"
        }
      ],
      "name": "transfer",
      "outputs": [
        {
          "internalType": "bool",
          "name": "",
          "type": "bool"
        }
      ],
      "stateMutability": "nonpayable",
      "type": "function"
    },
    {
      "inputs": [
        {
          "internalType": "address",
          "name": "from",
          "type": "address"
        },
        {
          "internalType": "address",
          "name": "to",
          "type": "address"
        },
        {
          "internalType": "uint256",
          "name": "value",
          "type": "uint256"
        }
      ],
      "name": "transferFrom",
      "outputs": [
        {
          "internalType": "bool",
          "name": "",
          "type": "bool"
        }
      ],
      "stateMutability": "nonpayable",
      "type": "function"
    },
    {
      "inputs": [
        {
          "internalType": "address",
          "name": "newOwner",
          "type": "address"
        }
      ],
      "name": "transferOwnership",
      "outputs": [],
      "stateMutability": "nonpayable",
      "type": "function"
    },
    {
      "inputs": [
        {
          "internalType": "address",
          "name": "addr",
          "type": "address"
        }
      ],
      "name": "unlock",
      "outputs": [
        {
          "internalType": "bool",
          "name": "",
          "type": "bool"
        }
      ],
      "stateMutability": "nonpayable",
      "type": "function"
    }
  ],
  "bytecode": "0x6101606040523480156200001257600080fd5b50604051620018ad380380620018ad8339810160408190526200003591620002a2565b6040518060400160405280600c81526020016b283934bb30ba32aa37b5b2b760a11b81525080604051806040016040528060018152602001603160f81b815250836040518060400160405280600c81526020016b283934bb30ba32aa37b5b2b760a11b8152506040518060400160405280600381526020016214159560ea1b8152508160039081620000c8919062000379565b506004620000d7828262000379565b5050506001600160a01b0381166200010a57604051631e4fbdf760e01b8152600060048201526024015b60405180910390fd5b6200011581620001d4565b506200012382600662000226565b610120526200013481600762000226565b61014052815160208084019190912060e052815190820120610100524660a052620001c260e05161010051604080517f8b73c3c69bb8fe3d512ecc4cf759cc79239f7b179b0ffacaa9a75d522b39400f60208201529081019290925260608201524660808201523060a082015260009060c00160405160208183030381529060405280519060200120905090565b60805250503060c05250620004ba9050565b600580546001600160a01b038381166001600160a01b0319831681179093556040519116919082907f8be0079c531659141344cd1fd0a4f28419497f9722a3daafe3b4186f6b6457e090600090a35050565b600060208351101562000246576200023e836200025f565b905062000259565b8162000253848262000379565b5060ff90505b92915050565b600080829050601f815111156200028d578260405163305a27a960e01b815260040162000101919062000445565b80516200029a8262000495565b179392505050565b600060208284031215620002b557600080fd5b81516001600160a01b0381168114620002cd57600080fd5b9392505050565b634e487b7160e01b600052604160045260246000fd5b600181811c90821680620002ff57607f821691505b6020821081036200032057634e487b7160e01b600052602260045260246000fd5b50919050565b601f8211156200037457600081815260208120601f850160051c810160208610156200034f5750805b601f850160051c820191505b8181101562000370578281556001016200035b565b5050505b505050565b81516001600160401b03811115620003955762000395620002d4565b620003ad81620003a68454620002ea565b8462000326565b602080601f831160018114620003e55760008415620003cc5750858301515b600019600386901b1c1916600185901b17855562000370565b600085815260208120601f198616915b828110156200041657888601518255948401946001909101908401620003f5565b5085821015620004355787850151600019600388901b60f8161c191681555b5050505050600190811b01905550565b600060208083528351808285015260005b81811015620004745785810183015185820160400152820162000456565b506000604082860101526040601f19601f8301168501019250505092915050565b80516020808301519190811015620003205760001960209190910360031b1b16919050565b60805160a05160c05160e051610100516101205161014051611398620005156000396000610ab801526000610a8b0152600061094d0152600061092501526000610880015260006108aa015260006108d401526113986000f3fe608060405234801561001057600080fd5b506004361061016c5760003560e01c8063715018a6116100cd578063a9059cbb11610081578063dd62ed3e11610066578063dd62ed3e146102ea578063f2fde38b14610323578063f435f5a71461033657600080fd5b8063a9059cbb146102c4578063d505accf146102d757600080fd5b806384b0196e116100b257806384b0196e146102865780638da5cb5b146102a157806395d89b41146102bc57600080fd5b8063715018a61461026b5780637ecebe001461027357600080fd5b8063313ce5671161012457806340c10f191161010957806340c10f19146102015780634a4fbeec1461021657806370a082311461024257600080fd5b8063313ce567146101ea5780633644e515146101f957600080fd5b806318160ddd1161015557806318160ddd146101b257806323b872dd146101c45780632f6c493c146101d757600080fd5b806306fdde0314610171578063095ea7b31461018f575b600080fd5b610179610349565b60405161018691906110e2565b60405180910390f35b6101a261019d366004611118565b6103db565b6040519015158152602001610186565b6002545b604051908152602001610186565b6101a26101d2366004611142565b6103f5565b6101a26101e536600461117e565b610419565b60405160128152602001610186565b6101b6610467565b61021461020f366004611118565b610476565b005b6101a261022436600461117e565b6001600160a01b031660009081526009602052604090205460ff1690565b6101b661025036600461117e565b6001600160a01b031660009081526020819052604090205490565b61021461048c565b6101b661028136600461117e565b6104a0565b61028e6104be565b6040516101869796959493929190611199565b6005546040516001600160a01b039091168152602001610186565b610179610520565b6101a26102d2366004611118565b61052f565b6102146102e536600461124b565b61053d565b6101b66102f83660046112be565b6001600160a01b03918216600090815260016020908152604080832093909416825291909152205490565b61021461033136600461117e565b6106ae565b6101a261034436600461117e565b610705565b606060038054610358906112f1565b80601f0160208091040260200160405190810160405280929190818152602001828054610384906112f1565b80156103d15780601f106103a6576101008083540402835291602001916103d1565b820191906000526020600020905b8154815290600101906020018083116103b457829003601f168201915b5050505050905090565b6000336103e9818585610752565b60019150505b92915050565b600033610403858285610764565b61040e8585856107fb565b506001949350505050565b6001600160a01b03811660009081526009602052604081205460ff161561045f57506001600160a01b03166000908152600960205260409020805460ff19169055600190565b506000919050565b6000610471610873565b905090565b61047e61099e565b61048882826109e4565b5050565b61049461099e565b61049e6000610a1a565b565b6001600160a01b0381166000908152600860205260408120546103ef565b6000606080600080600060606104d2610a84565b6104da610ab1565b604080516000808252602082019092527f0f000000000000000000000000000000000000000000000000000000000000009b939a50919850469750309650945092509050565b606060048054610358906112f1565b6000336103e98185856107fb565b8342111561057f576040517f62791302000000000000000000000000000000000000000000000000000000008152600481018590526024015b60405180910390fd5b60007f6e71edae12b1b97f4d1f60370fef10105fa2faae0126114a169c64845d6126c98888886105cc8c6001600160a01b0316600090815260086020526040902080546001810190915590565b6040805160208101969096526001600160a01b0394851690860152929091166060840152608083015260a082015260c0810186905260e001604051602081830303815290604052805190602001209050600061062782610ade565b9050600061063782878787610b26565b9050896001600160a01b0316816001600160a01b031614610697576040517f4b800e460000000000000000000000000000000000000000000000000000000081526001600160a01b0380831660048301528b166024820152604401610576565b6106a28a8a8a610752565b50505050505050505050565b6106b661099e565b6001600160a01b0381166106f9576040517f1e4fbdf700000000000000000000000000000000000000000000000000000000815260006004820152602401610576565b61070281610a1a565b50565b6001600160a01b03811660009081526009602052604081205460ff161515810361045f57506001600160a01b03166000908152600960205260409020805460ff1916600190811790915590565b61075f8383836001610b54565b505050565b6001600160a01b0383811660009081526001602090815260408083209386168352929052205460001981146107f557818110156107e6576040517ffb8f41b20000000000000000000000000000000000000000000000000000000081526001600160a01b03841660048201526024810182905260448101839052606401610576565b6107f584848484036000610b54565b50505050565b6001600160a01b03831661083e576040517f96c6fd1e00000000000000000000000000000000000000000000000000000000815260006004820152602401610576565b6001600160a01b0382166108685760405163ec442f0560e01b815260006004820152602401610576565b61075f838383610c5b565b6000306001600160a01b037f0000000000000000000000000000000000000000000000000000000000000000161480156108cc57507f000000000000000000000000000000000000000000000000000000000000000046145b156108f657507f000000000000000000000000000000000000000000000000000000000000000090565b610471604080517f8b73c3c69bb8fe3d512ecc4cf759cc79239f7b179b0ffacaa9a75d522b39400f60208201527f0000000000000000000000000000000000000000000000000000000000000000918101919091527f000000000000000000000000000000000000000000000000000000000000000060608201524660808201523060a082015260009060c00160405160208183030381529060405280519060200120905090565b6005546001600160a01b0316331461049e576040517f118cdaa7000000000000000000000000000000000000000000000000000000008152336004820152602401610576565b6001600160a01b038216610a0e5760405163ec442f0560e01b815260006004820152602401610576565b61048860008383610c5b565b600580546001600160a01b038381167fffffffffffffffffffffffff0000000000000000000000000000000000000000831681179093556040519116919082907f8be0079c531659141344cd1fd0a4f28419497f9722a3daafe3b4186f6b6457e090600090a35050565b60606104717f00000000000000000000000000000000000000000000000000000000000000006006610d9e565b60606104717f00000000000000000000000000000000000000000000000000000000000000006007610d9e565b60006103ef610aeb610873565b836040517f19010000000000000000000000000000000000000000000000000000000000008152600281019290925260228201526042902090565b600080600080610b3888888888610e49565b925092509250610b488282610f18565b50909695505050505050565b6001600160a01b038416610b97576040517fe602df0500000000000000000000000000000000000000000000000000000000815260006004820152602401610576565b6001600160a01b038316610bda576040517f94280d6200000000000000000000000000000000000000000000000000000000815260006004820152602401610576565b6001600160a01b03808516600090815260016020908152604080832093871683529290522082905580156107f557826001600160a01b0316846001600160a01b03167f8c5be1e5ebec7d5bd14f71427d1e84f3dd0314c0f7b2291e5b200ac8c7c3b92584604051610c4d91815260200190565b60405180910390a350505050565b6001600160a01b038316610c86578060026000828254610c7b919061132b565b90915550610d119050565b6001600160a01b03831660009081526020819052604090205481811015610cf2576040517fe450d38c0000000000000000000000000000000000000000000000000000000081526001600160a01b03851660048201526024810182905260448101839052606401610576565b6001600160a01b03841660009081526020819052604090209082900390555b6001600160a01b038216610d2d57600280548290039055610d4c565b6001600160a01b03821660009081526020819052604090208054820190555b816001600160a01b0316836001600160a01b03167fddf252ad1be2c89b69c2b068fc378daa952ba7f163c4a11628f55a4df523b3ef83604051610d9191815260200190565b60405180910390a3505050565b606060ff8314610db857610db18361101c565b90506103ef565b818054610dc4906112f1565b80601f0160208091040260200160405190810160405280929190818152602001828054610df0906112f1565b8015610e3d5780601f10610e1257610100808354040283529160200191610e3d565b820191906000526020600020905b815481529060010190602001808311610e2057829003601f168201915b505050505090506103ef565b600080807f7fffffffffffffffffffffffffffffff5d576e7357a4501ddfe92f46681b20a0841115610e845750600091506003905082610f0e565b604080516000808252602082018084528a905260ff891692820192909252606081018790526080810186905260019060a0016020604051602081039080840390855afa158015610ed8573d6000803e3d6000fd5b5050604051601f1901519150506001600160a01b038116610f0457506000925060019150829050610f0e565b9250600091508190505b9450945094915050565b6000826003811115610f2c57610f2c61134c565b03610f35575050565b6001826003811115610f4957610f4961134c565b03610f80576040517ff645eedf00000000000000000000000000000000000000000000000000000000815260040160405180910390fd5b6002826003811115610f9457610f9461134c565b03610fce576040517ffce698f700000000000000000000000000000000000000000000000000000000815260048101829052602401610576565b6003826003811115610fe257610fe261134c565b03610488576040517fd78bce0c00000000000000000000000000000000000000000000000000000000815260048101829052602401610576565b606060006110298361105b565b604080516020808252818301909252919250600091906020820181803683375050509182525060208101929092525090565b600060ff8216601f8111156103ef576040517fb3512b0c00000000000000000000000000000000000000000000000000000000815260040160405180910390fd5b6000815180845260005b818110156110c2576020818501810151868301820152016110a6565b506000602082860101526020601f19601f83011685010191505092915050565b6020815260006110f5602083018461109c565b9392505050565b80356001600160a01b038116811461111357600080fd5b919050565b6000806040838503121561112b57600080fd5b611134836110fc565b946020939093013593505050565b60008060006060848603121561115757600080fd5b611160846110fc565b925061116e602085016110fc565b9150604084013590509250925092565b60006020828403121561119057600080fd5b6110f5826110fc565b7fff00000000000000000000000000000000000000000000000000000000000000881681526000602060e0818401526111d560e084018a61109c565b83810360408501526111e7818a61109c565b606085018990526001600160a01b038816608086015260a0850187905284810360c0860152855180825283870192509083019060005b818110156112395783518352928401929184019160010161121d565b50909c9b505050505050505050505050565b600080600080600080600060e0888a03121561126657600080fd5b61126f886110fc565b965061127d602089016110fc565b95506040880135945060608801359350608088013560ff811681146112a157600080fd5b9699959850939692959460a0840135945060c09093013592915050565b600080604083850312156112d157600080fd5b6112da836110fc565b91506112e8602084016110fc565b90509250929050565b600181811c9082168061130557607f821691505b60208210810361132557634e487b7160e01b600052602260045260246000fd5b50919050565b808201808211156103ef57634e487b7160e01b600052601160045260246000fd5b634e487b7160e01b600052602160045260246000fdfea2646970667358221220061090311bb8833753adf38ecaca1b704c7779cd1c0003d7da4a7ff21e1cf02b64736f6c63430008140033",
  "linkReferences": {},
  "deployedLinkReferences": {}
}