{
    "_format": "hh-sol-artifact-1",
    "contractName": "Timelock",
    "sourceName": "contracts/Timelock.sol",
    "abi": [
        {
            "inputs": [
                {
                    "internalType": "address",
                    "name": "admin_",
                    "type": "address"
                },
                {
                    "internalType": "uint256",
                    "name": "delay_",
                    "type": "uint256"
                }
            ],
            "stateMutability": "nonpayable",
            "type": "constructor"
        },
        {
            "anonymous": false,
            "inputs": [
                {
                    "indexed": true,
                    "internalType": "bytes32",
                    "name": "txHash",
                    "type": "bytes32"
                },
                {
                    "indexed": true,
                    "internalType": "address",
                    "name": "target",
                    "type": "address"
                },
                {
                    "indexed": false,
                    "internalType": "uint256",
                    "name": "value",
                    "type": "uint256"
                },
                {
                    "indexed": false,
                    "internalType": "string",
                    "name": "signature",
                    "type": "string"
                },
                {
                    "indexed": false,
                    "internalType": "bytes",
                    "name": "data",
                    "type": "bytes"
                },
                {
                    "indexed": false,
                    "internalType": "uint256",
                    "name": "eta",
                    "type": "uint256"
                }
            ],
            "name": "CancelTransaction",
            "type": "event"
        },
        {
            "anonymous": false,
            "inputs": [
                {
                    "indexed": true,
                    "internalType": "bytes32",
                    "name": "txHash",
                    "type": "bytes32"
                },
                {
                    "indexed": true,
                    "internalType": "address",
                    "name": "target",
                    "type": "address"
                },
                {
                    "indexed": false,
                    "internalType": "uint256",
                    "name": "value",
                    "type": "uint256"
                },
                {
                    "indexed": false,
                    "internalType": "string",
                    "name": "signature",
                    "type": "string"
                },
                {
                    "indexed": false,
                    "internalType": "bytes",
                    "name": "data",
                    "type": "bytes"
                },
                {
                    "indexed": false,
                    "internalType": "uint256",
                    "name": "eta",
                    "type": "uint256"
                }
            ],
            "name": "ExecuteTransaction",
            "type": "event"
        },
        {
            "anonymous": false,
            "inputs": [
                {
                    "indexed": true,
                    "internalType": "address",
                    "name": "newAdmin",
                    "type": "address"
                }
            ],
            "name": "NewAdmin",
            "type": "event"
        },
        {
            "anonymous": false,
            "inputs": [
                {
                    "indexed": true,
                    "internalType": "uint256",
                    "name": "newDelay",
                    "type": "uint256"
                }
            ],
            "name": "NewDelay",
            "type": "event"
        },
        {
            "anonymous": false,
            "inputs": [
                {
                    "indexed": true,
                    "internalType": "address",
                    "name": "newPendingAdmin",
                    "type": "address"
                }
            ],
            "name": "NewPendingAdmin",
            "type": "event"
        },
        {
            "anonymous": false,
            "inputs": [
                {
                    "indexed": true,
                    "internalType": "bytes32",
                    "name": "txHash",
                    "type": "bytes32"
                },
                {
                    "indexed": true,
                    "internalType": "address",
                    "name": "target",
                    "type": "address"
                },
                {
                    "indexed": false,
                    "internalType": "uint256",
                    "name": "value",
                    "type": "uint256"
                },
                {
                    "indexed": false,
                    "internalType": "string",
                    "name": "signature",
                    "type": "string"
                },
                {
                    "indexed": false,
                    "internalType": "bytes",
                    "name": "data",
                    "type": "bytes"
                },
                {
                    "indexed": false,
                    "internalType": "uint256",
                    "name": "eta",
                    "type": "uint256"
                }
            ],
            "name": "QueueTransaction",
            "type": "event"
        },
        {
            "stateMutability": "payable",
            "type": "fallback"
        },
        {
            "inputs": [],
            "name": "GRACE_PERIOD",
            "outputs": [
                {
                    "internalType": "uint256",
                    "name": "",
                    "type": "uint256"
                }
            ],
            "stateMutability": "view",
            "type": "function"
        },
        {
            "inputs": [],
            "name": "MAXIMUM_DELAY",
            "outputs": [
                {
                    "internalType": "uint256",
                    "name": "",
                    "type": "uint256"
                }
            ],
            "stateMutability": "view",
            "type": "function"
        },
        {
            "inputs": [],
            "name": "MINIMUM_DELAY",
            "outputs": [
                {
                    "internalType": "uint256",
                    "name": "",
                    "type": "uint256"
                }
            ],
            "stateMutability": "view",
            "type": "function"
        },
        {
            "inputs": [],
            "name": "acceptAdmin",
            "outputs": [],
            "stateMutability": "nonpayable",
            "type": "function"
        },
        {
            "inputs": [],
            "name": "admin",
            "outputs": [
                {
                    "internalType": "address",
                    "name": "",
                    "type": "address"
                }
            ],
            "stateMutability": "view",
            "type": "function"
        },
        {
            "inputs": [
                {
                    "internalType": "address",
                    "name": "target",
                    "type": "address"
                },
                {
                    "internalType": "uint256",
                    "name": "value",
                    "type": "uint256"
                },
                {
                    "internalType": "string",
                    "name": "signature",
                    "type": "string"
                },
                {
                    "internalType": "bytes",
                    "name": "data",
                    "type": "bytes"
                },
                {
                    "internalType": "uint256",
                    "name": "eta",
                    "type": "uint256"
                }
            ],
            "name": "cancelTransaction",
            "outputs": [],
            "stateMutability": "nonpayable",
            "type": "function"
        },
        {
            "inputs": [],
            "name": "delay",
            "outputs": [
                {
                    "internalType": "uint256",
                    "name": "",
                    "type": "uint256"
                }
            ],
            "stateMutability": "view",
            "type": "function"
        },
        {
            "inputs": [
                {
                    "internalType": "address",
                    "name": "target",
                    "type": "address"
                },
                {
                    "internalType": "uint256",
                    "name": "value",
                    "type": "uint256"
                },
                {
                    "internalType": "string",
                    "name": "signature",
                    "type": "string"
                },
                {
                    "internalType": "bytes",
                    "name": "data",
                    "type": "bytes"
                },
                {
                    "internalType": "uint256",
                    "name": "eta",
                    "type": "uint256"
                }
            ],
            "name": "executeTransaction",
            "outputs": [
                {
                    "internalType": "bytes",
                    "name": "",
                    "type": "bytes"
                }
            ],
            "stateMutability": "payable",
            "type": "function"
        },
        {
            "inputs": [],
            "name": "pendingAdmin",
            "outputs": [
                {
                    "internalType": "address",
                    "name": "",
                    "type": "address"
                }
            ],
            "stateMutability": "view",
            "type": "function"
        },
        {
            "inputs": [
                {
                    "internalType": "address",
                    "name": "target",
                    "type": "address"
                },
                {
                    "internalType": "uint256",
                    "name": "value",
                    "type": "uint256"
                },
                {
                    "internalType": "string",
                    "name": "signature",
                    "type": "string"
                },
                {
                    "internalType": "bytes",
                    "name": "data",
                    "type": "bytes"
                },
                {
                    "internalType": "uint256",
                    "name": "eta",
                    "type": "uint256"
                }
            ],
            "name": "queueTransaction",
            "outputs": [
                {
                    "internalType": "bytes32",
                    "name": "",
                    "type": "bytes32"
                }
            ],
            "stateMutability": "nonpayable",
            "type": "function"
        },
        {
            "inputs": [
                {
                    "internalType": "bytes32",
                    "name": "",
                    "type": "bytes32"
                }
            ],
            "name": "queuedTransactions",
            "outputs": [
                {
                    "internalType": "bool",
                    "name": "",
                    "type": "bool"
                }
            ],
            "stateMutability": "view",
            "type": "function"
        },
        {
            "inputs": [
                {
                    "internalType": "uint256",
                    "name": "delay_",
                    "type": "uint256"
                }
            ],
            "name": "setDelay",
            "outputs": [],
            "stateMutability": "nonpayable",
            "type": "function"
        },
        {
            "inputs": [
                {
                    "internalType": "address",
                    "name": "pendingAdmin_",
                    "type": "address"
                }
            ],
            "name": "setPendingAdmin",
            "outputs": [],
            "stateMutability": "nonpayable",
            "type": "function"
        }
    ],
    "bytecode": "0x608060405234801561001057600080fd5b506040516110b23803806110b283398101604081905261002f9161014f565b6202a3008110156100ad5760405162461bcd60e51b815260206004820152603760248201527f54696d656c6f636b3a3a636f6e7374727563746f723a2044656c6179206d757360448201527f7420657863656564206d696e696d756d2064656c61792e00000000000000000060648201526084015b60405180910390fd5b62278d008111156101265760405162461bcd60e51b815260206004820152603860248201527f54696d656c6f636b3a3a73657444656c61793a2044656c6179206d757374206e60448201527f6f7420657863656564206d6178696d756d2064656c61792e000000000000000060648201526084016100a4565b600080546001600160a01b0319166001600160a01b039390931692909217909155600255610189565b6000806040838503121561016257600080fd5b82516001600160a01b038116811461017957600080fd5b6020939093015192949293505050565b610f1a806101986000396000f3fe6080604052600436106100af5760003560e01c80636a42b8f81161006c5780636a42b8f8146101955780637d645fab146101ab578063b1b43ae5146101c2578063c1a287e2146101d9578063e177246e146101f0578063f2b0653714610210578063f851a4401461025057005b80630825f38f146100b15780630e18b681146100da57806326782247146100ef5780633a66f901146101275780634dd18bf514610155578063591fcdfe14610175575b005b6100c46100bf366004610ca6565b610270565b6040516100d19190610da7565b60405180910390f35b3480156100e657600080fd5b506100af6105dd565b3480156100fb57600080fd5b5060015461010f906001600160a01b031681565b6040516001600160a01b0390911681526020016100d1565b34801561013357600080fd5b50610147610142366004610ca6565b6106a1565b6040519081526020016100d1565b34801561016157600080fd5b506100af610170366004610dba565b610854565b34801561018157600080fd5b506100af610190366004610ca6565b61090e565b3480156101a157600080fd5b5061014760025481565b3480156101b757600080fd5b5061014762278d0081565b3480156101ce57600080fd5b506101476202a30081565b3480156101e557600080fd5b506101476212750081565b3480156101fc57600080fd5b506100af61020b366004610dd5565b610a22565b34801561021c57600080fd5b5061024061022b366004610dd5565b60036020526000908152604090205460ff1681565b60405190151581526020016100d1565b34801561025c57600080fd5b5060005461010f906001600160a01b031681565b6000546060906001600160a01b031633146102f35760405162461bcd60e51b815260206004820152603860248201527f54696d656c6f636b3a3a657865637574655472616e73616374696f6e3a20436160448201527736361036bab9ba1031b7b6b290333937b69030b236b4b71760411b60648201526084015b60405180910390fd5b6000868686868660405160200161030e959493929190610dee565b60408051601f1981840301815291815281516020928301206000818152600390935291205490915060ff166103995760405162461bcd60e51b815260206004820152603d6024820152600080516020610ec583398151915260448201527f616e73616374696f6e206861736e2774206265656e207175657565642e00000060648201526084016102ea565b8242101561040b5760405162461bcd60e51b81526020600482015260456024820152600080516020610ec583398151915260448201527f616e73616374696f6e206861736e2774207375727061737365642074696d65206064820152643637b1b59760d91b608482015260a4016102ea565b6104188362127500610ba2565b4211156104715760405162461bcd60e51b81526020600482015260336024820152600080516020610ec583398151915260448201527230b739b0b1ba34b7b71034b99039ba30b6329760691b60648201526084016102ea565b6000818152600360205260408120805460ff191690558551606091036104985750836104c4565b8580519060200120856040516020016104b2929190610e3a565b60405160208183030381529060405290505b600080896001600160a01b031689846040516104e09190610e6b565b60006040518083038185875af1925050503d806000811461051d576040519150601f19603f3d011682016040523d82523d6000602084013e610522565b606091505b5091509150816105885760405162461bcd60e51b815260206004820152603d6024820152600080516020610ec583398151915260448201527f616e73616374696f6e20657865637574696f6e2072657665727465642e00000060648201526084016102ea565b896001600160a01b0316847fa560e3198060a2f10670c1ec5b403077ea6ae93ca8de1c32b451dc1a943cd6e78b8b8b8b6040516105c89493929190610e87565b60405180910390a39998505050505050505050565b6001546001600160a01b031633146106585760405162461bcd60e51b815260206004820152603860248201527f54696d656c6f636b3a3a61636365707441646d696e3a2043616c6c206d7573746044820152771031b7b6b290333937b6903832b73234b733a0b236b4b71760411b60648201526084016102ea565b60008054336001600160a01b0319918216811783556001805490921690915560405190917f71614071b88dee5e0b2ae578a9dd7b2ebbe9ae832ba419dc0242cd065a290b6c91a2565b600080546001600160a01b0316331461071b5760405162461bcd60e51b815260206004820152603660248201527f54696d656c6f636b3a3a71756575655472616e73616374696f6e3a2043616c6c6044820152751036bab9ba1031b7b6b290333937b69030b236b4b71760511b60648201526084016102ea565b61072e6002546107284290565b90610ba2565b8210156107b55760405162461bcd60e51b815260206004820152604960248201527f54696d656c6f636b3a3a71756575655472616e73616374696f6e3a204573746960448201527f6d6174656420657865637574696f6e20626c6f636b206d757374207361746973606482015268333c903232b630bc9760b91b608482015260a4016102ea565b600086868686866040516020016107d0959493929190610dee565b60408051601f19818403018152828252805160209182012060008181526003909252919020805460ff1916600117905591506001600160a01b0388169082907f76e2796dc3a81d57b0e8504b647febcbeeb5f4af818e164f11eef8131a6a763f90610842908a908a908a908a90610e87565b60405180910390a39695505050505050565b3330146108c45760405162461bcd60e51b815260206004820152603860248201527f54696d656c6f636b3a3a73657450656e64696e6741646d696e3a2043616c6c2060448201527736bab9ba1031b7b6b290333937b6902a34b6b2b637b1b59760411b60648201526084016102ea565b600180546001600160a01b0319166001600160a01b0383169081179091556040517f69d78e38a01985fbb1462961809b4b2d65531bc93b2b94037f3334b82ca4a75690600090a250565b6000546001600160a01b031633146109885760405162461bcd60e51b815260206004820152603760248201527f54696d656c6f636b3a3a63616e63656c5472616e73616374696f6e3a2043616c604482015276361036bab9ba1031b7b6b290333937b69030b236b4b71760491b60648201526084016102ea565b600085858585856040516020016109a3959493929190610dee565b60408051601f19818403018152828252805160209182012060008181526003909252919020805460ff1916905591506001600160a01b0387169082907f2fffc091a501fd91bfbff27141450d3acb40fb8e6d8382b243ec7a812a3aaf8790610a12908990899089908990610e87565b60405180910390a3505050505050565b333014610a8b5760405162461bcd60e51b815260206004820152603160248201527f54696d656c6f636b3a3a73657444656c61793a2043616c6c206d75737420636f60448201527036b290333937b6902a34b6b2b637b1b59760791b60648201526084016102ea565b6202a300811015610afb5760405162461bcd60e51b815260206004820152603460248201527f54696d656c6f636b3a3a73657444656c61793a2044656c6179206d75737420656044820152733c31b2b2b21036b4b734b6bab6903232b630bc9760611b60648201526084016102ea565b62278d00811115610b6f5760405162461bcd60e51b815260206004820152603860248201527f54696d656c6f636b3a3a73657444656c61793a2044656c6179206d757374206e60448201527737ba1032bc31b2b2b21036b0bc34b6bab6903232b630bc9760411b60648201526084016102ea565b600281905560405181907f948b1f6a42ee138b7e34058ba85a37f716d55ff25ff05a763f15bed6a04c8d2c90600090a250565b600082820183811015610bf75760405162461bcd60e51b815260206004820152601b60248201527f536166654d6174683a206164646974696f6e206f766572666c6f77000000000060448201526064016102ea565b9392505050565b80356001600160a01b0381168114610c1557600080fd5b919050565b634e487b7160e01b600052604160045260246000fd5b600067ffffffffffffffff80841115610c4b57610c4b610c1a565b604051601f8501601f19908116603f01168101908282118183101715610c7357610c73610c1a565b81604052809350858152868686011115610c8c57600080fd5b858560208301376000602087830101525050509392505050565b600080600080600060a08688031215610cbe57600080fd5b610cc786610bfe565b945060208601359350604086013567ffffffffffffffff80821115610ceb57600080fd5b818801915088601f830112610cff57600080fd5b610d0e89833560208501610c30565b94506060880135915080821115610d2457600080fd5b508601601f81018813610d3657600080fd5b610d4588823560208401610c30565b95989497509295608001359392505050565b60005b83811015610d72578181015183820152602001610d5a565b50506000910152565b60008151808452610d93816020860160208601610d57565b601f01601f19169290920160200192915050565b602081526000610bf76020830184610d7b565b600060208284031215610dcc57600080fd5b610bf782610bfe565b600060208284031215610de757600080fd5b5035919050565b60018060a01b038616815284602082015260a060408201526000610e1560a0830186610d7b565b8281036060840152610e278186610d7b565b9150508260808301529695505050505050565b6001600160e01b0319831681528151600090610e5d816004850160208701610d57565b919091016004019392505050565b60008251610e7d818460208701610d57565b9190910192915050565b848152608060208201526000610ea06080830186610d7b565b8281036040840152610eb28186610d7b565b9150508260608301529594505050505056fe54696d656c6f636b3a3a657865637574655472616e73616374696f6e3a205472a2646970667358221220ee11a51f423eacc78a0aaf4bfa0477625ea18bea8a127e5ad255d9f2768ba33164736f6c63430008140033",
    "linkReferences": {},
    "deployedLinkReferences": {}
}