{"abi":[{"type":"constructor","inputs":[{"name":"timelock_","type":"address","internalType":"address"},{"name":"comp_","type":"address","internalType":"address"},{"name":"votingPeriod_","type":"uint256","internalType":"uint256"},{"name":"votingDelay_","type":"uint256","internalType":"uint256"},{"name":"proposalThreshold_","type":"uint256","internalType":"uint256"}],"stateMutability":"nonpayable"},{"type":"function","name":"BALLOT_TYPEHASH","inputs":[],"outputs":[{"name":"","type":"bytes32","internalType":"bytes32"}],"stateMutability":"view"},{"type":"function","name":"DOMAIN_TYPEHASH","inputs":[],"outputs":[{"name":"","type":"bytes32","internalType":"bytes32"}],"stateMutability":"view"},{"type":"function","name":"MAX_PROPOSAL_THRESHOLD","inputs":[],"outputs":[{"name":"","type":"uint256","internalType":"uint256"}],"stateMutability":"view"},{"type":"function","name":"MAX_VOTING_DELAY","inputs":[],"outputs":[{"name":"","type":"uint256","internalType":"uint256"}],"stateMutability":"view"},{"type":"function","name":"MAX_VOTING_PERIOD","inputs":[],"outputs":[{"name":"","type":"uint256","internalType":"uint256"}],"stateMutability":"view"},{"type":"function","name":"MIN_PROPOSAL_THRESHOLD","inputs":[],"outputs":[{"name":"","type":"uint256","internalType":"uint256"}],"stateMutability":"view"},{"type":"function","name":"MIN_VOTING_DELAY","inputs":[],"outputs":[{"name":"","type":"uint256","internalType":"uint256"}],"stateMutability":"view"},{"type":"function","name":"MIN_VOTING_PERIOD","inputs":[],"outputs":[{"name":"","type":"uint256","internalType":"uint256"}],"stateMutability":"view"},{"type":"function","name":"_acceptAdmin","inputs":[],"outputs":[],"stateMutability":"nonpayable"},{"type":"function","name":"_initiate","inputs":[{"name":"governorAlpha","type":"address","internalType":"address"}],"outputs":[],"stateMutability":"nonpayable"},{"type":"function","name":"_setPendingAdmin","inputs":[{"name":"newPendingAdmin","type":"address","internalType":"address"}],"outputs":[],"stateMutability":"nonpayable"},{"type":"function","name":"_setProposalThreshold","inputs":[{"name":"newProposalThreshold","type":"uint256","internalType":"uint256"}],"outputs":[],"stateMutability":"nonpayable"},{"type":"function","name":"_setVotingDelay","inputs":[{"name":"newVotingDelay","type":"uint256","internalType":"uint256"}],"outputs":[],"stateMutability":"nonpayable"},{"type":"function","name":"_setVotingPeriod","inputs":[{"name":"newVotingPeriod","type":"uint256","internalType":"uint256"}],"outputs":[],"stateMutability":"nonpayable"},{"type":"function","name":"_setWhitelistAccountExpiration","inputs":[{"name":"account","type":"address","internalType":"address"},{"name":"expiration","type":"uint256","internalType":"uint256"}],"outputs":[],"stateMutability":"nonpayable"},{"type":"function","name":"_setWhitelistGuardian","inputs":[{"name":"account","type":"address","internalType":"address"}],"outputs":[],"stateMutability":"nonpayable"},{"type":"function","name":"active","inputs":[{"name":"","type":"address","internalType":"address"}],"outputs":[{"name":"","type":"bool","internalType":"bool"}],"stateMutability":"view"},{"type":"function","name":"admin","inputs":[],"outputs":[{"name":"","type":"address","internalType":"address"}],"stateMutability":"view"},{"type":"function","name":"cancel","inputs":[{"name":"proposalId","type":"uint256","internalType":"uint256"}],"outputs":[],"stateMutability":"nonpayable"},{"type":"function","name":"castVote","inputs":[{"name":"proposalId","type":"uint256","internalType":"uint256"},{"name":"support","type":"uint8","internalType":"uint8"}],"outputs":[],"stateMutability":"nonpayable"},{"type":"function","name":"castVoteBySig","inputs":[{"name":"proposalId","type":"uint256","internalType":"uint256"},{"name":"support","type":"uint8","internalType":"uint8"},{"name":"v","type":"uint8","internalType":"uint8"},{"name":"r","type":"bytes32","internalType":"bytes32"},{"name":"s","type":"bytes32","internalType":"bytes32"}],"outputs":[],"stateMutability":"nonpayable"},{"type":"function","name":"castVoteWithReason","inputs":[{"name":"proposalId","type":"uint256","internalType":"uint256"},{"name":"support","type":"uint8","internalType":"uint8"},{"name":"reason","type":"string","internalType":"string"}],"outputs":[],"stateMutability":"nonpayable"},{"type":"function","name":"comp","inputs":[],"outputs":[{"name":"","type":"address","internalType":"contract CompInterface"}],"stateMutability":"view"},{"type":"function","name":"execute","inputs":[{"name":"proposalId","type":"uint256","internalType":"uint256"}],"outputs":[],"stateMutability":"payable"},{"type":"function","name":"fromHex","inputs":[{"name":"s","type":"string","internalType":"string"}],"outputs":[{"name":"","type":"bytes","internalType":"bytes"}],"stateMutability":"pure"},{"type":"function","name":"fromHexChar","inputs":[{"name":"c","type":"uint8","internalType":"uint8"}],"outputs":[{"name":"","type":"uint8","internalType":"uint8"}],"stateMutability":"pure"},{"type":"function","name":"getActions","inputs":[{"name":"proposalId","type":"uint256","internalType":"uint256"}],"outputs":[{"name":"targets","type":"address[]","internalType":"address[]"},{"name":"values","type":"uint256[]","internalType":"uint256[]"},{"name":"signatures","type":"string[]","internalType":"string[]"},{"name":"calldatas","type":"bytes[]","internalType":"bytes[]"}],"stateMutability":"view"},{"type":"function","name":"getLd","inputs":[],"outputs":[{"name":"","type":"uint256[]","internalType":"uint256[]"}],"stateMutability":"view"},{"type":"function","name":"getReceipt","inputs":[{"name":"proposalId","type":"uint256","internalType":"uint256"},{"name":"voter","type":"address","internalType":"address"}],"outputs":[{"name":"","type":"tuple","internalType":"struct GovernorBravoDelegateStorageV1.Receipt","components":[{"name":"hasVoted","type":"bool","internalType":"bool"},{"name":"support","type":"uint8","internalType":"uint8"},{"name":"votes","type":"uint96","internalType":"uint96"}]}],"stateMutability":"view"},{"type":"function","name":"implementation","inputs":[],"outputs":[{"name":"","type":"address","internalType":"address"}],"stateMutability":"view"},{"type":"function","name":"initialProposalId","inputs":[],"outputs":[{"name":"","type":"uint256","internalType":"uint256"}],"stateMutability":"view"},{"type":"function","name":"initialize_private","inputs":[{"name":"pk_enc_x","type":"bytes32","internalType":"bytes32"},{"name":"pk_enc_y","type":"bytes32","internalType":"bytes32"},{"name":"r_t_","type":"bytes32","internalType":"bytes32"},{"name":"signature_","type":"string","internalType":"string"},{"name":"pk_sig_","type":"string","internalType":"string"}],"outputs":[],"stateMutability":"nonpayable"},{"type":"function","name":"isWhitelisted","inputs":[{"name":"account","type":"address","internalType":"address"}],"outputs":[{"name":"","type":"bool","internalType":"bool"}],"stateMutability":"view"},{"type":"function","name":"l_d_index","inputs":[{"name":"","type":"address","internalType":"address"}],"outputs":[{"name":"","type":"uint256","internalType":"uint256"}],"stateMutability":"view"},{"type":"function","name":"l_did","inputs":[{"name":"","type":"address","internalType":"address"}],"outputs":[{"name":"","type":"bytes32","internalType":"bytes32"}],"stateMutability":"view"},{"type":"function","name":"latestProposalIds","inputs":[{"name":"","type":"address","internalType":"address"}],"outputs":[{"name":"","type":"uint256","internalType":"uint256"}],"stateMutability":"view"},{"type":"function","name":"name","inputs":[],"outputs":[{"name":"","type":"string","internalType":"string"}],"stateMutability":"view"},{"type":"function","name":"pendingAdmin","inputs":[],"outputs":[{"name":"","type":"address","internalType":"address"}],"stateMutability":"view"},{"type":"function","name":"postTally","inputs":[{"name":"proposalId","type":"uint256","internalType":"uint256"},{"name":"forVotes","type":"uint256","internalType":"uint256"},{"name":"againstVotes","type":"uint256","internalType":"uint256"},{"name":"abstainVotes","type":"uint256","internalType":"uint256"}],"outputs":[],"stateMutability":"nonpayable"},{"type":"function","name":"proposalCount","inputs":[],"outputs":[{"name":"","type":"uint256","internalType":"uint256"}],"stateMutability":"view"},{"type":"function","name":"proposalMaxOperations","inputs":[],"outputs":[{"name":"","type":"uint256","internalType":"uint256"}],"stateMutability":"view"},{"type":"function","name":"proposalThreshold","inputs":[],"outputs":[{"name":"","type":"uint256","internalType":"uint256"}],"stateMutability":"view"},{"type":"function","name":"proposals","inputs":[{"name":"","type":"uint256","internalType":"uint256"}],"outputs":[{"name":"id","type":"uint256","internalType":"uint256"},{"name":"proposer","type":"address","internalType":"address"},{"name":"eta","type":"uint256","internalType":"uint256"},{"name":"startBlock","type":"uint256","internalType":"uint256"},{"name":"endBlock","type":"uint256","internalType":"uint256"},{"name":"forVotes","type":"uint256","internalType":"uint256"},{"name":"againstVotes","type":"uint256","internalType":"uint256"},{"name":"abstainVotes","type":"uint256","internalType":"uint256"},{"name":"canceled","type":"bool","internalType":"bool"},{"name":"executed","type":"bool","internalType":"bool"}],"stateMutability":"view"},{"type":"function","name":"propose","inputs":[{"name":"targets","type":"address[]","internalType":"address[]"},{"name":"values","type":"uint256[]","internalType":"uint256[]"},{"name":"signatures","type":"string[]","internalType":"string[]"},{"name":"calldatas","type":"bytes[]","internalType":"bytes[]"},{"name":"description","type":"string","internalType":"string"}],"outputs":[{"name":"","type":"uint256","internalType":"uint256"}],"stateMutability":"nonpayable"},{"type":"function","name":"queue","inputs":[{"name":"proposalId","type":"uint256","internalType":"uint256"}],"outputs":[],"stateMutability":"nonpayable"},{"type":"function","name":"quorumVotes","inputs":[],"outputs":[{"name":"","type":"uint256","internalType":"uint256"}],"stateMutability":"view"},{"type":"function","name":"register_delegate","inputs":[{"name":"balance","type":"bytes32","internalType":"bytes32"},{"name":"cex","type":"bytes32","internalType":"bytes32"},{"name":"cey","type":"bytes32","internalType":"bytes32"},{"name":"cvx","type":"bytes32","internalType":"bytes32"},{"name":"cvy","type":"bytes32","internalType":"bytes32"},{"name":"proof","type":"string","internalType":"string"}],"outputs":[],"stateMutability":"nonpayable"},{"type":"function","name":"state","inputs":[{"name":"proposalId","type":"uint256","internalType":"uint256"}],"outputs":[{"name":"","type":"uint8","internalType":"enum GovernorBravoDelegateStorageV1.ProposalState"}],"stateMutability":"view"},{"type":"function","name":"timelock","inputs":[],"outputs":[{"name":"","type":"address","internalType":"contract TimelockInterface"}],"stateMutability":"view"},{"type":"function","name":"unregister_delegate","inputs":[],"outputs":[],"stateMutability":"nonpayable"},{"type":"function","name":"votingDelay","inputs":[],"outputs":[{"name":"","type":"uint256","internalType":"uint256"}],"stateMutability":"view"},{"type":"function","name":"votingPeriod","inputs":[],"outputs":[{"name":"","type":"uint256","internalType":"uint256"}],"stateMutability":"view"},{"type":"function","name":"whitelistAccountExpirations","inputs":[{"name":"","type":"address","internalType":"address"}],"outputs":[{"name":"","type":"uint256","internalType":"uint256"}],"stateMutability":"view"},{"type":"function","name":"whitelistGuardian","inputs":[],"outputs":[{"name":"","type":"address","internalType":"address"}],"stateMutability":"view"},{"type":"event","name":"InitializePrivate","inputs":[{"name":"pk_enc_x","type":"bytes32","indexed":true,"internalType":"bytes32"},{"name":"pk_enc_y","type":"bytes32","indexed":true,"internalType":"bytes32"},{"name":"r_t_","type":"bytes32","indexed":true,"internalType":"bytes32"},{"name":"signature_","type":"string","indexed":false,"internalType":"string"},{"name":"pk_sig_","type":"string","indexed":false,"internalType":"string"}],"anonymous":false},{"type":"event","name":"NewAdmin","inputs":[{"name":"oldAdmin","type":"address","indexed":false,"internalType":"address"},{"name":"newAdmin","type":"address","indexed":false,"internalType":"address"}],"anonymous":false},{"type":"event","name":"NewImplementation","inputs":[{"name":"oldImplementation","type":"address","indexed":false,"internalType":"address"},{"name":"newImplementation","type":"address","indexed":false,"internalType":"address"}],"anonymous":false},{"type":"event","name":"NewPendingAdmin","inputs":[{"name":"oldPendingAdmin","type":"address","indexed":false,"internalType":"address"},{"name":"newPendingAdmin","type":"address","indexed":false,"internalType":"address"}],"anonymous":false},{"type":"event","name":"PostTally","inputs":[{"name":"proposalId","type":"uint256","indexed":false,"internalType":"uint256"},{"name":"forVotes","type":"uint256","indexed":false,"internalType":"uint256"},{"name":"againstVotes","type":"uint256","indexed":false,"internalType":"uint256"},{"name":"abstainVotes","type":"uint256","indexed":false,"internalType":"uint256"}],"anonymous":false},{"type":"event","name":"ProposalCanceled","inputs":[{"name":"id","type":"uint256","indexed":false,"internalType":"uint256"}],"anonymous":false},{"type":"event","name":"ProposalCreated","inputs":[{"name":"id","type":"uint256","indexed":false,"internalType":"uint256"},{"name":"proposer","type":"address","indexed":false,"internalType":"address"},{"name":"targets","type":"address[]","indexed":false,"internalType":"address[]"},{"name":"values","type":"uint256[]","indexed":false,"internalType":"uint256[]"},{"name":"signatures","type":"string[]","indexed":false,"internalType":"string[]"},{"name":"calldatas","type":"bytes[]","indexed":false,"internalType":"bytes[]"},{"name":"startBlock","type":"uint256","indexed":false,"internalType":"uint256"},{"name":"endBlock","type":"uint256","indexed":false,"internalType":"uint256"},{"name":"description","type":"string","indexed":false,"internalType":"string"}],"anonymous":false},{"type":"event","name":"ProposalExecuted","inputs":[{"name":"id","type":"uint256","indexed":false,"internalType":"uint256"}],"anonymous":false},{"type":"event","name":"ProposalQueued","inputs":[{"name":"id","type":"uint256","indexed":false,"internalType":"uint256"},{"name":"eta","type":"uint256","indexed":false,"internalType":"uint256"}],"anonymous":false},{"type":"event","name":"ProposalThresholdSet","inputs":[{"name":"oldProposalThreshold","type":"uint256","indexed":false,"internalType":"uint256"},{"name":"newProposalThreshold","type":"uint256","indexed":false,"internalType":"uint256"}],"anonymous":false},{"type":"event","name":"RegisterDelegate","inputs":[{"name":"sender","type":"address","indexed":true,"internalType":"address"},{"name":"lock_of_sender","type":"bool","indexed":false,"internalType":"bool"},{"name":"active_of_sender","type":"bool","indexed":false,"internalType":"bool"},{"name":"delegate_bal","type":"uint256","indexed":false,"internalType":"uint256"},{"name":"sender_index","type":"uint256","indexed":false,"internalType":"uint256"}],"anonymous":false},{"type":"event","name":"UnregisterDelegate","inputs":[{"name":"sender","type":"address","indexed":false,"internalType":"address"},{"name":"lock_of_sender","type":"bool","indexed":false,"internalType":"bool"},{"name":"active_of_sender","type":"bool","indexed":false,"internalType":"bool"},{"name":"encr_delegate_bal","type":"uint256","indexed":false,"internalType":"uint256"},{"name":"sender_index","type":"uint256","indexed":false,"internalType":"uint256"}],"anonymous":false},{"type":"event","name":"VoteCast","inputs":[{"name":"voter","type":"address","indexed":true,"internalType":"address"},{"name":"proposalId","type":"uint256","indexed":false,"internalType":"uint256"},{"name":"support","type":"uint8","indexed":false,"internalType":"uint8"},{"name":"votes","type":"uint256","indexed":false,"internalType":"uint256"},{"name":"reason","type":"string","indexed":false,"internalType":"string"}],"anonymous":false},{"type":"event","name":"VotingDelaySet","inputs":[{"name":"oldVotingDelay","type":"uint256","indexed":false,"internalType":"uint256"},{"name":"newVotingDelay","type":"uint256","indexed":false,"internalType":"uint256"}],"anonymous":false},{"type":"event","name":"VotingPeriodSet","inputs":[{"name":"oldVotingPeriod","type":"uint256","indexed":false,"internalType":"uint256"},{"name":"newVotingPeriod","type":"uint256","indexed":false,"internalType":"uint256"}],"anonymous":false},{"type":"event","name":"WhitelistAccountExpirationSet","inputs":[{"name":"account","type":"address","indexed":false,"internalType":"address"},{"name":"expiration","type":"uint256","indexed":false,"internalType":"uint256"}],"anonymous":false},{"type":"event","name":"WhitelistGuardianSet","inputs":[{"name":"oldGuardian","type":"address","indexed":false,"internalType":"address"},{"name":"newGuardian","type":"address","indexed":false,"internalType":"address"}],"anonymous":false}],"bytecode":{"object":"0x60806040523480156200001157600080fd5b506040516200b2d13803806200b2d18339810160408190526200003491620003a3565b6008546001600160a01b031615620000b95760405162461bcd60e51b815260206004820152603360248201527f476f7665726e6f72427261766f3a3a696e697469616c697a653a2063616e206f60448201527f6e6c7920696e697469616c697a65206f6e63650000000000000000000000000060648201526084015b60405180910390fd5b6001600160a01b038516620001265760405162461bcd60e51b815260206004820152603360248201526000805160206200b2b183398151915260448201527f69642074696d656c6f636b2061646472657373000000000000000000000000006064820152608401620000b0565b6001600160a01b038416620001855760405162461bcd60e51b815260206004820152602f60248201526000805160206200b2b183398151915260448201526e696420636f6d70206164647265737360881b6064820152608401620000b0565b61168083101580156200019b575062013b008311155b620001f15760405162461bcd60e51b815260206004820152603060248201526000805160206200b2b183398151915260448201526f1a59081d9bdd1a5b99c81c195c9a5bd960821b6064820152608401620000b0565b60018210158015620002055750619d808211155b6200025a5760405162461bcd60e51b815260206004820152602f60248201526000805160206200b2b183398151915260448201526e696420766f74696e672064656c617960881b6064820152608401620000b0565b683635c9adc5dea0000081101580156200027e575069152d02c7e14af68000008111155b620002e15760405162461bcd60e51b815260206004820152603560248201526000805160206200b2b183398151915260448201527f69642070726f706f73616c207468726573686f6c6400000000000000000000006064820152608401620000b0565b600880546001600160a01b038088166001600160a01b03199283161790925560098054928716929091169190911790556004839055600382905560058190556040516200032e9062000378565b604051809103906000f0801580156200034b573d6000803e3d6000fd5b50601580546001600160a01b0319166001600160a01b039290921691909117905550620003f69350505050565b6154ef8062005dc283390190565b80516001600160a01b03811681146200039e57600080fd5b919050565b600080600080600060a08688031215620003bc57600080fd5b620003c78662000386565b9450620003d76020870162000386565b6040870151606088015160809098015196999198509695945092505050565b6159bc80620004066000396000f3fe6080604052600436106103355760003560e01c8063501b31b7116101ab578063b71d1a0c116100f7578063e23a9a5211610095578063f851a4401161006f578063f851a44014610b7c578063f9d28b8014610b9c578063fc4eee4214610bbc578063fe0d94c114610bd257600080fd5b8063e23a9a5214610a8e578063e48083fe14610b52578063e9c714f214610b6757600080fd5b8063da35c664116100d1578063da35c66414610a04578063da95691a14610a1a578063ddf0b00914610a3a578063deaaa7cc14610a5a57600080fd5b8063b71d1a0c146109a4578063c5a8425d146109c4578063d33219b4146109e457600080fd5b80638b8c51b311610164578063995333651161013e5780639953336514610941578063a64e024a14610961578063b112626314610978578063b58131b01461098e57600080fd5b80638b8c51b3146108d45780638e7e34d7146108f45780638f24f0c21461091457600080fd5b8063501b31b71461082d57806356781388146108425780635c60da1b14610862578063791f5d23146108825780637b3c71d31461089f5780637bdbe4d0146108bf57600080fd5b8063215809ca116102855780633932abb1116102235780633e4f49e6116101fd5780633e4f49e61461079057806340e58ee5146107bd5780634d6733d2146107dd5780634ea71327146107fd57600080fd5b80633932abb1146107125780633af32abf146107285780633bccf4fd1461077057600080fd5b8063267822471161025f57806326782247146106635780632ecb20d314610683578063328dd982146106b557806338bd0dda146106e557600080fd5b8063215809ca1461061157806324bc1a641461062757806325fd935a1461064557600080fd5b8063109d0af8116102f25780631957e87f116102cc5780631957e87f146105705780631c3c82ec1461059d5780631dfb1b5a146105bd57806320606b70146105dd57600080fd5b8063109d0af8146104eb57806317977c611461052357806317ba1b8b1461055057600080fd5b8063013cf08b1461033a57806302a251a31461041357806306fdde0314610437578063079a3930146104875780630ea2d98c146104a957806310720068146104cb575b600080fd5b34801561034657600080fd5b506103b8610355366004613ab5565b600a60208190526000918252604090912080546001820154600283015460078401546008850154600986015496860154600b870154600c9097015495976001600160a01b0390951696939592949193919290919060ff808216916101009004168a565b604080519a8b526001600160a01b0390991660208b0152978901969096526060880194909452608087019290925260a086015260c085015260e084015215156101008301521515610120820152610140015b60405180910390f35b34801561041f57600080fd5b5061042960045481565b60405190815260200161040a565b34801561044357600080fd5b5061047a60405180604001604052806017815260200176436f6d706f756e6420476f7665726e6f7220427261766f60481b81525081565b60405161040a9190613b1e565b34801561049357600080fd5b5061049c610be5565b60405161040a9190613b6d565b3480156104b557600080fd5b506104c96104c4366004613ab5565b610c3d565b005b3480156104d757600080fd5b506104c96104e6366004613c4b565b610d76565b3480156104f757600080fd5b5060095461050b906001600160a01b031681565b6040516001600160a01b03909116815260200161040a565b34801561052f57600080fd5b5061042961053e366004613ce7565b600b6020526000908152604090205481565b34801561055c57600080fd5b506104c961056b366004613ab5565b610dcc565b34801561057c57600080fd5b5061042961058b366004613ce7565b600e6020526000908152604090205481565b3480156105a957600080fd5b506104c96105b8366004613d02565b610f14565b3480156105c957600080fd5b506104c96105d8366004613ab5565b611288565b3480156105e957600080fd5b506104297f8cad95687ba82c2ce50e74f7b754645e5117c3a5bec8151c0726d5857980a86681565b34801561061d57600080fd5b5061042961168081565b34801561063357600080fd5b506104296954b40b1f852bda00000081565b34801561065157600080fd5b5061042969152d02c7e14af680000081565b34801561066f57600080fd5b5060015461050b906001600160a01b031681565b34801561068f57600080fd5b506106a361069e366004613d7e565b6113af565b60405160ff909116815260200161040a565b3480156106c157600080fd5b506106d56106d0366004613ab5565b6114c2565b60405161040a9493929190613e2d565b3480156106f157600080fd5b50610429610700366004613ce7565b600c6020526000908152604090205481565b34801561071e57600080fd5b5061042960035481565b34801561073457600080fd5b50610760610743366004613ce7565b6001600160a01b03166000908152600c6020526040902054421090565b604051901515815260200161040a565b34801561077c57600080fd5b506104c961078b366004613e85565b611753565b34801561079c57600080fd5b506107b06107ab366004613ab5565b6119d0565b60405161040a9190613ee9565b3480156107c957600080fd5b506104c96107d8366004613ab5565b611b89565b3480156107e957600080fd5b506104c96107f8366004613f11565b611fd1565b34801561080957600080fd5b50610760610818366004613ce7565b600f6020526000908152604090205460ff1681565b34801561083957600080fd5b506104c96120b7565b34801561084e57600080fd5b506104c961085d366004613f3b565b612149565b34801561086e57600080fd5b5060025461050b906001600160a01b031681565b34801561088e57600080fd5b50610429683635c9adc5dea0000081565b3480156108ab57600080fd5b506104c96108ba366004613f67565b6121b4565b3480156108cb57600080fd5b50610429600a81565b3480156108e057600080fd5b506104c96108ef366004613fed565b612204565b34801561090057600080fd5b5061047a61090f36600461401f565b612252565b34801561092057600080fd5b5061042961092f366004613ce7565b60106020526000908152604090205481565b34801561094d57600080fd5b506104c961095c366004613ce7565b612372565b34801561096d57600080fd5b5061042962013b0081565b34801561098457600080fd5b50610429619d8081565b34801561099a57600080fd5b5061042960055481565b3480156109b057600080fd5b506104c96109bf366004613ce7565b61243f565b3480156109d057600080fd5b50600d5461050b906001600160a01b031681565b3480156109f057600080fd5b5060085461050b906001600160a01b031681565b348015610a1057600080fd5b5061042960075481565b348015610a2657600080fd5b50610429610a35366004614261565b612506565b348015610a4657600080fd5b506104c9610a55366004613ab5565b612ba5565b348015610a6657600080fd5b506104297f150214d74d59b7d1e90c73fc22ef3d991dd0a76b046543d4d80ab92d2a50328f81565b348015610a9a57600080fd5b50610b22610aa9366004614302565b604080516060808201835260008083526020808401829052928401819052948552600a82528285206001600160a01b03949094168552600d909301815292819020815192830182525460ff8082161515845261010082041693830193909352620100009092046001600160601b03169181019190915290565b6040805182511515815260208084015160ff1690820152918101516001600160601b03169082015260600161040a565b348015610b5e57600080fd5b50610429600181565b348015610b7357600080fd5b506104c9612ea7565b348015610b8857600080fd5b5060005461050b906001600160a01b031681565b348015610ba857600080fd5b506104c9610bb7366004613ce7565b612fd1565b348015610bc857600080fd5b5061042960065481565b6104c9610be0366004613ab5565b61316d565b60606011805480602002602001604051908101604052809291908181526020018280548015610c3357602002820191906000526020600020905b815481526020019060010190808311610c1f575b5050505050905090565b6000546001600160a01b03163314610cb05760405162461bcd60e51b815260206004820152602b60248201527f476f7665726e6f72427261766f3a3a5f736574566f74696e67506572696f643a60448201526a2061646d696e206f6e6c7960a81b60648201526084015b60405180910390fd5b6116808110158015610cc5575062013b008111155b610d305760405162461bcd60e51b815260206004820152603660248201527f476f7665726e6f72427261766f3a3a5f736574566f74696e67506572696f643a604482015275081a5b9d985b1a59081d9bdd1a5b99c81c195c9a5bd960521b6064820152608401610ca7565b600480549082905560408051828152602081018490527f7e3f7f0708a84de9203036abaa450dccc85ad5ff52f78c170f3edb55cf5e882891015b60405180910390a15050565b6013859055601484905560128390556040518390859087907f82f26d7def2526505498fb42645711a122d5f2a843b41862ef56b317543cc0a990610dbd9087908790614325565b60405180910390a45050505050565b6000546001600160a01b03163314610e3f5760405162461bcd60e51b815260206004820152603060248201527f476f7665726e6f72427261766f3a3a5f73657450726f706f73616c546872657360448201526f686f6c643a2061646d696e206f6e6c7960801b6064820152608401610ca7565b683635c9adc5dea000008110158015610e62575069152d02c7e14af68000008111155b610ed6576040805162461bcd60e51b81526020600482015260248101919091527f476f7665726e6f72427261766f3a3a5f73657450726f706f73616c546872657360448201527f686f6c643a20696e76616c69642070726f706f73616c207468726573686f6c646064820152608401610ca7565b600580549082905560408051828152602081018490527fccb45da8d5717e6c4544694297c4ba5cf151d455c9bb0ed4fc7a38411bc054619101610d6a565b604080516008808252610120820190925260009160208201610100803683370190505090507f08020c601533438fd582316645db07b31777043641fb95c44f65761f725332f760001b81600081518110610f7057610f70614353565b6020026020010181815250507f1ed4403dd33567ae592be66a5646befd0a3e9af1e08427239dd088f46b21d9ee60001b81600181518110610fb357610fb3614353565b60200260200101818152505061c35060001b81600281518110610fd857610fd8614353565b602002602001018181525050600760001b81600381518110610ffc57610ffc614353565b6020026020010181815250507f16c3b9a1b89493f310c54ddc2a5ea98066365e1a0bd0ec08ab0948ce808ad99b60001b8160048151811061103f5761103f614353565b6020026020010181815250507f1a8ac9f30f893951ab452fea01a1542156f7b6d0e751c1d367da79f0e75a8bc660001b8160058151811061108257611082614353565b6020026020010181815250507f2c6bfc7fe056ed38e26ec136ec8aec5f63ecc4b52c44afba967649cf1e6e231160001b816006815181106110c5576110c5614353565b6020026020010181815250507f1ac7675df6265f6e12d1c79a2b3b6658a0d46a320fba497ad0b817f9b19e0f2160001b8160078151811061110857611108614353565b602002602001018181525050600061113a604051806110e001604052806110c081526020016148c76110c09139612252565b6040805160008082526020820152600a8183018190526060820152905191925073f39fd6e51aad88f6f4ce6ab8827279cfffb92266917f64274b467e924d461b489efaa9a16f8f1fe8153a1d184e48ed202839b73c8d7d9181900360800190a260155460405163746581c560e01b81526001600160a01b039091169063746581c5906111cf9084908690600390600401614369565b602060405180830381865afa1580156111ec573d6000803e3d6000fd5b505050506040513d601f19601f8201168201806040525081019061121091906143cc565b61124c5760405162461bcd60e51b815260206004820152600d60248201526c24b73b30b634b210283937b7b360991b6044820152606401610ca7565b60405162461bcd60e51b8152602060048201526011602482015270416e64206261636b20616e64206261636b60781b6044820152606401610ca7565b6000546001600160a01b031633146112f55760405162461bcd60e51b815260206004820152602a60248201527f476f7665726e6f72427261766f3a3a5f736574566f74696e6744656c61793a2060448201526961646d696e206f6e6c7960b01b6064820152608401610ca7565b600181101580156113085750619d808111155b6113715760405162461bcd60e51b815260206004820152603460248201527f476f7665726e6f72427261766f3a3a5f736574566f74696e6744656c61793a20604482015273696e76616c696420766f74696e672064656c617960601b6064820152608401610ca7565b600380549082905560408051828152602081018490527fc565b045403dc03c2eea82b81a0465edad9e2e7fc4d97e11421c209da93d7a939101610d6a565b6000600360fc1b60f883901b6001600160f81b031916108015906113e55750603960f81b60f883901b6001600160f81b03191611155b156113fb576113f5603083614404565b92915050565b606160f81b60f883901b6001600160f81b0319161080159061142f5750603360f91b60f883901b6001600160f81b03191611155b1561144b57606161144183600a61441d565b6113f59190614404565b604160f81b60f883901b6001600160f81b0319161080159061147f5750602360f91b60f883901b6001600160f81b03191611155b1561149157604161144183600a61441d565b60405162461bcd60e51b8152600401610ca79060208082526004908201526319985a5b60e21b604082015260600190565b6060806060806000600a60008781526020019081526020016000209050806003018160040182600501836006018380548060200260200160405190810160405280929190818152602001828054801561154457602002820191906000526020600020905b81546001600160a01b03168152600190910190602001808311611526575b505050505093508280548060200260200160405190810160405280929190818152602001828054801561159657602002820191906000526020600020905b815481526020019060010190808311611582575b5050505050925081805480602002602001604051908101604052809291908181526020016000905b8282101561166a5783829060005260206000200180546115dd90614436565b80601f016020809104026020016040519081016040528092919081815260200182805461160990614436565b80156116565780601f1061162b57610100808354040283529160200191611656565b820191906000526020600020905b81548152906001019060200180831161163957829003601f168201915b5050505050815260200190600101906115be565b50505050915080805480602002602001604051908101604052809291908181526020016000905b8282101561173d5783829060005260206000200180546116b090614436565b80601f01602080910402602001604051908101604052809291908181526020018280546116dc90614436565b80156117295780601f106116fe57610100808354040283529160200191611729565b820191906000526020600020905b81548152906001019060200180831161170c57829003601f168201915b505050505081526020019060010190611691565b5050505090509450945094509450509193509193565b6040805180820182526017815276436f6d706f756e6420476f7665726e6f7220427261766f60481b60209182015281517f8cad95687ba82c2ce50e74f7b754645e5117c3a5bec8151c0726d5857980a866818301527f3d9e905142ff365fb68ce863f26a44f5583cf7ec11bcde450555f50b7e1b561481840152466060820152306080808301919091528351808303909101815260a0820184528051908301207f150214d74d59b7d1e90c73fc22ef3d991dd0a76b046543d4d80ab92d2a50328f60c083015260e0820189905260ff8816610100808401919091528451808403909101815261012083019094528351939092019290922061190160f01b6101408401526101428301829052610162830181905290916000906101820160408051601f198184030181528282528051602091820120600080855291840180845281905260ff8a169284019290925260608301889052608083018790529092509060019060a0016020604051602081039080840390855afa1580156118da573d6000803e3d6000fd5b5050604051601f1901519150506001600160a01b0381166119555760405162461bcd60e51b815260206004820152602f60248201527f476f7665726e6f72427261766f3a3a63617374566f746542795369673a20696e60448201526e76616c6964207369676e617475726560881b6064820152608401610ca7565b806001600160a01b03167fb8e138887d0aa13bab447e82de9d5c1777041ecd21ca36ba824ff1e6c07ddda48a8a61198d858e8e6133a0565b6040805193845260ff90921660208401526001600160601b03169082015260806060820181905260009082015260a00160405180910390a2505050505050505050565b600081600754101580156119e5575060065482115b611a435760405162461bcd60e51b815260206004820152602960248201527f476f7665726e6f72427261766f3a3a73746174653a20696e76616c69642070726044820152681bdc1bdcd85b081a5960ba1b6064820152608401610ca7565b6000828152600a60205260409020600c81015460ff1615611a675750600292915050565b80600701544311611a7b5750600092915050565b80600801544311611a8f5750600192915050565b80600a01548160090154111580611ab357506954b40b1f852bda0000008160090154105b15611ac15750600392915050565b8060020154600003611ad65750600492915050565b600c810154610100900460ff1615611af15750600792915050565b6002810154600854604080516360d143f160e11b81529051611b6b93926001600160a01b03169163c1a287e29160048083019260209291908290030181865afa158015611b42573d6000803e3d6000fd5b505050506040513d601f19601f82011682018060405250810190611b66919061446a565b613680565b4210611b7a5750600692915050565b50600592915050565b50919050565b6007611b94826119d0565b6007811115611ba557611ba5613ed3565b03611c115760405162461bcd60e51b815260206004820152603660248201527f476f7665726e6f72427261766f3a3a63616e63656c3a2063616e6e6f742063616044820152751b98d95b08195e1958dd5d1959081c1c9bdc1bdcd85b60521b6064820152608401610ca7565b6000818152600a6020526040902060018101546001600160a01b03163314611e7c5760018101546001600160a01b03166000908152600c6020526040902054421015611d75576005546009546001838101546001600160a01b039283169263782d6fe192911690611c839043906136da565b6040516001600160e01b031960e085901b1681526001600160a01b0390921660048301526024820152604401602060405180830381865afa158015611ccc573d6000803e3d6000fd5b505050506040513d601f19601f82011682018060405250810190611cf09190614483565b6001600160601b0316108015611d105750600d546001600160a01b031633145b611d705760405162461bcd60e51b815260206004820152602b60248201527f476f7665726e6f72427261766f3a3a63616e63656c3a2077686974656c69737460448201526a32b210383937b837b9b2b960a91b6064820152608401610ca7565b611e7c565b6005546009546001838101546001600160a01b039283169263782d6fe192911690611da19043906136da565b6040516001600160e01b031960e085901b1681526001600160a01b0390921660048301526024820152604401602060405180830381865afa158015611dea573d6000803e3d6000fd5b505050506040513d601f19601f82011682018060405250810190611e0e9190614483565b6001600160601b031610611e7c5760405162461bcd60e51b815260206004820152602f60248201527f476f7665726e6f72427261766f3a3a63616e63656c3a2070726f706f7365722060448201526e18589bdd99481d1a1c995cda1bdb19608a1b6064820152608401610ca7565b600c8101805460ff1916600117905560005b6003820154811015611fa0576008546003830180546001600160a01b039092169163591fcdfe919084908110611ec657611ec6614353565b6000918252602090912001546004850180546001600160a01b039092169185908110611ef457611ef4614353565b9060005260206000200154856005018581548110611f1457611f14614353565b90600052602060002001866006018681548110611f3357611f33614353565b9060005260206000200187600201546040518663ffffffff1660e01b8152600401611f62959493929190614529565b600060405180830381600087803b158015611f7c57600080fd5b505af1158015611f90573d6000803e3d6000fd5b505060019092019150611e8e9050565b506040518281527f789cf55be980739dad1d0699b93b58e806b51c9d96619bfa8fe0a28abaa7b30c90602001610d6a565b6000546001600160a01b0316331480611ff45750600d546001600160a01b031633145b6120665760405162461bcd60e51b815260206004820152603960248201527f476f7665726e6f72427261766f3a3a5f73657457686974656c6973744163636f60448201527f756e7445787069726174696f6e3a2061646d696e206f6e6c79000000000000006064820152608401610ca7565b6001600160a01b0382166000818152600c6020908152604091829020849055815192835282018390527f4e7b7545bc5744d0e30425959f4687475774b6c7edad77d24cb51c7d967d45159101610d6a565b604080516000815260016020820152600a8183018190526060820152905173f39fd6e51aad88f6f4ce6ab8827279cfffb92266917f64274b467e924d461b489efaa9a16f8f1fe8153a1d184e48ed202839b73c8d7d919081900360800190a260405162461bcd60e51b8152602060048201526008602482015267616e6420646f6e6560c01b6044820152606401610ca7565b337fb8e138887d0aa13bab447e82de9d5c1777041ecd21ca36ba824ff1e6c07ddda483836121788483836133a0565b6040805193845260ff90921660208401526001600160601b03169082015260806060820181905260009082015260a00160405180910390a25050565b337fb8e138887d0aa13bab447e82de9d5c1777041ecd21ca36ba824ff1e6c07ddda485856121e38483836133a0565b86866040516121f6959493929190614575565b60405180910390a250505050565b6040805185815260208101859052908101839052606081018290527fc4c17db6ee18d52db105a662e4e3f4faee08a507fab8eabb91028848d078611a9060800160405180910390a150505050565b80516060908290612265906002906145db565b1561226f57600080fd5b60006002825161227f91906145ef565b6001600160401b0381111561229657612296613b80565b6040519080825280601f01601f1916602001820160405280156122c0576020820181803683370190505b50905060005b600283516122d491906145ef565b81101561236a57612312836122ea836002614603565b6122f590600161461a565b8151811061230557612305614353565b016020015160f81c6113af565b612321846122f5846002614603565b61232c90601061462d565b612336919061441d565b60f81b82828151811061234b5761234b614353565b60200101906001600160f81b031916908160001a9053506001016122c6565b509392505050565b6000546001600160a01b031633146123e55760405162461bcd60e51b815260206004820152603060248201527f476f7665726e6f72427261766f3a3a5f73657457686974656c6973744775617260448201526f6469616e3a2061646d696e206f6e6c7960801b6064820152608401610ca7565b600d80546001600160a01b038381166001600160a01b031983168117909355604080519190921680825260208201939093527f80a07e73e552148844a9c216d9724212d609cfa54e9c1a2e97203bdd2c4ad3419101610d6a565b6000546001600160a01b031633146124ac5760405162461bcd60e51b815260206004820152602a60248201527f476f7665726e6f72427261766f3a5f73657450656e64696e6741646d696e3a2060448201526961646d696e206f6e6c7960b01b6064820152608401610ca7565b600180546001600160a01b038381166001600160a01b031983168117909355604080519190921680825260208201939093527fca4f2f25d0898edd99413412fb94012f9e54ec8142f9b093e7720646a95b16a99101610d6a565b60006006546000036125745760405162461bcd60e51b815260206004820152603160248201527f476f7665726e6f72427261766f3a3a70726f706f73653a20476f7665726e6f7260448201527020427261766f206e6f742061637469766560781b6064820152608401610ca7565b6005546009546001600160a01b031663782d6fe1336125944360016136da565b6040516001600160e01b031960e085901b1681526001600160a01b0390921660048301526024820152604401602060405180830381865afa1580156125dd573d6000803e3d6000fd5b505050506040513d601f19601f820116820180604052508101906126019190614483565b6001600160601b031611806126245750336000908152600c602052604090205442105b6126965760405162461bcd60e51b815260206004820152603f60248201527f476f7665726e6f72427261766f3a3a70726f706f73653a2070726f706f73657260448201527f20766f7465732062656c6f772070726f706f73616c207468726573686f6c64006064820152608401610ca7565b845186511480156126a8575083518651145b80156126b5575082518651145b6127355760405162461bcd60e51b8152602060048201526044602482018190527f476f7665726e6f72427261766f3a3a70726f706f73653a2070726f706f73616c908201527f2066756e6374696f6e20696e666f726d6174696f6e206172697479206d69736d6064820152630c2e8c6d60e31b608482015260a401610ca7565b855160000361279b5760405162461bcd60e51b815260206004820152602c60248201527f476f7665726e6f72427261766f3a3a70726f706f73653a206d7573742070726f60448201526b7669646520616374696f6e7360a01b6064820152608401610ca7565b600a865111156127fe5760405162461bcd60e51b815260206004820152602860248201527f476f7665726e6f72427261766f3a3a70726f706f73653a20746f6f206d616e7960448201526720616374696f6e7360c01b6064820152608401610ca7565b336000908152600b6020526040902054801561297d57600061281f826119d0565b9050600181600781111561283557612835613ed3565b036128ce5760405162461bcd60e51b815260206004820152605860248201527f476f7665726e6f72427261766f3a3a70726f706f73653a206f6e65206c69766560448201527f2070726f706f73616c207065722070726f706f7365722c20666f756e6420616e60648201527f20616c7265616479206163746976652070726f706f73616c0000000000000000608482015260a401610ca7565b60008160078111156128e2576128e2613ed3565b0361297b5760405162461bcd60e51b815260206004820152605960248201527f476f7665726e6f72427261766f3a3a70726f706f73653a206f6e65206c69766560448201527f2070726f706f73616c207065722070726f706f7365722c20666f756e6420616e60648201527f20616c72656164792070656e64696e672070726f706f73616c00000000000000608482015260a401610ca7565b505b600061298b43600354613680565b9050600061299b82600454613680565b6007805491925060006129ad83614650565b90915550506007546000818152600a60205260409020805415612a265760405162461bcd60e51b815260206004820152602b60248201527f476f7665726e6f72427261766f3a3a70726f706f73653a2050726f706f73616c60448201526a24a21031b7b63639b4b7b760a91b6064820152608401610ca7565b8181556001810180546001600160a01b03191633179055600060028201558a51612a5990600383019060208e01906138e5565b508951612a6f90600483019060208d019061394a565b508851612a8590600583019060208c0190613985565b508751612a9b90600683019060208b01906139d7565b5083816007018190555082816008018190555060008160090181905550600081600a0181905550600081600b0181905550600081600c0160006101000a81548160ff021916908315150217905550600081600c0160016101000a81548160ff0219169083151502179055508060000154600b60008360010160009054906101000a90046001600160a01b03166001600160a01b03166001600160a01b03168152602001908152602001600020819055507f7d84a6263ae0d98d3329bd7b46bb4e8d6f98cd35a7adb45c274c8b7fd5ebd5e08160000154338d8d8d8d8a8a8f604051612b8e99989796959493929190614669565b60405180910390a1549a9950505050505050505050565b6004612bb0826119d0565b6007811115612bc157612bc1613ed3565b14612c425760405162461bcd60e51b8152602060048201526044602482018190527f476f7665726e6f72427261766f3a3a71756575653a2070726f706f73616c2063908201527f616e206f6e6c79206265207175657565642069662069742069732073756363656064820152631959195960e21b608482015260a401610ca7565b6000818152600a602090815260408083206008548251630d48571f60e31b81529251919493612ca19342936001600160a01b0390931692636a42b8f8926004808401939192918290030181865afa158015611b42573d6000803e3d6000fd5b905060005b6003830154811015612e6157612e59836003018281548110612cca57612cca614353565b6000918252602090912001546004850180546001600160a01b039092169184908110612cf857612cf8614353565b9060005260206000200154856005018481548110612d1857612d18614353565b906000526020600020018054612d2d90614436565b80601f0160208091040260200160405190810160405280929190818152602001828054612d5990614436565b8015612da65780601f10612d7b57610100808354040283529160200191612da6565b820191906000526020600020905b815481529060010190602001808311612d8957829003601f168201915b5050505050866006018581548110612dc057612dc0614353565b906000526020600020018054612dd590614436565b80601f0160208091040260200160405190810160405280929190818152602001828054612e0190614436565b8015612e4e5780601f10612e2357610100808354040283529160200191612e4e565b820191906000526020600020905b815481529060010190602001808311612e3157829003601f168201915b50505050508661372e565b600101612ca6565b506002820181905560408051848152602081018390527f9a2e42fd6722813d69113e7d0079d3d940171428df7373df9c7f7617cfda2892910160405180910390a1505050565b6001546001600160a01b031633148015612ec057503315155b612f235760405162461bcd60e51b815260206004820152602e60248201527f476f7665726e6f72427261766f3a5f61636365707441646d696e3a2070656e6460448201526d696e672061646d696e206f6e6c7960901b6064820152608401610ca7565b60008054600180546001600160a01b038082166001600160a01b031980861682179096559490911690915560408051919092168082526020820184905292917ff9ffabca9c8276e99321725bcb43fb076a6c66a54b7f21c4e8146d8519b417dc910160405180910390a1600154604080516001600160a01b03808516825290921660208301527fca4f2f25d0898edd99413412fb94012f9e54ec8142f9b093e7720646a95b16a99101610d6a565b6000546001600160a01b031633146130375760405162461bcd60e51b8152602060048201526024808201527f476f7665726e6f72427261766f3a3a5f696e6974696174653a2061646d696e206044820152636f6e6c7960e01b6064820152608401610ca7565b600654156130a05760405162461bcd60e51b815260206004820152603060248201527f476f7665726e6f72427261766f3a3a5f696e6974696174653a2063616e206f6e60448201526f6c7920696e697469617465206f6e636560801b6064820152608401610ca7565b806001600160a01b031663da35c6646040518163ffffffff1660e01b81526004016020604051808303816000875af11580156130e0573d6000803e3d6000fd5b505050506040513d601f19601f82011682018060405250810190613104919061446a565b600781905560065560085460408051630e18b68160e01b815290516001600160a01b0390921691630e18b6819160048082019260009290919082900301818387803b15801561315257600080fd5b505af1158015613166573d6000803e3d6000fd5b5050505050565b6005613178826119d0565b600781111561318957613189613ed3565b1461320a5760405162461bcd60e51b815260206004820152604560248201527f476f7665726e6f72427261766f3a3a657865637574653a2070726f706f73616c60448201527f2063616e206f6e6c7920626520657865637574656420696620697420697320716064820152641d595d595960da1b608482015260a401610ca7565b6000818152600a60205260408120600c8101805461ff001916610100179055905b600382015481101561336f576008546004830180546001600160a01b0390921691630825f38f91908490811061326357613263614353565b906000526020600020015484600301848154811061328357613283614353565b6000918252602090912001546004860180546001600160a01b0390921691869081106132b1576132b1614353565b90600052602060002001548660050186815481106132d1576132d1614353565b906000526020600020018760060187815481106132f0576132f0614353565b9060005260206000200188600201546040518763ffffffff1660e01b815260040161331f959493929190614529565b60006040518083038185885af115801561333d573d6000803e3d6000fd5b50505050506040513d6000823e601f3d908101601f191682016040526133669190810190614701565b5060010161322b565b506040518281527f712ae1383f79ac853f8d882153778e0260ef8f03b504e2866e0593e04d2b291f90602001610d6a565b600060016133ad846119d0565b60078111156133be576133be613ed3565b146134255760405162461bcd60e51b815260206004820152603160248201527f476f7665726e6f72427261766f3a3a63617374566f7465496e7465726e616c3a604482015270081d9bdd1a5b99c81a5cc818db1bdcd959607a1b6064820152608401610ca7565b60028260ff1611156134945760405162461bcd60e51b815260206004820152603260248201527f476f7665726e6f72427261766f3a3a63617374566f7465496e7465726e616c3a60448201527120696e76616c696420766f7465207479706560701b6064820152608401610ca7565b6000838152600a602090815260408083206001600160a01b0388168452600d8101909252909120805460ff161561352a5760405162461bcd60e51b815260206004820152603460248201527f476f7665726e6f72427261766f3a3a63617374566f7465496e7465726e616c3a604482015273081d9bdd195c88185b1c9958591e481d9bdd195960621b6064820152608401610ca7565b600954600783015460405163782d6fe160e01b81526000926001600160a01b03169163782d6fe191613574918b916004016001600160a01b03929092168252602082015260400190565b602060405180830381865afa158015613591573d6000803e3d6000fd5b505050506040513d601f19601f820116820180604052508101906135b59190614483565b90508460ff166000036135e3576135d983600a0154826001600160601b0316613680565b600a840155613637565b8460ff1660010361360f576136058360090154826001600160601b0316613680565b6009840155613637565b8460ff166002036136375761363183600b0154826001600160601b0316613680565b600b8401555b81546001600160601b03821662010000026dffffffffffffffffffffffff00001960ff88166101000261ffff199093169290921760011791909116179091559150509392505050565b60008061368d838561461a565b9050838110156136d35760405162461bcd60e51b81526020600482015260116024820152706164646974696f6e206f766572666c6f7760781b6044820152606401610ca7565b9392505050565b6000828211156137245760405162461bcd60e51b81526020600482015260156024820152747375627472616374696f6e20756e646572666c6f7760581b6044820152606401610ca7565b6136d3828461476e565b6008546040516001600160a01b039091169063f2b065379061375c9088908890889088908890602001614781565b604051602081830303815290604052805190602001206040518263ffffffff1660e01b815260040161379091815260200190565b602060405180830381865afa1580156137ad573d6000803e3d6000fd5b505050506040513d601f19601f820116820180604052508101906137d191906143cc565b156138625760405162461bcd60e51b815260206004820152605560248201527f476f7665726e6f72427261766f3a3a71756575654f72526576657274496e746560448201527f726e616c3a206964656e746963616c2070726f706f73616c20616374696f6e20606482015274616c7265616479207175657565642061742065746160581b608482015260a401610ca7565b600854604051633a66f90160e01b81526001600160a01b0390911690633a66f9019061389a9088908890889088908890600401614781565b6020604051808303816000875af11580156138b9573d6000803e3d6000fd5b505050506040513d601f19601f820116820180604052508101906138dd919061446a565b505050505050565b82805482825590600052602060002090810192821561393a579160200282015b8281111561393a57825182546001600160a01b0319166001600160a01b03909116178255602090920191600190910190613905565b50613946929150613a29565b5090565b82805482825590600052602060002090810192821561393a579160200282015b8281111561393a57825182559160200191906001019061396a565b8280548282559060005260206000209081019282156139cb579160200282015b828111156139cb57825182906139bb9082614807565b50916020019190600101906139a5565b50613946929150613a3e565b828054828255906000526020600020908101928215613a1d579160200282015b82811115613a1d5782518290613a0d9082614807565b50916020019190600101906139f7565b50613946929150613a5b565b5b808211156139465760008155600101613a2a565b80821115613946576000613a528282613a78565b50600101613a3e565b80821115613946576000613a6f8282613a78565b50600101613a5b565b508054613a8490614436565b6000825580601f10613a94575050565b601f016020900490600052602060002090810190613ab29190613a29565b50565b600060208284031215613ac757600080fd5b5035919050565b60005b83811015613ae9578181015183820152602001613ad1565b50506000910152565b60008151808452613b0a816020860160208601613ace565b601f01601f19169290920160200192915050565b6020815260006136d36020830184613af2565b60008151808452602080850194506020840160005b83811015613b6257815187529582019590820190600101613b46565b509495945050505050565b6020815260006136d36020830184613b31565b634e487b7160e01b600052604160045260246000fd5b604051601f8201601f191681016001600160401b0381118282101715613bbe57613bbe613b80565b604052919050565b60006001600160401b03821115613bdf57613bdf613b80565b50601f01601f191660200190565b6000613c00613bfb84613bc6565b613b96565b9050828152838383011115613c1457600080fd5b828260208301376000602084830101529392505050565b600082601f830112613c3c57600080fd5b6136d383833560208501613bed565b600080600080600060a08688031215613c6357600080fd5b85359450602086013593506040860135925060608601356001600160401b0380821115613c8f57600080fd5b613c9b89838a01613c2b565b93506080880135915080821115613cb157600080fd5b50613cbe88828901613c2b565b9150509295509295909350565b80356001600160a01b0381168114613ce257600080fd5b919050565b600060208284031215613cf957600080fd5b6136d382613ccb565b60008060008060008060c08789031215613d1b57600080fd5b863595506020870135945060408701359350606087013592506080870135915060a08701356001600160401b03811115613d5457600080fd5b613d6089828a01613c2b565b9150509295509295509295565b803560ff81168114613ce257600080fd5b600060208284031215613d9057600080fd5b6136d382613d6d565b60008151808452602080850194506020840160005b83811015613b625781516001600160a01b031687529582019590820190600101613dae565b60008282518085526020808601955060208260051b8401016020860160005b84811015613e2057601f19868403018952613e0e838351613af2565b98840198925090830190600101613df2565b5090979650505050505050565b608081526000613e406080830187613d99565b8281036020840152613e528187613b31565b90508281036040840152613e668186613dd3565b90508281036060840152613e7a8185613dd3565b979650505050505050565b600080600080600060a08688031215613e9d57600080fd5b85359450613ead60208701613d6d565b9350613ebb60408701613d6d565b94979396509394606081013594506080013592915050565b634e487b7160e01b600052602160045260246000fd5b6020810160088310613f0b57634e487b7160e01b600052602160045260246000fd5b91905290565b60008060408385031215613f2457600080fd5b613f2d83613ccb565b946020939093013593505050565b60008060408385031215613f4e57600080fd5b82359150613f5e60208401613d6d565b90509250929050565b60008060008060608587031215613f7d57600080fd5b84359350613f8d60208601613d6d565b925060408501356001600160401b0380821115613fa957600080fd5b818701915087601f830112613fbd57600080fd5b813581811115613fcc57600080fd5b886020828501011115613fde57600080fd5b95989497505060200194505050565b6000806000806080858703121561400357600080fd5b5050823594602084013594506040840135936060013592509050565b60006020828403121561403157600080fd5b81356001600160401b0381111561404757600080fd5b61405384828501613c2b565b949350505050565b60006001600160401b0382111561407457614074613b80565b5060051b60200190565b600082601f83011261408f57600080fd5b8135602061409f613bfb8361405b565b8083825260208201915060208460051b8701019350868411156140c157600080fd5b602086015b848110156140e4576140d781613ccb565b83529183019183016140c6565b509695505050505050565b600082601f83011261410057600080fd5b81356020614110613bfb8361405b565b8083825260208201915060208460051b87010193508684111561413257600080fd5b602086015b848110156140e45780358352918301918301614137565b600082601f83011261415f57600080fd5b8135602061416f613bfb8361405b565b82815260059290921b8401810191818101908684111561418e57600080fd5b8286015b848110156140e45780356001600160401b038111156141b15760008081fd5b6141bf8986838b0101613c2b565b845250918301918301614192565b600082601f8301126141de57600080fd5b813560206141ee613bfb8361405b565b82815260059290921b8401810191818101908684111561420d57600080fd5b8286015b848110156140e45780356001600160401b038111156142305760008081fd5b8701603f810189136142425760008081fd5b614253898683013560408401613bed565b845250918301918301614211565b600080600080600060a0868803121561427957600080fd5b85356001600160401b038082111561429057600080fd5b61429c89838a0161407e565b965060208801359150808211156142b257600080fd5b6142be89838a016140ef565b955060408801359150808211156142d457600080fd5b6142e089838a0161414e565b945060608801359150808211156142f657600080fd5b613c9b89838a016141cd565b6000806040838503121561431557600080fd5b82359150613f5e60208401613ccb565b6040815260006143386040830185613af2565b828103602084015261434a8185613af2565b95945050505050565b634e487b7160e01b600052603260045260246000fd5b60608152600061437c6060830186613af2565b82810360208481019190915285518083528682019282019060005b818110156143b357845183529383019391830191600101614397565b505080935050505060ff83166040830152949350505050565b6000602082840312156143de57600080fd5b815180151581146136d357600080fd5b634e487b7160e01b600052601160045260246000fd5b60ff82811682821603908111156113f5576113f56143ee565b60ff81811683821601908111156113f5576113f56143ee565b600181811c9082168061444a57607f821691505b602082108103611b8357634e487b7160e01b600052602260045260246000fd5b60006020828403121561447c57600080fd5b5051919050565b60006020828403121561449557600080fd5b81516001600160601b03811681146136d357600080fd5b600081546144b981614436565b8085526020600183811680156144d657600181146144f05761451e565b60ff1985168884015283151560051b88018301955061451e565b866000528260002060005b858110156145165781548a82018601529083019084016144fb565b890184019650505b505050505092915050565b60018060a01b038616815284602082015260a06040820152600061455060a08301866144ac565b828103606084015261456281866144ac565b9150508260808301529695505050505050565b85815260ff851660208201526001600160601b038416604082015260806060820152816080820152818360a0830137600081830160a090810191909152601f909201601f19160101949350505050565b634e487b7160e01b600052601260045260246000fd5b6000826145ea576145ea6145c5565b500690565b6000826145fe576145fe6145c5565b500490565b80820281158282048414176113f5576113f56143ee565b808201808211156113f5576113f56143ee565b60ff8181168382160290811690818114614649576146496143ee565b5092915050565b600060018201614662576146626143ee565b5060010190565b8981526001600160a01b0389166020820152610120604082018190526000906146948382018b613d99565b905082810360608401526146a8818a613b31565b905082810360808401526146bc8189613dd3565b905082810360a08401526146d08188613dd3565b90508560c08401528460e08401528281036101008401526146f18185613af2565b9c9b505050505050505050505050565b60006020828403121561471357600080fd5b81516001600160401b0381111561472957600080fd5b8201601f8101841361473a57600080fd5b8051614748613bfb82613bc6565b81815285602083850101111561475d57600080fd5b61434a826020830160208601613ace565b818103818111156113f5576113f56143ee565b60018060a01b038616815284602082015260a0604082015260006147a860a0830186613af2565b82810360608401526145628186613af2565b601f821115614802576000816000526020600020601f850160051c810160208610156147e35750805b601f850160051c820191505b818110156138dd578281556001016147ef565b505050565b81516001600160401b0381111561482057614820613b80565b6148348161482e8454614436565b846147ba565b602080601f83116001811461486957600084156148515750858301515b600019600386901b1c1916600185901b1785556138dd565b600085815260208120601f198616915b8281101561489857888601518255948401946001909101908401614879565b50858210156148b65787850151600019600388901b60f8161c191681555b5050505050600190811b0190555056fe32323861393433663965623533353739636332623361313437303836643235613565316132656433383633616331653262373234656261663131343464613939306163633832396532306164363938303262376332313934373036326465343937373234353332653533633264366634633063666238363739323962666630613062373433363534663339363534313861353565333662656563343431346235663538653966306633316230623931316262316664636366663062623930653430323238643163313562303361633436353961653864633062626238373631366537343232633932316361343361336132616264366435376534316239643333323566643937616362626138363363626465306435613230313032383132616234623439376131616130613865646630616630663865653630643463613831333135666536316136303932633964633161373064623832323032363230366362373735373131306439343261653538363139316466316434363235373537323930646231323064323333643232653766633661393532363132353164383434323837623366653834386433363638386163623232613064346639316238643732303438333736376535366364626563393134333739373737353538323362323836393666393036353637306466366231623766653936663762383364346265343134626536626131633064613135346231366637306435353933666563636434326238363733326462653463393833316335353466363438626133646662316132303566663362626135346436613034333761316535333135616535313063653865373839303731323566643665323164346366373463383961326238333335323434303765303835323131376637626137333662316430353662303434326234633935643833656661646535613561653830663332616139643931376261663231616636366264376562313630633636633161313161386436333062366531633862316261336436643135663964393235376433623365323033363263636430633632323063333032323839373633626434626532653039373361663566636561363037623265643439366434623831666539653533366435653266346565316664313237326139346164656239393066623332326530346632323230333930366462653933663631383864643637633865653839633436373232653736303030636131373038663836373462383437356137313930623938306535343232376562316235393237383162383137613462323534626232613561626232633930336533623631383839326638346461336238303337383835373132663666623934373230343135666532376437613965613832303565636232663164373837313564313261623036393232643234376666343433663935353335613330306566383834303834636133323965313038376636353332303138666366636266633032356330633433623962376134306239303462616262656661616336663966616464313466663866653764646133646461643436326463333465306630323532353334336330666665343039386234623732383033663464623732636266613232623062386333303939393630383566663631306661643834616535623564303164643963333064363739363766376164333136303664343164363637343531333262643963643831336364653031666264333035306366313539373339323231656333346233343863646563383930626463303236386666396234323631326133306136666662653439353661386163376338383964326336396439633830643466326636386561316561363961366331633235333365636532636533623763383364323965356335386466373763306264353532386534376532303434306230303165353532393263373838346433326363366336656231363331313065306331323333393734613036306435653239623033633861626538653330663162633862666563383566383838633163616132623037346536326437333134333339613132656132396630663663313862363033373235396232333837383231363865373034373833643761373231356638316365666537666231616535316131316664306238313662646336313161323434663964376239333363323335323034393638366335313033346662346661353664623261353662366338346632353266343739303363313866643338333037323161366635333839393965633130623133646337353935313937663164666363353137303636643436646239303830303232613935666131386433663038653231313732333438633265613230393664653363306135343330393865343562316233343634343362393765396132663162636436303764383938393631333365373937613537383332326363306230656433383230636666376538363034663536383864376163373665393661326330383835386263386431616139623066313736626131333566326661363236306638393636633230316235613633613636333265653562383637316438303932313338353863653835313632333831636362666539346365616133303932316366636238656339373238346164326164333862633034363463393864313730643534366265323461616432373135636632333232326530346565333235323566336365616565623161643139313638356361623766303335366634633036613433393135316563306332353230333262346461653661346131353534313134303862383538316561386232336335306262376337323538396331633135383265376166336432656366653464383337386632653265646264326137373831363964386634376237343439303963653739646230306463626534373962346133613563386133646331626431353063386633636633393966303132386361303133306162303336623765323966633530303833333232653537376436366236313063313535376664616362363065313938333136613635326333306633373030313332356431623361366136316635333630616562346537386230366563346437613430613565356562336565363531333138366661373066363632386131616236346232303238653065646135633066396662343332306430323537323033646639343531393362666462636166346265653833653761366533346130316530643134383432646664306235613739313933616162383465613261323034343562383664626336333764373434353335366335343634396262666233343231363364646538333331393239306633313338376131336539303432656365383464373739363566386166643262646231656561323465313930396331633830616162323163656333386138326365303366353666353163643537623661356138363561343566633033623836376636626234383336626463613063363331313164346166356330343764353863303838356635653434366637626431336264363639656233623934303338306336623838363633616531346432386236353164663564313531353835663061343864306433333263616539353638613032646138373533386466646466336233313532323165393862653335303866613332613830356366616365336262613962353537343165396635396438346565323161383963373931356636343866623565363435366565646438326632393363323831313730623033643531363437386131373666386534623133383338326230356366356537613564396663396230366631653563356462376135346566303262363833613134343236643832326435393936333834643135353233636439343634623531303439303137633532396364623633393635383666333135383432656266303337383437383939666532313162353737623537393663343138373836633734333865633238666330613332633465313636643536343064633138303162313765363936623734316436643131383437313637356330346564643839663066346464303762346534623862343730336664653133353865613261623234626161373463333833353436633365393537623937633464316533333763633535333662663032623237636533373130383637663535653835373838356331366334306536373930353632386338353566333931616465396332656362356231346463303736313035653439616536396464373163363138616465396633326266356338663466663939303766653136613165343662643230396437613134656538343164656466663165653333333964363463333430656161626538303265653831613064663463333838336165346533393664623362663264393138363336613030663163626363666131663465643731313766323734303636643731333939626135326564396136336530356363343330353130633534303265656364336433623532623832313764396339346264343432613861346130363965316231343739633235643964613163633339303032633036346336626233366136306331646230323730663733373734663564656465313564663563643234653134353466303866343234613437383962363864363937323031306364393466636132316361326437306664383931646231303736653935643432663236396131313030633162353137643136646234313966373264393536633232336465653735366166383039326331623139363833623933326639653430366630313131303563653364316231656233326464323462393237643034393865336665633364336531653539303734356665346131393933336630383035653463303861373330313437323965623530633036616637386331336162356636353565623634303638643464323664643161626131393631303535653664323835643837656132643663353361326334383030616337393632383034383966333563353132366131313166663264323337633566616461666532643936626365353239383262326636303537306237646339633634343562663238333365353938643162383566313533353532623630303561353466623434373333353538663361396166643031636164623634313963636538303563323562373865343266393430353563386634343232353534613165633138663164663937373530316135323061616532613434616630633263663230306433616332356664306634613231376131633932306136366333373562626461323936653566653333636239643865306538323235613334343135656535373937376464613033623833653332643936376636633963633265393237396638323332376165343539393536393566623732313161366662393736393064386632316330663161373966383763333962326532343732663166306564393833326133623837363863666565313865363864356130323235383235656337343431376534326235636163373564613937663138336634656232373763626662613063646565396566306138313736376535336662303936636334616431616637343630306266633032326337396162353837323535653662613530306231343334666630663963356336373534346466386561383137346666613961383632373036656163366333316434303337393037353465303661653936396638333365333633313930626262306566626536303364623531333764663063323466333434326236366438636466323735643339663463656638353265333365386562303162373732383864653235383163633566643439a264697066735822122001fbbe4cf30a2920e708417e6196507f9a70f06b8fce23d7118a54dc73e63ce864736f6c63430008170033608060405234801561001057600080fd5b506154cf806100206000396000f3fe608060405234801561001057600080fd5b506004361061007c5760003560e01c8063746581c51161005b578063746581c514610102578063a4a780be14610125578063af08f4ff1461014b578063d12b10561461017157600080fd5b806253e22a1461008157806349663c13146100b65780635b24341c146100dc575b600080fd5b7f2705b12498736ce87f90684a574f8477e22f8789b59f122ad083ce683a6416265b6040519081526020015b60405180910390f35b7f832e9eca80a7ea4c356d7ef7c0240549edfb68fc6b6571155af4662e8d46c56d6100a3565b7f170e6b958f86a1f983b838f3100307d11d78dc4a723c6eb6d4520330c2dce1f16100a3565b6101156101103660046152fd565b610197565b60405190151581526020016100ad565b7fcc378139ea8f1ba6f2fe3cc70ab94e7f659254f8a6d867b4760ef5083a9cc0326100a3565b7f3727766a7da232a8ba1de983f8a8301eb227440fcd891ce616b709e9a2b60a076100a3565b7f8e168437630d665211b3961d38d440c2c27425f1aa5df58ceef70f2c871bb6f46100a3565b60008160ff16600103610904576201000061038052600f6103a0527eeeb2cb5981ed45649abebde081dcff16c8601de4347e7dd1628ba2daac43b76103c0527f30641e0e92bebef818268d663bcad6dbcfd6c0149170f6d7d350b1b1fa6c10016103e0527f2397a3f2a554c710f0356bdf4634fa121b4d49d5c238a000d5f5843f849eca03610400527f19067dc160b52c729249939b28e165cf4c192f9b84539e0f4bfce28d868ec242610420527f0a2ea0375e1e387af358e692997cda97610260ace9c5cbde30f8c77670839b7f610440527f1c3f37d58fea86e9121fe289828b2a20e4cd9e27e7db07ce77caf0e90d012a0c610460527f26ba70acb9d0e807dc0092c9996bd8fe215a17e870d56ea737283350c4e2851a610480527f02f5a0470b7ccefd9d11d0afcf323bc397133e7f89267f8b2edd98dc0f873ea36104a0527f0e69dcb6f2298a72c0a6ac79ba4722d5626a0492ae3c016fad8de3cce04094e66104c0527f12c431268489ee0bc8f51b5478ce9d127faa44a7839f63f2a65eb60e701347706104e0527f0c80f6742cae538886f867c719a1f612d15242d0bf60a59c1a10a7ba399983fe610500527f2d137a8c0620f0b311e4da8beaca00e7162153eb76700a7564d409e3469d734f610520527f29d49a46d269d04090f8a734c21d105712dfe235b2face32781f3457d3d9fd00610540527f03b99a50a8ef99ea9ab086eeda3ea7e7f476968f4e50e4bca7482984eecabacb610560527f1ae43b87da0998552f0b0b91e62ef710ed2b7cb7695beca5abb44ea944a8dd2e610580527f0f1febb91e7a70794bc0021686017290b15e0190509c4ff1bd93821854125c606105a0527f267c51393730a531077816e9cbc47afa4982ea9ea26f94189561b739cc8a69e76105c0527f0ac3598a83a1b747f29b3eccd46ed7208c8abd8a58e32757a7e09434d24a692b6105e0527f21245d6c0a4d2ff12b21a825f39f30e8f8cf9b259448d111183e975828539576610600527f16a409532c8a1693536e93b6ce9920bfc2e6796e8dfe404675a0cdf6ee77ee7a610620527f2f213c7a4c064a63d6a07366df0ea85aef9ad2125a188c3e656f95471e416a0a610640527f067a270bed55e72ffb3cfa39af3e5b8bcb4961d72bb301978af13c4ddc73e5df610660527f08176086883e08445db816556441a30362ac453acd846e4c86f88d1ec89d739c610680527f110f4f4d0544fb38f9df85fa20267a7a489de496300f68a0cac4df400237a9e46106a0527f1e1b42ce668f9c994b5a23a3b109493ba7a9e7ec12499a330715a641dc4a63a46106c0527f1f105506a3a8bdaa5e3b9116ec59f4cadfe9333563282342f3a96eae60bf42d56106e0527f2f4ea9c0ba1db836082ecfef1d482bcd83a7b44f931322c4ed3362e88d9bb0d5610700527f199f804bd16cb86b026782e61f5851c1a5a7495b7a25c7b67e0dab0a71348f75610720527f2dd1606de4fd6603f7e1558c0e7942875ad4525b360168e3456e8dc18a62fda5610740527f0af3500836230a780c3d0ad4b8a245de36e10175c9f1c8ae4f237fe5c1d2d5b7610760527f187e7e35d0116a6672b2670f83bf4f3257d2c5f95ca990943deb07f98e573f87610780527f01d2b37054e35124153a8d470749d60e55759ae7aa52dd33c253d7f49f31b7686107a0527f2043ac05206a2f580ed0a148adfaa26ef5516184126c9e67a8741e133af924cc6107c0527f2bf9b2f5f18eac63843fec205836e0e4cf77146523cb2b703ec9fd6f505b2a326107e0527f01239374280500d61d963adeadc1cfef87ce7f19adb4f4f90c79f63d96468023610800527f0290f83ff91799507e620788f5072a71dd03df9c5605f9594bec63d1763724ca610820527f089ec02dcc6b3216cf9b4418e0827ad4b07d55d3ffa2b21da0743809bae4c2c8610840527f1c522d467e79e574c6bce1ef45cbb9598cc3a99de2de1ce994d0b657450b05b2610860527f2546faf6466689ca90de400304774d39e62e214c390b3a8673079fdbddecbd33610880527f1d6d3e828b1f70d792d184284184663d315a9e15827e8b76bcb8118293212f186108a0527f26e369ea08f322b927ed812cb10d1e95884f2e30fe2dabecacaf74c0dc266e876108c0527f1a022ff3f93ef3bf5d0a9bab976254fdeb5f7c2da35cba28aa58e2369518abcf6108e0527f1fab75c2075c475428a668c455e3cfbc6f40091ae186f52f0938529246e21e21610900527f0e4f15b97ee09a99a6fcf2785c1119cce8e6176198e6167c74eebb12d33c6bbc610920527f04cb549e1700ee6e76f393d318014a0efb332def1b4a676ce82af54e38ee60ca610940527f23358abb93fd0ef6ed78bdc85bcf9fa48501b00b8aba92d4c7e3e663458d053f6109605260008051602061541a8339815191526109805260008051602061545a8339815191526109a05260006109c08190526109e0526000805160206153fa833981519152610a005260008051602061543a833981519152610a20526000805160206153da833981519152610a405260008051602061547a833981519152610a60527f0b5d56b77fe704e8e92338c0082f37e091126414c830e4c6922d5ac802d842d461340052611f64565b611f64565b8160ff1660020361106b57620800006103805260906103a0527f2260e724844bca5251829353968e4915305258418357473a5c1d597f613f6cbd6103c0527f3064486657634403844b0eac78ca882cfd284341fcb0615a15cfcd17b14d82016103e0527f04e084db2d154eaeb804b550fafca277fc0a2b0b651a9d192699b59eda52fd96610400527f1a0088a1a752565db4b51953c6f84e6dd7dae15d031ca7c89cbacff4123b7666610420527f0eacd4a6aa3407a96127255b90f5ae7c98ee07d91468b01bb3f5c9650754f1ba610440527f0eab60c1b0c1a91752cd4a13669b0895b59928110f75942a1d1b0c6c00222502610460527f0747192ece738380648efb339bcf907a5dd0123db88edc878f7f86c9801eba31610480527f07dd81853d06291a3f2ea9c8f3c8557a0a32c4bf06933ad44f68906b1bb727786104a0527f0982fbf779d405b37c5c3ff61d938388fd26b1d4a9b30399deba97acc0fe80656104c0527f17acf6728bc954c3ea853da13fa99993c608b392f65c6428fa5ca949eb3469e26104e0527f18dda080b47ec77905bcf59916e817f012bdecc27d825727d47908c5552d7b81610500527f2dd642b4fe71522757ef37bc9dbe44e1dad6c65c36d4f296456acd313deca080610520527f210983021d949e6d152ba59ee28b8d2300b5f2cb975511650d2b0b80c211c986610540527f130fba6f09f74bd65abeab756923ed4fbf8b3ab93ab509e0c833032bb33c5185610560527f1e4d850e019d39367dd508524cd954da09a6cc309d861419d69232be0011bfc2610580527f082d3ec130f93e4a541526239d8c9e1cfcad4d6b7f4a4dd7f2dc3e52fb923c676105a0527f1b8766f07bb622a4c9267404ad44647aedb08462dc7a4e21315ed235ff81d92c6105c0527f1e9dfd842a09db8ae0e5fa0ab6a171269ab4c67f59426eb529ff683b8514a4c46105e0527f0346eb76deee9a3ae7b350f402a778b1d6d269fccd2036db0ec5fe39439b1e9a610600527f12b9c69aa4d51eb3920484e5f218388542023c239f7cb66db4175af241497622610620527f1a78811645b84bbd89672882483e957625cf3aec430bbb2096c060a3b45fe470610640527f1e083a3d76abacbf139701a1d2fc905090056fde016569cfb325b37e997c6845610660527f1843d869f6174e9dcd9546eba22aaea8296e79e23c3bd6b6e207422e15588ae3610680527f279f2f98d5133f46a3576e28c350a3f54516d76c01be8f54d564ed3ed172bdfc6106a0527f15a07d87b0ca2731707730dcb214f30a0d51f025707953e47d2389d53e4fe0906106c0527f2a2d65cc4538283d3bd6f298a8481563e8d53b5f158d5564a08071f08997dcbc6106e0527f0bf0ec1c8155508e5d60c1134e0d3d3c5b8e09df5770f3fb07df596f8e8e6a5e610700527f2ca4df988320e66a423a8f8b91151e88c4f9040cd496ad65eb1aeb2e6e59a783610720527f2486cf730cc0d13aba3073816078331e0901bf906c1df5087b76ec55eff50991610740527f1dbf9c008ee5989004a0f82458b245442a16f77036e27baa740b8d5489b15414610760527f2711b7375e2546141ab13ad0f74188540f350fc88fbde536885c9b38ce6f5d35610780527f0ac6469d0af0041582be60f35f6ff3a98bfaaf760544256ac851482d2e58acca6107a0527f2874300094cb0d4fdef7e486326d1138892d802c87c663aa1bde8dc3cf5bb1696107c0527f093666b9fcfac4a86f7f0b73d3722aa5bb18a731dcc33124b4b310d0c10af95e6107e0527f166a6b8cc0a396db510b10dadfb768df7823882fa46cdc86e907db0b83c87206610800527f208190016ccbce24c09556329ca349c180a442158cbe58abd483fd0b1e013f91610820527f054a8c6e1442f31e9520dd0645d1c7331e6b322e9e15304e5d97299b568174af610840527f0884f57f4a72c77ae7d75c4e59a04d8bc98644a5fdaf367c0c4f89026c56ad22610860527f16490fa24a57060ddf7b1fac4e9725d6b2c2d48afb7a20e986188b248f31b2ed610880527f2183b87b84a44df79a3f6880b6fc9d10d872eb158645065c2937b74bd69f16e96108a0527f20697de6c5b8f3c59660b49a8432b7048344a1ea33c451cdcc6083a1294c51776108c0527f129e4cea8bc589303899857d2de5f5aeb136f89c282d7157261f2ddeb52031436108e0527f116ebaee63f2add333ebf3a5abbd3b28c59d8bcf59e4cae71982e3c6b3c9a7ea610900527f0fbeea6e1c2dd93da0dd1b7f4e83ea3314ada447c0262924b2f6ba75d5014e1f610920527f15d4b07982642468d21109a15b0cd671f6e6569b1dfdab61eac650fa1eaa24de610940527f0c09b5e003a13df988f4122288735f940c15d9ef7ea28b2109b5bd00c1892e6e6109605260008051602061541a8339815191526109805260008051602061545a8339815191526109a05260006109c08190526109e0526000805160206153fa833981519152610a005260008051602061543a833981519152610a20526000805160206153da833981519152610a405260008051602061547a833981519152610a60527f06e402c0a314fb67a15cf806664ae1b722dbc0efe66e6c81d98f9924ca53532161340052611f64565b8160ff166003036117cf576180006103805260086103a0527f2d1ba66f5941dc91017171fa69ec2bd0022a2a2d4115a009a93458fd4e26ecfb6103c0527f3063edaa444bddc677fcd515f614555a777997e0a9287d1e62bf6dd004d820016103e0527f2704e5525eab66e966af315db1c5741f11220d1bafe21dfad2d5465a485204f8610400527f0d8893fa371d2f4ac4ddbae4fad5973495bac5775f3d3e1af9cddff3119c9379610420527f15aa93addc63c035b4ae211edb7014613426f72906c1c55c16aa1ea3bf39454d610440527f2364bbece71d5716ada75cca5b3f1f61eec9781083616c38cf1ebed8d760dfac610460527f0a1c12d87a276820c9ed60ce990bdc6aad1834ef816ebdc4fa32d2d99acac818610480527f15faad45cb04cc61e1030c6d7dba84702ec5456091ce8c436661a11b4b30c6c86104a0527f2a1a4064bc6ef924bed1e22784c9d45441b37b332af09988d2f7be7c008be3556104c0527f29b121efdfb14341241f24629e5f0940311477193ffd0718d7fbf983920862f06104e0527f086ca2543b847fb0b843cde300d3363eddaa58088ff2b700f2aefb0d30b66d58610500527f1be8d540fe41e6038cb8d005882724c2f3956120ca7f081d86986b865899689a610520527f0293b5165edc85e8a6795ad9a16cdefd38159246b96c89fffa523c78771b6949610540527f0c90171032920171de961844438c2934d92dda8029bcaeb79593276309b3f37a610560527f11e72db17db429605c66d5d08ef015947c7bdaa2875da860e74e542985126822610580527f0bb5f95c29191a75d0ef2c75f0ffe41ae041c928cad8926fb6acebfb24a5a4916105a0527f17de1ad04387d41136801f4a1b8ed7ac6147858366cce063f6820f5229cc10ca6105c0527f2af0a108ed7faa4f4e968b871de1d39983518b22bcd43ff0c98bf36892763dd96105e0527f21959276775cd4749236c8bf773a9b2403cecb45fbf70e6439f73d75442e8850610600527f017714509f01d1a9ee7ebaf4d50745e33a14150b4fe9850a27e44de56d88cb14610620527f2e76c4474fcb457db84fb273ccc10a4647a1a37444369f2f275bb74540f5e2d0610640527f209035caddd02a78acd0ed617a85d782533bd142c6cad8e3338f3142b919c3a4610660527f23bf3b0a7e7bb58f3193b83614e491c1077ba2579ab55348bd064a49227093d3610680527e854c1fad33dcecd21ebf97eafbf019b1675b3bd27fb9653657460485e308da6106a0527f14fefb3b1e4318595777cf1a6c5562cbf7b5a95b170a01a8f5333889a67f758b6106c0527f10fc96780185f4abb409df4e2dc4d377efed620167c252d24b27983e0a063dd26106e0527e1082c3f7d7deb21e8bc2b3db2c79102b2f0b2378debb5f1de5c71e064a1793610700527f26aae10f99b1766e80e7500b2b57bd9f9809f547cd1206299027d64bc44284e2610720527f10482377b8f629df482ed7a180bf0b801e43103c4d4180e05172168ada71e9e0610740527f1357ed8156ca0e00b3fba5b9d7a2d7454640076cc85c71a0fe95501fc82b584a610760527f0c14de0a66a29fef89dd6b25fd3dad2c934048825338d32c9be06295d6895cd3610780527f27e139fd5f94a95aed910fc16c4497e04e258a714b90ff5b7cb6a25af764b5526107a0527f2d283760e83465149e358f2910d2515f4df4e281eb18f1ef89f9ad7e72bbf9bf6107c0527f1e7bc1bdd03c522b54abfc3879fea26bcda8b544a524e1ca08ef3d5c5f615c066107e0527f26ac63c1f22adb0e7f8bbcb49f009546c50d24b1247a743a505416bd4bf12e27610800527f1542e08ee844541bb7f00b5d7e456b1454a0f66a8793e87ee99a04b4686631b1610820527f2c5519e9f4218e2873b91dacf2c455670a5bbbd72ce413230f8b88aea0b1cda8610840527f207960ab6d379cbcdd1ec8b7d562f474d2df14bcf4faa4346a82d4dcbba683dd610860527f254c7c79f29e6f05184889d52a7c01375832d53ea8dd60b93162a5805d715657610880527f23558713233600d8847c983db3c2771210aad83fc39e33f4821c4b483fe579c16108a0527f0f65cf80dd13d33496e4b617116d7f443989e84fb42125f50a27f6d54f1b890e6108c0527f2be334867042e60e8b92d1b9a82c0b8a9f6b86a8eca3cfe0987bcf21e19a62606108e0527f1b747cf0d3358db50939890755f86b7ce6d5e7728e21ab6196793cd837ec9870610900527f2f26d701b722179fdaf52e48b4a90b8e04ddb79a0317755c792b7a90659f2ba2610920527f09d79475eee7189147d213612c56c7123e1ba6fd04d70c09324a0714d2a7f6b6610940527f293acaa242dbe287012bce62aecde7b9f789be145ba21c565ed5b5a681878a206109605260008051602061541a8339815191526109805260008051602061545a8339815191526109a05260006109c08190526109e0526000805160206153fa833981519152610a005260008051602061543a833981519152610a20526000805160206153da833981519152610a405260008051602061547a833981519152610a60527f05d33766e4590b3722701b6f2fa43d0dc3f028424d384e68c92a742fb2dbc0b461340052611f64565b8160ff166004036117e8576108ff610380613400614361565b8160ff16600503611801576108ff610380613400614b24565b8160ff16600603611f645761080061038081905260006103a08190527f027a358499c5042bb4027fd7a5355d71b8c12c177494f0cad00a58f9769a2ee26103c0527f305e41e912d579f5b3193badcab128321c8ee1cb70aa396331b979553d8200016103e0527f2cbfcdc0fca318cbd517db1d4fdd02f7a21d4672e9e7d57cf7332eec6ef38640610400527f08bf1fcfd0eff18088c361e576f17fd52f781654f78a1a578676e15f452c3a7c610420527f2bbacfe2f86a402f70d280972ae58de2888b863282a7fa3ec959459332eb1db3610440527f2cba7195f48435f997a882cb09e6e0cc3a1c77ffe241b2e4a1f36bd382cf061c610460527f287030cc7d5c66d175abd4bad0ebc71f48d149ebacbea83a987c3036f4ff0b68610480527f0b97c2b1e605513cff3836fe031aac31556a0692634033a1c6b3eb42b1506c816104a0527f094ecec2cc345cfbb94d9742c01871265fe55ae2a4c50ca3f45fc97464e3d5266104c0527f21e26cf685653dfdaa2cc47d5f5a7cd1ca8d18512e4576218b314972835344e96104e0527f033872d360fdc733d4d26123cf237ddd4d3fce28f5092b738b824575f0ab8552610500527f05c17a84eb9d6d62fdd0a48f5502c3faea8ece47e1be734ea5e4b3c07c5aa148610520527f10ca48438510cc265a53ede8fa0b5fb2b8b8a3f840fdb6514d01f919fc25eb13610540527f29d7cbe5adbfe3ee92594c2e02a90ddcea4e837136c7a4228a1583ef3e82f46f610560527f265fba780ab99ac37c23ad6da54744fce91a219e10e9cad8c0624ff14f57e2c8610580527f07888ac126bb563584b4ddd6fc55f39056aa6549bf010248c781766c813884596105a0527f212cbe7bff2a75e5891302b32859684b8b18b7ff444d6bc8983a3bb9f3056a8c6105c0527f11a3b3686168e3cefbb1c9c86ce1da04e18050063b128f0a34b0e4ca79f0371d6105e0527f267302f63d129c05fe1ddc1449ce3483d5ff1b943384a3173a40e7395310f526610600527f09e8592d07b97663aaf2956e5ee136274e9ce0118f09deb4daab83fad76e78f3610620527f01aeeaa2478912af12266b5910ceb966d73be7a982cf4a35e94e64921eedf7e5610640527f2f612b9bb2a6c45fa28795f7849e8dbd7e24dca8350195f14c4e609201be4889610660527f1eff381b4e5d8806441762854fa1945a5dcc6b37d113ae4bb778e352cbd238df610680527f1c8c6f909bcb4670c3004a1655f27d5d93e11e1cd1a9a8bfd9a24c6e57c6aaf86106a0527f0ccfa51acf16ce7281661024d5e6e2c655680429cd3b05c5607fa01397087ec66106c0527f2efcaa2f0f56c9c7a31195436e39e052e45f282c67b740463f7532aa046a31186106e0527f2a7761ffa6d2eca9c04aaecc934b11e686b4fd72a32f60f48bc6f9c68542457b610700527f0e4c9a91a9755416cecbd5795eb5058c0719e389408bbf7dd75730977cfbfde9610720527f0c38051f2ace53e8a8f13d5dc3be92e6aa349520c95dcb8d6aba5088a62ac556610740527f0b72f319a3e2b1a6d2991e815f2691038ac0f8d8b1e701f87d42cad8a688b89f610760527f2fe1f6f64807de2f149bb5cc089d144ac28834fef221acbebd02c257a07ac2b3610780527f1cb0bf797f59e7289aa96c3e82b29cafe2c7787b19d913dcb65f1713cf6cbb246107a0527f2c4bdf3bce5f0b79f75af077bf476231433c221814c04ff8cbc7b20773c12e326107c0527f30584447e0e01072e13afcded59a4017ca595f08af84ea5d513c0697912ea4236107e0527f0f17bb4aee244c33e33b58fdcc19b0e3aab885e02711b4429464fd5ac88a4c0c9091527f1e74927e1c8b08244da4b135d9896f4087081c0d7b8578b0298857e0b8ed3752610820527f27dc8a579d7f7dd4f0e9c6b795ce733fbaa3a4f24401935fd4fd9c9c37c4950a610840527f2d9b73e412e7f5be39bc1bfd988994edd79c4ad33db96df3587e15a3d4dac7a8610860527f0721a91cb8da4b917e054f72147e1760cfe0ef3d45090ac0f4961d84ec199696610880527f1a25e787b26bd8b50b1a99450f77a424a83513c2b33af268cd253b0587ff50c76108a0527f059e84f929c1f3b5512660adbc2e0cb6489542dff0dd09b24a6b33d231d4179e6108c0527f28b1f1ec90b76db31c493aa298fa017c0646a45bbe94e84b9e749d51af4ba70b6108e0527f06728a181b24f0ffe8ae806090880fc0b5ce3c51db3679c42d4f238fe3763c47610900527f1e7fe286cad3dda51065f6c43f31f2beb270cee22172984e8ef0f0d92326324d610920527f15ba2031bb01ae1603391dc3be36663a1c275aceb05fc5dfb581b2a99af863dc610940527f0135fc587c978aa25eb6fc6ab2d391097ebeaee107a80c277982a4ecb1f30b706109605260008051602061541a8339815191526109805260008051602061545a8339815191526109a0526109c08190526109e0526000805160206153fa833981519152610a005260008051602061543a833981519152610a20526000805160206153da833981519152610a405260008051602061547a833981519152610a60527f0fa9bb21bc73d07b3bb6dcd7fddabf54fd7efed80adc442020a3a65d579d71ae613400525b6103a051838114611f9657604051637667dc9b60e01b8152600481018290526024810185905260440160405180910390fd5b7f30644e72e131a029b85045b68181585d97816a916871ca8d3c208c16d87cfd477f30644e72e131a029b85045b68181585d2833e84879b9709143e1f593f00000016024600435018281350661122052826020820135066112005282604082013506611260528260608201350661124052826080820135066112a0528260a082013506611280528260c0820135066112e0528260e0820135066112c05282610100820135066113205282610120820135066113005282610140820135066113605282610160820135066113405282610180820135066113a052826101a08201350661138052826101c0820135066113e052826101e0820135066113c05282610200820135066114205282610220820135066114005282610240820135066114605282610260820135066114405282610280820135066114a052826102a08201350661148052816102c08201350661160052816102e0820135066116205281610300820135066116405281610320820135066116605281610340820135066116805281610360820135066116a05281610380820135066116c052816103a0820135066116e052816103c08201350661170052816103e0820135066117205281610400820135066117405281610420820135066117605281610440820135066117805281610460820135066117a05281610480820135066117c052816104a0820135066117e052816104c08201350661180052816104e0820135066119605281610500820135066119805281610520820135066119a05281610540820135066119c052816105608201350661184052816105808201350661186052816105a08201350661188052816105c0820135066118a052816105e0820135066118c05281610600820135066118e05281610620820135066119005281610640820135066119205281610660820135066119405281610680820135066119e052816106a08201350661200052816106c08201350661202052816106e0820135066120405281610700820135066120605281610720820135066120805281610740820135066120a05281610760820135066120c05281610780820135066120e052816107a08201350661210052816107c08201350661212052826107e08201350661232052826108008201350661230052826108208201350661236052826108408201350661234052506109c051156123f8576024803501806109e05160051b0190508035602082013560441b81019050604082013560881b81019050606082013560cc1b81019050608082013560a083013560441b8101905060c083013560881b8101905060e083013560cc1b8101905061010083013561012084013560441b8101905061014084013560881b8101905061016084013560cc1b810190506101808401356101a085013560441b810190506101c085013560881b810190506101e085013560cc1b8101905083613500528261352052816135405280613560528681108784101687831088861016166123f2576375d4fa5360e11b60005260046000fd5b50505050505b6103805160e01b6000526103a05160e01b60045260086000208061358052602480350160206103a05102808260206135800137600435602401915060c0826135a083013760e0016135802083810661266081905290925090508281800961268052828161268051096126a05250806000526112e0516020526112c051604052611320516060526113005160805260a0600020905081810661260052806000526001602053506021600090812082810661262052815261136051602052611340516040526113a0516060526113805160805260a09020818106612640819052828180096134205282816134205109613440528281613440510961346052806134805250806000526113e0516020526113c05160405261142051606052611400516080526114605160a0526114405160c0526114a05160e052611480516101005261012060002090508181066126c052806126e0525061260051612620516103c051600180856001602480350160206103a0510281018360058a0984600c8b0999505b818310156125b857823585811085169450858a82089050858183018909975085818c01880996505084888209905084888b099950602083019250612579565b505050806125d15763374a972f60e01b60005260046000fd5b50508161300052806130205250505050508081600161260051086126205109806103805160015b8181101561260d5784838409925080016125f8565b5050613100528181800990508181820961312052506126c05161038051819060015b8181101561264457848384099250800161262f565b50508061304052826001840382089050613400518084036103e051858286088684840992508687848808820990508684840992508687848808820990508687888686098808820990506103c051925086828609915086600188038708878485099450876001890389898b888d8b8c0909090896506130205194508493508782860994508488878709955085898388099650868a61312051890997508760206000526020805260206040528b8b8a0960605260028c036080528b60a0526020600060c0600060055afa61272157633e2529ef60e21b60005260046000fd5b60005198508b818a0990508b8b8a0998508b828a0991508b613120518a0998508b838a0992508b858a0998508b848a0993508b8a8a0998508b888a0997508b868a0998508b613020518d8b8c090998508b896130005109613060528b888b09613080528b848709613780528b8388096130a0528b826131005109613140528b8188096130c052505050505050505050505061264051506126005161262051828361190051840982611620510101846118e051850983611600510101098384611940518509836116605101018561192051860984611640510101098485868385096116a051096134805109858661198051870985611620510101876119605188098661160051010109925085866119c051870985611660510101876119a0518809866116405101010991508586878885870961208051096134805109870382089050856126405161348051096134805285868788613060518a0361208051086130c0510961348051098208905085612640516134805109613480528586878860018a036116a051086130a05109613480510982086136005250505050508061264051613480510961348052806117205161266051098182836120205161178051096116405108820890508161266051820990508182836120005161176051096116205108820890508161266051820990508182836119e0516117005109611600510882089050816118405183846126605161186051098586612680516118805109876126a0516118a05109080808826120c0518485612660516120e051098687612680516121005109886126a051612120510908080883846001612600510861262051098461262051866118c051870908935084818687612600518609860808925084838509935084856001612600510885099350846130a05161264051099250848385089350846116c0518509935084838603850893508481868761260051612060510961168051080892505050826130c05161342051098381850383089150836120a05183099150838461314051830983089150508261348051848386038508096136205250508061344051613480510961348052806116e0516116005109816117005161162051098261172051611640510983611740516116605109847f183227397098d014dc2822db40c0ac2e9419f4243cdcb848a1f0fac9f80000008687600389036117a0510888611760518a6116205161160051090909098586878889858a08880886088408611780510894505050505081828384856116605161160051086119e051870308611760510884600286036117a05108096126405109828384858685612040510887600189036117a051080985086117a05109613480510961364052505080613420516134805109613480526002810360038203826116005184036116205108836116205185036116405108846116405186036116605108856116605187036119e05108866134805188898888088a8b8b8a088c8a8e038e8c8d09080909099350868788612640516134805109898a8988088b8c8c8a088d8a8f038f8c8d090809090985089350868788613420516134805109898a8987088b8c8c89088d898f038f8b8c090809090985089350868788613440516134805109898a8986088b8c8c88088d888f038f8a8b090809090985089350505050836117c051820961366052505061346051613480518392500961348052806116205182036119e051088161204051612040510982611640516116405109836116e05185612040516116405109098485868384088785870888030886878788098889611620516119e0510861200051080908925050508261348051848561176051870360010884090990508261202051611640510883611640518503856116e05161204051090884858287611620518903612000510809868685090893505050828361264051613480510984856117605187036001088509099150826117e0518484840809613680525050806116205161162051098161164051611640510982611620518460118408098360048309915083600982099050836003840992508381850385848788611620516116205108612000510809089150508283846120205161164051088561164051611640510809840384856120005187036116205108850908915082613480518209905082836126405161348051098309915082611760518209905082611760518309915082836117e0518585850809613680510861368052505080613460516134805109613480528081611620516119e05109826120005161160051090881612020518303838461164051611620510985611660516116005109080882600160441b82099050826120405184038208905082828208905082611740518209905082600160441b830991508283612000516119e05109830891508261172051848561166051611640510886038508098361176051858661204051612020510887038761166051880808099250836117005185858786860808096136c0525050612000518291506140009009816119e0518208905081614000820990508161164051820890508161400082099050816116205182089050816140008209905081611600518208905081611660518303820890508161174051820990508161400061202051098261200051820890508261400082099050826119e05182089050826140008209905082611660518208905082614000820990508261164051820890508261204051840382089050826117605182099050826117205184838508096136e0525050806126605161164051098161162051820890508161266051820990508161160051820890508161266051820990508161178051820890508082611660518403830891508161374052826116005184036119e05108836116605185036120405108848560018703840883098586848803600108830991508585876126405189858b61264051890908090861372052856126605161202051099450856120005186089450856126605186099450856119e0518608945085612660518609945085858703612040510894508561164051870361202051089150858687878903600108840987858903600108099150858487036116605108868760018903830882099050868760018903880887099550866126405184099250868284089250866126405184099250868684089250866126405184099250868184089250508161370052505083611620518503612000510892508361164051850385868488036001088609089250836117005161372051099150838461174051850983089150838461176051613740510983089150836116e0518309915083846117a051613700510983089150836136c05183089250836136e05184089250836118005184099250836134805184099250826136a05283613440516134805109613480525050508061378051826136a0518461368051866136605188613640518a61362051613600510808080808096137608190526126e0516137a08190526137c0919091526102e460043501610520816137e03750506105606137a020818106612700526000819052600160205381602160002006612720526002602053816021600020066127405260036020538160216000200661276052600460205381602160002006612780526005602053816021600020066127a0526006602053816021600020066127c0526007602053816021600020066127e0526008602053816021600020066128005260096020538160216000200661282052600a6020538160216000200661284052600b6020538160216000200661286052600c6020538160216000200661288052600d602053816021600020066128a052600e602053816021600020066128c052600f602053816021600020066128e05260106020538160216000200661290052601160205381602160002006612920526012602053816021600020066129405260136020538160216000200661296052601460205381602160002006612980526015602053816021600020066129a0526016602053816021600020066129c0526017602053816021600020066129e052601860205381602160002006612a0052601960205381602160002006612a2052601a60205381602160002006612a4052601b60205381602160002006612a6052601c60205381602160002006612a8052601d60205381602160002006612aa052601d6020535060216000908120828106612ac05281526123205160205261230051604052612360516060526123405160805260a08120829006612b00526113c0516113e0518482800985600387838609088683840914935050816131605280602061316001525050611400516114205184828309856003878386090886838409148416935050816000528060205250506130405160405260406131a06060600060075afa16604061316060808160065afa81169050611440516114605184828309856003878386090886838409148416935050816000528060205250508161304051613040510960405260406131a06060600060075afa16604061316060808160065afa81169050611480516114a05184828309856003878386090886838409148416935050816000528060205250508161304051836130405161304051090960405260406131a06060600060075afa16604061316060808160065afa81169050611200516112205184828309856003878386090886838409148416935050816000528060205250508161270051836001612b0051080960405260406131a06060600060075afa16604061316060808160065afa81169050611240516112605184828309856003878386090886838409148416935050816000528060205250508161272051836001612b0051080960405260406131a06060600060075afa16604061316060808160065afa81169050611280516112a05184828309856003878386090886838409148416935050816000528060205250508161274051836001612b0051080960405260406131a06060600060075afa16604061316060808160065afa811690506112c0516112e05184828309856003878386090886838409148416935050816000528060205250508161276051836001612b0051080960405260406131a06060600060075afa16604061316060808160065afa81169050611300516113205184828309856003878386090886838409148416935050816000528060205250508161278051836001612b0051080960405260406131a06060600060075afa16604061316060808160065afa8116905061134051611360518482830985600387838609088683840914841693505081600052806020525050816127a051836001612b0051080960405260406131a06060600060075afa16604061316060808160065afa81169050611380516113a0518482830985600387838609088683840914841693505081600052806020525050816127c051836001612b0051080960405260406131a06060600060075afa16604061316060808160065afa81169050610400516104205184828309856003878386090886838409148416935050816000528060205250506127e05160405260406131a06060600060075afa16604061316060808160065afa81169050610440516104605184828309856003878386090886838409148416935050816000528060205250506128005160405260406131a06060600060075afa16604061316060808160065afa81169050610480516104a05184828309856003878386090886838409148416935050816000528060205250506128205160405260406131a06060600060075afa16604061316060808160065afa811690506104c0516104e05184828309856003878386090886838409148416935050816000528060205250506128405160405260406131a06060600060075afa16604061316060808160065afa81169050610500516105205184828309856003878386090886838409148416935050816000528060205250506128605160405260406131a06060600060075afa16604061316060808160065afa81169050610540516105605184828309856003878386090886838409148416935050816000528060205250506128805160405260406131a06060600060075afa16604061316060808160065afa81169050610580516105a05184828309856003878386090886838409148416935050816000528060205250506128a05160405260406131a06060600060075afa16604061316060808160065afa811690506105c0516105e05184828309856003878386090886838409148416935050816000528060205250506128c05160405260406131a06060600060075afa16604061316060808160065afa81169050610600516106205184828309856003878386090886838409148416935050816000528060205250506128e05160405260406131a06060600060075afa16604061316060808160065afa81169050610640516106605184828309856003878386090886838409148416935050816000528060205250506129005160405260406131a06060600060075afa16604061316060808160065afa81169050610680516106a05184828309856003878386090886838409148416935050816000528060205250506129205160405260406131a06060600060075afa16604061316060808160065afa811690506106c0516106e05184828309856003878386090886838409148416935050816000528060205250506129405160405260406131a06060600060075afa16604061316060808160065afa81169050610700516107205184828309856003878386090886838409148416935050816000528060205250506129605160405260406131a06060600060075afa16604061316060808160065afa81169050610740516107605184828309856003878386090886838409148416935050816000528060205250506129805160405260406131a06060600060075afa16604061316060808160065afa81169050610780516107a0518482830985600387838609088683840914841693505081600052806020525050816129a051836001612b0051080960405260406131a06060600060075afa16604061316060808160065afa811690506107c0516107e0518482830985600387838609088683840914841693505081600052806020525050816129c051836001612b0051080960405260406131a06060600060075afa16604061316060808160065afa8116905061080051610820518482830985600387838609088683840914841693505081600052806020525050816129e051836001612b0051080960405260406131a06060600060075afa16604061316060808160065afa811690506108405161086051848283098560038783860908868384091484169350508160005280602052505081612a0051836001612b0051080960405260406131a06060600060075afa16604061316060808160065afa81169050610880516108a0518482830985600387838609088683840914841693505081600052806020525050612a205160405260406131a06060600060075afa16604061316060808160065afa811690506108c0516108e0518482830985600387838609088683840914841693505081600052806020525050612a405160405260406131a06060600060075afa16604061316060808160065afa8116905061090051610920518482830985600387838609088683840914841693505081600052806020525050612a605160405260406131a06060600060075afa16604061316060808160065afa8116905061094051610960518482830985600387838609088683840914841693505081600052806020525050612a805160405260406131a06060600060075afa16604061316060808160065afa81169050610980516109a0518482830985600387838609088683840914841693505081600052806020525050612aa05160405260406131a06060600060075afa16604061316060808160065afa8116905081826116005184612b00516119e051090861270051098283846116205186612b00516120005109086127205109820890508283846116405186612b00516120205109086127405109820890508283846116605186612b00516120405109086127605109820890508283846116805186612b00516120605109086127805109820890508283846116a05186612b00516120805109086127a05109820890508283846116c05186612b00516120a05109086127c051098208905082836116e0516127e051098208905082836117005161280051098208905082836117205161282051098208905082836117405161284051098208905082836117605161286051098208905082836117805161288051098208905082836117a0516128a051098208905082836117c0516128c051098208905082836117e0516128e051098208905082836118005161290051098208905082836119605161292051098208905082836119805161294051098208905082836119a05161296051098208905082836119c0516129805109820890508283846118405186612b00516120c05109086129a05109820890508283846118605186612b00516120e05109086129c05109820890508283846118805186612b00516121005109086129e05109820890508283846118a05186612b0051612120510908612a0051098208905082836118c051612a2051098208905082836118e051612a40510982089050828361190051612a60510982089050828361192051612a80510982089050828361194051612aa0510982089050826137605182089050600160005260026020528083036040525060406131a06060600060075afa16604061316060808160065afa16613360819052612b00516126c05161230051612320518682800987600389838609088883840914955050816000528060205250508060405260406131a06060600060075afa831692506040613160608061316060065afa8316925061234051612360518682830987600389838609088883840914861695505081600052806020525050836103c05185838509096040525060406131a06060600060075afa821691506040613220608061316060065afa8216915061230051600052612320516020526123405160405261236051606052806080526040806060604060075afa8216915060406131e06080600060065afa82169150613200518403613200526109c051156142245761350051613520518582830986600388838609088783840914851694505081600052806020525050828182096040526040606080600060075afa8216915061354051613560518582830986600388838609088783840914851694505081600052806020525050604060006060600060075afa821691506132205160a0526132405160c05260406132206080606060065afa821691506131e0516040526132005160605260406131e06080600060065afa821691505b508061423b5763f755f36960e01b60005260046000fd5b806133805261322051600052613240516020527f198e9393920d483a7260bfb731fb5d25f1aa493335a9e71297e485b7aef312c26040527f1800deef121f1e76426a00665e5c4479674322d4f75edadd46debd5cd992f6ed6060527f090689d0585ff075ec9e99ad690c3395bc4b313370b38ef355acdadcd122975b6080527f12c85ea5db8c6deb4aab71808dcb408fe3d1e7690c43d37b4ce6cc0166fa7daa60a0526131e05160c0526132005160e052610a005161010052610a205161012052610a405161014052610a60516101605260206000610180600060085afa9050806133a0526000516133c05250505061336051613380516133c0516133a051161616614352576301c47f3b60e21b60005260046000fd5b600160005260206000f35b5050565b61435d828260406000830152600060208301527f1418144d5b080fcac24cdb7649bdadf246a6cb2426e324bedb94fb05118f023a60408301527f2fa2bd3915acd9a9116f049fa77b52fbb39318a757d28acefed26dbda040000160608301527f19424d8b0151b6eb913809b08322bcd25e9431c909730154cc9abd288e403ec960808301527f20067ae56a0549c38b97b1b1afa1f22b0fb241c0594046168f9803d1c3af51c960a08301527f13049725e7487a72bf39e43a5c8d9594ad5b75bcbc14432570affcc49df587e260c08301527f2df24c259e9a1b5cbf27d941e970cb6feec27640fedb0e1573f40fa1acea3cb060e08301527f0f8e12393ba4fb7733d20cbbaaeb7daecf7fd2005b7c68e7a7c116494354e0676101008301527f1a9694d3706cc28ecb5974f0802e3f4e12570766125dc8a533fd5474ddfaff8a6101208301527f01920f38ec29ba1e87be0315338e86ea317d8503996d0f3998ff47fa1a796def6101408301527f2e9eeaddddfb1993fcc95df001767bce6db6e3c3319f602f2214aca3b3d2a41f6101608301527f2d3822a3db05d6f981c0c25a234de79ec7a0f6c45f276a62e03780c76cfa491b6101808301527f0121a19e4f1e63cab3020431b50cf199812159c5fb0b5456d352ea0d116eb5056101a08301527f28f21ea4e1fa9abb05fea0c4e99dacb6077a9b346e2a16780b7e373c5214f1796101c08301527f2b9b3ac74096c1f7182c875d6b5d3d459487d2599e3af26e59f060731b0dfdef6101e08301527f0478c04bbc696d216388012098db931deb166926d7b76b7d6cf56ea53a0b4dd16102008301527f3053f3d28918c1e03a00924c8df50408ce6d1b159bc1d1ad4448f7ebc3a419566102208301527f277d1e4445ea7e1e963af02318d3ee6886d7fc5665a57e41cdd0ae6d4be7a5d26102408301527f1ca461c591b66df8bf3d5b6eafee647c75c11092b1ac69c95421fbe3de313e9b6102608301527f2af923bf4bea5148f0437ed512153cd1e969293d440e631d611f4733050be4726102808301527f205566a04f236fad80df1d94eb8d07461f4d6e518d7c72d8044defd653fd89066102a08301527f052e66fe2ec34fd2a0ff028d50126099b5f5d6a8818d15da15e2ab9b68e5878c6102c08301527f138fa6b6f11f940b734af569f0d897428ee7efbfa3a4f04ecf8f41694d086bad6102e08301527f17466c3dd52be02d48ded96edaa24790ca47964e70b04df00543cadefa09d8546103008301527f1d52fc80de66f21078f5c96c595f2ed400e93905a7ce77ab33cb80d9dcf21b516103208301527f0429837353b17e8420f6c206dc1814c8f8bb76529ae8a7f61e864c60b7f3e3776103408301527f2f59b5d8795cbb7c033b7a8bf56893b797a22f87d1c090419039ea6731809ede6103608301527f27ecf5d7f56b7487a5b8a52bd154437af513aedaeaa21dbfbddce6633987b5866103808301527f2290535db48dd31b3a73273f47dc80e983ec02f61b6709ab01a0dea7f721f5746103a08301527f016255578d1dc77ff2b066858e5b6a3ed8dba908114cc0eb9ed7402a8780d12c6103c08301527f0cd06bfc7403696be5b21655948067852d329a78e3133971e11a1cb613db88d26103e08301527f0fbd3508db14753ba04366123914f19e1241e4fe8daaa9bc4a3434765dc382876104008301527f2286f6028252d1ef6c510d36127ccb45fa3037fbe597163cbb087b04e06510c96104208301527f1d10b2e7041abbf77830ebb28524ce527c2a17b9f41aa9f0fae126f9705277026104408301527f13bf063e05b26e4e0cabcb2b1ce31429f0b77ed04332ad008b2335c7b32fdf496104608301527e7a80a0f9d660266c927006d39ad8cb6bd6ce0f611ee528618b857fed070e166104808301527f2a57f21130a12be4b352e88e3cafb14158fcb02b6fb211565131b33d258d4f566104a08301527f1118d84874cb5d8c476e16dc99b7bacfbde496afc80c7417bbefd5ee0f999a526104c08301527f0e48eb07b6fda71e59ead38c9b98762c09f3a6278aa85ee34f1670c2b25146936104e08301527f13e5b74caef7f1ce9041059b6799b46a28cf7cfaac15ceb2598e319a1c1d83806105008301527f03a80605a1fad1ed9aebeb3f6710846b07d68b877e7e1efe9da7d3929f0714d66105208301527f141b7b1f9f73260c4433fe9813b647cc45b22ef7104daa0e5c4e19886af27d0a6105408301527f23d68330ff5f083131271da84ff57a6f95316c11c63ce8b2af5a421920d9ce676105608301527f1fd40b31b21db004ef341a32ce5b48d177fadb669d4a3330e0fdc1dd89f275356105808301527f0111c24c0cc10327ae6d9678d70372a7757fda91c8f09cc8bbd5ea4a1b2d94d46105a08301527f0a29bda61f408385d81bc00c3ae272e8f23934ba2e2affb16f0581259b8ffa4b6105c08301527f075001dbf2095dff48d12ae9ef87c5df464b950edc5b9d1b50d4db1d7ca8743f6105e083015260008051602061541a83398151915261060083015260008051602061545a833981519152610620830152600061064083015260006106608301526000805160206153fa83398151915261068083015260008051602061543a8339815191526106a08301526000805160206153da8339815191526106c083015260008051602061547a8339815191526106e08301527f26177cf2b2a13d3a035cdc7567a8a676d80396ec1d3213ee78ce6a0b763d698f81525050565b61435d828260406000830152600060208301527f1418144d5b080fcac24cdb7649bdadf246a6cb2426e324bedb94fb05118f023a60408301527f2fa2bd3915acd9a9116f049fa77b52fbb39318a757d28acefed26dbda040000160608301527f0ee3cc41825485d57dd4012a39dd24dc8f65ea1d6c13e791c4da0674949d1c3d60808301527f182abbb7a94df2940e0dc18df1ae9f6f9c37428f7580eeb30647a1ef1d03be4e60a08301527f109a4e55d19075414d768611a3c31e185c4b8e69d8c7e160c8a533b8fe8f2c3060c08301527f01b32f2d000141d0aa42f4385315f1394da12bce8f79b6da2c7317992ed3834960e08301527f12d41814d84ce73e037f1d8068a00039f750937b8d48cdd0eca9d45f1389511c6101008301527f1c9d165f78305a2a24448a02e4b9d08abbca30dad4ea112ef1e755d55157f8ff6101208301527f01920f38ec29ba1e87be0315338e86ea317d8503996d0f3998ff47fa1a796def6101408301527f2e9eeaddddfb1993fcc95df001767bce6db6e3c3319f602f2214aca3b3d2a41f6101608301527f0cbb72e78746296a14069a6bdf99aef32e00876dfead5580b0005e570f01e8066101808301527f11d49fb44c8c00fdbbbf32db232f0033f8780bfb6df557ce6684c13827d8de7f6101a08301527f0eee464ac2e4dd4a9eab903c6a285f2f6a0ec45e52051d9dd8c8b7c805888a436101c08301527f239c6662a687f4de7c9ba3dac0cdd29a5ea2f60096b7ad2b2182f96dc06f88536101e08301527f022e710c52068a6faa8d5bc024e6d98f7f2ffd2e9742c2b2b6b88a991f24b55e6102008301527f14edd32c06c1b7d21c4e19d13d8261761abf9a210784d1fa6037ca3544e11dfb6102208301527f277d1e4445ea7e1e963af02318d3ee6886d7fc5665a57e41cdd0ae6d4be7a5d26102408301527f1ca461c591b66df8bf3d5b6eafee647c75c11092b1ac69c95421fbe3de313e9b6102608301527f2af923bf4bea5148f0437ed512153cd1e969293d440e631d611f4733050be4726102808301527f205566a04f236fad80df1d94eb8d07461f4d6e518d7c72d8044defd653fd89066102a08301527f052e66fe2ec34fd2a0ff028d50126099b5f5d6a8818d15da15e2ab9b68e5878c6102c08301527f138fa6b6f11f940b734af569f0d897428ee7efbfa3a4f04ecf8f41694d086bad6102e08301527f188fccdc646d2d417dc11adb99e88488da8dc67c866b5b657f7a0b6c1fd2aeb26103008301527f1a5696ac185f27fd11cdf9c8317c97ca889e6bb4c22c33c4fa9cf0c1044cdccb6103208301527f1f1776fb557cf4e19f6d77a8be3c12d9d993e90844536844d1b944da411ad6036103408301527f1b3efb0a7d0b415d692154954141ddd18e412188b9b48c91af4708deb1bce69b6103608301527f206a67b711fe252a04e5288dc0a30439c214e488073fc2549975c6d2e2b5981b6103808301527f10dec39010e0d9ca947a89bbfc467486e624c617ad54772af42ed540cb28da776103a08301527f1782349a998bdd9317197d10b9fa2d56b38bca2162e349acc41ec2d98f8f098e6103c08301527f13e4b95378b0d33d7d8b365a5e321aeae17a804aa92ec197ac0331c8ed74bdcf6103e08301527f0fbd3508db14753ba04366123914f19e1241e4fe8daaa9bc4a3434765dc382876104008301527f2286f6028252d1ef6c510d36127ccb45fa3037fbe597163cbb087b04e06510c96104208301527f1d10b2e7041abbf77830ebb28524ce527c2a17b9f41aa9f0fae126f9705277026104408301527f13bf063e05b26e4e0cabcb2b1ce31429f0b77ed04332ad008b2335c7b32fdf496104608301527e7a80a0f9d660266c927006d39ad8cb6bd6ce0f611ee528618b857fed070e166104808301527f2a57f21130a12be4b352e88e3cafb14158fcb02b6fb211565131b33d258d4f566104a08301527f1118d84874cb5d8c476e16dc99b7bacfbde496afc80c7417bbefd5ee0f999a526104c08301527f0e48eb07b6fda71e59ead38c9b98762c09f3a6278aa85ee34f1670c2b25146936104e08301527f13e5b74caef7f1ce9041059b6799b46a28cf7cfaac15ceb2598e319a1c1d83806105008301527f03a80605a1fad1ed9aebeb3f6710846b07d68b877e7e1efe9da7d3929f0714d66105208301527f0f337904e69b7222f27cd9db4608fb6af4cb6d7ca39e92107b56508497cbf7c16105408301527f21a8e52dc0ea9f59956a92a2072a0f8917057b42661ce2212ac6d162197a61186105608301527f25b7f2e1d11dedcfe92cc0d5ffc538639ff5deb23d0bbedea02f3ecbb7fa43fd6105808301527f111b38923fa8f0d964bc4722a659b8f0e130097622838ff16a0c7a25186444226105a08301527f0dd91f1d7af64efec8dd2a974764188ddc56cbac0ba685f9d7d8840664378a326105c08301527f01a7dbe005fba856476cd8b0e40303129a09b46939df7c1312d87a571ba18ef86105e083015260008051602061541a83398151915261060083015260008051602061545a833981519152610620830152600061064083015260006106608301526000805160206153fa83398151915261068083015260008051602061543a8339815191526106a08301526000805160206153da8339815191526106c083015260008051602061547a8339815191526106e08301527f26177cf2b2a13d3a035cdc7567a8a676d80396ec1d3213ee78ce6a0b763d698f81525050565b803560ff811681146152f857600080fd5b919050565b60008060008060006060868803121561531557600080fd5b853567ffffffffffffffff8082111561532d57600080fd5b818801915088601f83011261534157600080fd5b81358181111561535057600080fd5b89602082850101111561536257600080fd5b60209283019750955090870135908082111561537d57600080fd5b818801915088601f83011261539157600080fd5b8135818111156153a057600080fd5b8960208260051b85010111156153b557600080fd5b6020830195508094505050506153cd604087016152e7565b9050929550929590935056fe04fc6369f7110fe3d25156c1bb9a72859cf2a04641f99ba4ee413c80da6a5fe4260e01b251f6f1c7e7ff4e580791dee8ea51d87a358e038b4efe30fac09383c12eea648c8732596b1314fe2a4d2f05363f0c994e91cecad25835338edee2294f0118c4d5b837bcc2bc89b5b398b5974e9f5944073b32078b7e231fec938883b00ab49886c2b94bd0bd3f6ed1dbbe2cb2671d2ae51d31c1210433c3972bb6457822febda3c0c0632a56475b4214e5615e11e6dd3f96e6cea2854a87d4dacc5e55a2646970667358221220d7f60c6b272d12c8a1b25c9df45cf049646289c62d56bf504325bca33b763ffa64736f6c63430008170033476f7665726e6f72427261766f3a3a696e697469616c697a653a20696e76616c","linkReferences":{}},"methodIdentifiers":{"BALLOT_TYPEHASH()":"deaaa7cc","DOMAIN_TYPEHASH()":"20606b70","MAX_PROPOSAL_THRESHOLD()":"25fd935a","MAX_VOTING_DELAY()":"b1126263","MAX_VOTING_PERIOD()":"a64e024a","MIN_PROPOSAL_THRESHOLD()":"791f5d23","MIN_VOTING_DELAY()":"e48083fe","MIN_VOTING_PERIOD()":"215809ca","_acceptAdmin()":"e9c714f2","_initiate(address)":"f9d28b80","_setPendingAdmin(address)":"b71d1a0c","_setProposalThreshold(uint256)":"17ba1b8b","_setVotingDelay(uint256)":"1dfb1b5a","_setVotingPeriod(uint256)":"0ea2d98c","_setWhitelistAccountExpiration(address,uint256)":"4d6733d2","_setWhitelistGuardian(address)":"99533365","active(address)":"4ea71327","admin()":"f851a440","cancel(uint256)":"40e58ee5","castVote(uint256,uint8)":"56781388","castVoteBySig(uint256,uint8,uint8,bytes32,bytes32)":"3bccf4fd","castVoteWithReason(uint256,uint8,string)":"7b3c71d3","comp()":"109d0af8","execute(uint256)":"fe0d94c1","fromHex(string)":"8e7e34d7","fromHexChar(uint8)":"2ecb20d3","getActions(uint256)":"328dd982","getLd()":"079a3930","getReceipt(uint256,address)":"e23a9a52","implementation()":"5c60da1b","initialProposalId()":"fc4eee42","initialize_private(bytes32,bytes32,bytes32,string,string)":"10720068","isWhitelisted(address)":"3af32abf","l_d_index(address)":"8f24f0c2","l_did(address)":"1957e87f","latestProposalIds(address)":"17977c61","name()":"06fdde03","pendingAdmin()":"26782247","postTally(uint256,uint256,uint256,uint256)":"8b8c51b3","proposalCount()":"da35c664","proposalMaxOperations()":"7bdbe4d0","proposalThreshold()":"b58131b0","proposals(uint256)":"013cf08b","propose(address[],uint256[],string[],bytes[],string)":"da95691a","queue(uint256)":"ddf0b009","quorumVotes()":"24bc1a64","register_delegate(bytes32,bytes32,bytes32,bytes32,bytes32,string)":"1c3c82ec","state(uint256)":"3e4f49e6","timelock()":"d33219b4","unregister_delegate()":"501b31b7","votingDelay()":"3932abb1","votingPeriod()":"02a251a3","whitelistAccountExpirations(address)":"38bd0dda","whitelistGuardian()":"c5a8425d"},"id":0}