{"abi":[{"type":"constructor","inputs":[{"name":"timelock_","type":"address","internalType":"address"},{"name":"comp_","type":"address","internalType":"address"},{"name":"votingPeriod_","type":"uint256","internalType":"uint256"},{"name":"votingDelay_","type":"uint256","internalType":"uint256"},{"name":"proposalThreshold_","type":"uint256","internalType":"uint256"}],"stateMutability":"nonpayable"},{"type":"function","name":"BALLOT_TYPEHASH","inputs":[],"outputs":[{"name":"","type":"bytes32","internalType":"bytes32"}],"stateMutability":"view"},{"type":"function","name":"DOMAIN_TYPEHASH","inputs":[],"outputs":[{"name":"","type":"bytes32","internalType":"bytes32"}],"stateMutability":"view"},{"type":"function","name":"MAX_PROPOSAL_THRESHOLD","inputs":[],"outputs":[{"name":"","type":"uint256","internalType":"uint256"}],"stateMutability":"view"},{"type":"function","name":"MAX_VOTING_DELAY","inputs":[],"outputs":[{"name":"","type":"uint256","internalType":"uint256"}],"stateMutability":"view"},{"type":"function","name":"MAX_VOTING_PERIOD","inputs":[],"outputs":[{"name":"","type":"uint256","internalType":"uint256"}],"stateMutability":"view"},{"type":"function","name":"MIN_PROPOSAL_THRESHOLD","inputs":[],"outputs":[{"name":"","type":"uint256","internalType":"uint256"}],"stateMutability":"view"},{"type":"function","name":"MIN_VOTING_DELAY","inputs":[],"outputs":[{"name":"","type":"uint256","internalType":"uint256"}],"stateMutability":"view"},{"type":"function","name":"MIN_VOTING_PERIOD","inputs":[],"outputs":[{"name":"","type":"uint256","internalType":"uint256"}],"stateMutability":"view"},{"type":"function","name":"_acceptAdmin","inputs":[],"outputs":[],"stateMutability":"nonpayable"},{"type":"function","name":"_initiate","inputs":[{"name":"governorAlpha","type":"address","internalType":"address"}],"outputs":[],"stateMutability":"nonpayable"},{"type":"function","name":"_setPendingAdmin","inputs":[{"name":"newPendingAdmin","type":"address","internalType":"address"}],"outputs":[],"stateMutability":"nonpayable"},{"type":"function","name":"_setProposalThreshold","inputs":[{"name":"newProposalThreshold","type":"uint256","internalType":"uint256"}],"outputs":[],"stateMutability":"nonpayable"},{"type":"function","name":"_setVotingDelay","inputs":[{"name":"newVotingDelay","type":"uint256","internalType":"uint256"}],"outputs":[],"stateMutability":"nonpayable"},{"type":"function","name":"_setVotingPeriod","inputs":[{"name":"newVotingPeriod","type":"uint256","internalType":"uint256"}],"outputs":[],"stateMutability":"nonpayable"},{"type":"function","name":"_setWhitelistAccountExpiration","inputs":[{"name":"account","type":"address","internalType":"address"},{"name":"expiration","type":"uint256","internalType":"uint256"}],"outputs":[],"stateMutability":"nonpayable"},{"type":"function","name":"_setWhitelistGuardian","inputs":[{"name":"account","type":"address","internalType":"address"}],"outputs":[],"stateMutability":"nonpayable"},{"type":"function","name":"active","inputs":[{"name":"","type":"address","internalType":"address"}],"outputs":[{"name":"","type":"bool","internalType":"bool"}],"stateMutability":"view"},{"type":"function","name":"admin","inputs":[],"outputs":[{"name":"","type":"address","internalType":"address"}],"stateMutability":"view"},{"type":"function","name":"comp","inputs":[],"outputs":[{"name":"","type":"address","internalType":"contract CompInterface"}],"stateMutability":"view"},{"type":"function","name":"decrypt_tally","inputs":[{"name":"proposalID","type":"uint256","internalType":"uint256"},{"name":"percents","type":"bytes32[3]","internalType":"bytes32[3]"},{"name":"proof","type":"bytes","internalType":"bytes"}],"outputs":[],"stateMutability":"nonpayable"},{"type":"function","name":"delegate","inputs":[{"name":"ct_new","type":"bytes32[]","internalType":"bytes32[]"},{"name":"rand_states","type":"bytes32[]","internalType":"bytes32[]"},{"name":"delegates","type":"bytes32[]","internalType":"bytes32[]"},{"name":"vote_root","type":"bytes32","internalType":"bytes32"},{"name":"votes_hashpath","type":"bytes32[]","internalType":"bytes32[]"},{"name":"vote_idx","type":"bytes32","internalType":"bytes32"},{"name":"ct_old","type":"bytes32[]","internalType":"bytes32[]"},{"name":"ct_sum","type":"bytes32[]","internalType":"bytes32[]"},{"name":"shuffled_indices","type":"uint256[]","internalType":"uint256[]"},{"name":"proof","type":"bytes","internalType":"bytes"}],"outputs":[],"stateMutability":"nonpayable"},{"type":"function","name":"election_setup","inputs":[{"name":"targets","type":"address[]","internalType":"address[]"},{"name":"values","type":"uint256[]","internalType":"uint256[]"},{"name":"signatures","type":"string[]","internalType":"string[]"},{"name":"calldatas","type":"bytes[]","internalType":"bytes[]"},{"name":"title","type":"string","internalType":"string"},{"name":"description","type":"string","internalType":"string"},{"name":"ct0","type":"bytes32[4]","internalType":"bytes32[4]"},{"name":"voting_delay","type":"uint256","internalType":"uint256"},{"name":"voting_period","type":"uint256","internalType":"uint256"}],"outputs":[{"name":"","type":"uint256","internalType":"uint256"}],"stateMutability":"nonpayable"},{"type":"function","name":"election_start","inputs":[{"name":"proposalID","type":"uint256","internalType":"uint256"},{"name":"votingRootSnapshot","type":"bytes32","internalType":"bytes32"}],"outputs":[],"stateMutability":"nonpayable"},{"type":"function","name":"exec","inputs":[{"name":"proposalId","type":"uint256","internalType":"uint256"}],"outputs":[],"stateMutability":"payable"},{"type":"function","name":"getCiphertext","inputs":[{"name":"addr","type":"address","internalType":"address"}],"outputs":[{"name":"","type":"bytes32","internalType":"bytes32"},{"name":"","type":"bytes32","internalType":"bytes32"},{"name":"","type":"bytes32","internalType":"bytes32"},{"name":"","type":"bytes32","internalType":"bytes32"}],"stateMutability":"view"},{"type":"function","name":"getLd","inputs":[],"outputs":[{"name":"","type":"bytes32[4][]","internalType":"bytes32[4][]"}],"stateMutability":"view"},{"type":"function","name":"getReceipt","inputs":[{"name":"proposalId","type":"uint256","internalType":"uint256"},{"name":"voter","type":"address","internalType":"address"}],"outputs":[{"name":"","type":"tuple","internalType":"struct GovernorBravoDelegateStorageV1.Receipt","components":[{"name":"hasVoted","type":"bool","internalType":"bool"},{"name":"support","type":"uint8","internalType":"uint8"},{"name":"votes","type":"uint96","internalType":"uint96"}]}],"stateMutability":"view"},{"type":"function","name":"get_proposal_votes","inputs":[{"name":"votes","type":"uint256","internalType":"uint256"},{"name":"proposalID","type":"uint256","internalType":"uint256"}],"outputs":[{"name":"","type":"bytes32[4]","internalType":"bytes32[4]"}],"stateMutability":"view"},{"type":"function","name":"get_proposal_votes_all","inputs":[{"name":"proposalID","type":"uint256","internalType":"uint256"}],"outputs":[{"name":"","type":"bytes32[4]","internalType":"bytes32[4]"},{"name":"","type":"bytes32[4]","internalType":"bytes32[4]"},{"name":"","type":"bytes32[4]","internalType":"bytes32[4]"}],"stateMutability":"view"},{"type":"function","name":"implementation","inputs":[],"outputs":[{"name":"","type":"address","internalType":"address"}],"stateMutability":"view"},{"type":"function","name":"initialProposalId","inputs":[],"outputs":[{"name":"","type":"uint256","internalType":"uint256"}],"stateMutability":"view"},{"type":"function","name":"initialize_private","inputs":[{"name":"pk_enc_x","type":"bytes32","internalType":"bytes32"},{"name":"pk_enc_y","type":"bytes32","internalType":"bytes32"},{"name":"r_t_","type":"bytes32","internalType":"bytes32"},{"name":"signature_","type":"string","internalType":"string"},{"name":"pk_sig_","type":"string","internalType":"string"}],"outputs":[],"stateMutability":"nonpayable"},{"type":"function","name":"isWhitelisted","inputs":[{"name":"account","type":"address","internalType":"address"}],"outputs":[{"name":"","type":"bool","internalType":"bool"}],"stateMutability":"view"},{"type":"function","name":"is_active","inputs":[{"name":"user","type":"address","internalType":"address"}],"outputs":[{"name":"","type":"bool","internalType":"bool"}],"stateMutability":"view"},{"type":"function","name":"l_d_index","inputs":[{"name":"","type":"address","internalType":"address"}],"outputs":[{"name":"","type":"uint256","internalType":"uint256"}],"stateMutability":"view"},{"type":"function","name":"l_did","inputs":[{"name":"","type":"address","internalType":"address"}],"outputs":[{"name":"","type":"bytes32","internalType":"bytes32"}],"stateMutability":"view"},{"type":"function","name":"latestProposalIds","inputs":[{"name":"","type":"address","internalType":"address"}],"outputs":[{"name":"","type":"uint256","internalType":"uint256"}],"stateMutability":"view"},{"type":"function","name":"name","inputs":[],"outputs":[{"name":"","type":"string","internalType":"string"}],"stateMutability":"view"},{"type":"function","name":"pendingAdmin","inputs":[],"outputs":[{"name":"","type":"address","internalType":"address"}],"stateMutability":"view"},{"type":"function","name":"proposalCount","inputs":[],"outputs":[{"name":"","type":"uint256","internalType":"uint256"}],"stateMutability":"view"},{"type":"function","name":"proposalMaxOperations","inputs":[],"outputs":[{"name":"","type":"uint256","internalType":"uint256"}],"stateMutability":"view"},{"type":"function","name":"proposalThreshold","inputs":[],"outputs":[{"name":"","type":"uint256","internalType":"uint256"}],"stateMutability":"view"},{"type":"function","name":"proposals","inputs":[{"name":"","type":"uint256","internalType":"uint256"}],"outputs":[{"name":"id","type":"uint256","internalType":"uint256"},{"name":"proposer","type":"address","internalType":"address"},{"name":"eta","type":"uint256","internalType":"uint256"},{"name":"startBlock","type":"uint256","internalType":"uint256"},{"name":"endBlock","type":"uint256","internalType":"uint256"},{"name":"canceled","type":"bool","internalType":"bool"},{"name":"executed","type":"bool","internalType":"bool"},{"name":"initialized","type":"bool","internalType":"bool"},{"name":"decrypted","type":"bool","internalType":"bool"},{"name":"successful","type":"bool","internalType":"bool"},{"name":"queued","type":"bool","internalType":"bool"},{"name":"snapshot","type":"bytes32","internalType":"bytes32"}],"stateMutability":"view"},{"type":"function","name":"quorumVotes","inputs":[],"outputs":[{"name":"","type":"uint256","internalType":"uint256"}],"stateMutability":"view"},{"type":"function","name":"register_delegate","inputs":[{"name":"balance","type":"bytes32","internalType":"bytes32"},{"name":"cex","type":"bytes32","internalType":"bytes32"},{"name":"cey","type":"bytes32","internalType":"bytes32"},{"name":"cvx","type":"bytes32","internalType":"bytes32"},{"name":"cvy","type":"bytes32","internalType":"bytes32"},{"name":"proof","type":"bytes","internalType":"bytes"}],"outputs":[],"stateMutability":"nonpayable"},{"type":"function","name":"state","inputs":[{"name":"proposalId","type":"uint256","internalType":"uint256"}],"outputs":[{"name":"","type":"uint8","internalType":"enum GovernorBravoDelegateStorageV1.ProposalState"}],"stateMutability":"view"},{"type":"function","name":"timelock","inputs":[],"outputs":[{"name":"","type":"address","internalType":"contract TimelockInterface"}],"stateMutability":"view"},{"type":"function","name":"undelegate","inputs":[{"name":"ct_new","type":"bytes32[]","internalType":"bytes32[]"},{"name":"ct_old","type":"bytes32[]","internalType":"bytes32[]"},{"name":"ct_sum","type":"bytes32[]","internalType":"bytes32[]"},{"name":"shuffled_indices","type":"uint256[]","internalType":"uint256[]"},{"name":"anonymity_size","type":"uint256","internalType":"uint256"},{"name":"proof","type":"bytes","internalType":"bytes"}],"outputs":[],"stateMutability":"nonpayable"},{"type":"function","name":"unregister_delegate","inputs":[{"name":"balance","type":"bytes32","internalType":"bytes32"},{"name":"old_cex","type":"bytes32","internalType":"bytes32"},{"name":"old_cey","type":"bytes32","internalType":"bytes32"},{"name":"old_cvx","type":"bytes32","internalType":"bytes32"},{"name":"old_cvy","type":"bytes32","internalType":"bytes32"},{"name":"new_cex","type":"bytes32","internalType":"bytes32"},{"name":"new_cey","type":"bytes32","internalType":"bytes32"},{"name":"new_cvx","type":"bytes32","internalType":"bytes32"},{"name":"new_cvy","type":"bytes32","internalType":"bytes32"},{"name":"proof","type":"bytes","internalType":"bytes"}],"outputs":[],"stateMutability":"nonpayable"},{"type":"function","name":"vote","inputs":[{"name":"proposalID","type":"uint256","internalType":"uint256"},{"name":"support","type":"uint8","internalType":"uint8"},{"name":"message","type":"string","internalType":"string"},{"name":"rAdd","type":"bytes32[12]","internalType":"bytes32[12]"},{"name":"root","type":"bytes32","internalType":"bytes32"},{"name":"path","type":"bytes32[20]","internalType":"bytes32[20]"},{"name":"merkleIndex","type":"bytes32","internalType":"bytes32"},{"name":"proof","type":"bytes","internalType":"bytes"}],"outputs":[],"stateMutability":"nonpayable"},{"type":"function","name":"votingDelay","inputs":[],"outputs":[{"name":"","type":"uint256","internalType":"uint256"}],"stateMutability":"view"},{"type":"function","name":"votingPeriod","inputs":[],"outputs":[{"name":"","type":"uint256","internalType":"uint256"}],"stateMutability":"view"},{"type":"function","name":"whitelistAccountExpirations","inputs":[{"name":"","type":"address","internalType":"address"}],"outputs":[{"name":"","type":"uint256","internalType":"uint256"}],"stateMutability":"view"},{"type":"function","name":"whitelistGuardian","inputs":[],"outputs":[{"name":"","type":"address","internalType":"address"}],"stateMutability":"view"},{"type":"event","name":"DecryptTally","inputs":[{"name":"proposalId","type":"uint256","indexed":true,"internalType":"uint256"},{"name":"forVote","type":"bytes32","indexed":false,"internalType":"bytes32"},{"name":"againstVote","type":"bytes32","indexed":false,"internalType":"bytes32"},{"name":"abstainVote","type":"bytes32","indexed":false,"internalType":"bytes32"}],"anonymous":false},{"type":"event","name":"Delegated","inputs":[{"name":"sender","type":"address","indexed":true,"internalType":"address"},{"name":"ldid_hash","type":"bytes32","indexed":true,"internalType":"bytes32"},{"name":"lock_of_sender","type":"bool","indexed":false,"internalType":"bool"}],"anonymous":false},{"type":"event","name":"ElectionSetup","inputs":[{"name":"id","type":"uint256","indexed":false,"internalType":"uint256"},{"name":"proposer","type":"address","indexed":false,"internalType":"address"},{"name":"startBlock","type":"uint256","indexed":false,"internalType":"uint256"},{"name":"endBlock","type":"uint256","indexed":false,"internalType":"uint256"},{"name":"description","type":"string","indexed":false,"internalType":"string"},{"name":"title","type":"string","indexed":false,"internalType":"string"}],"anonymous":false},{"type":"event","name":"ElectionStart","inputs":[{"name":"id","type":"uint256","indexed":true,"internalType":"uint256"},{"name":"proposer","type":"address","indexed":true,"internalType":"address"},{"name":"reid","type":"bytes32","indexed":true,"internalType":"bytes32"},{"name":"l_d","type":"bytes32[4][]","indexed":false,"internalType":"bytes32[4][]"}],"anonymous":false},{"type":"event","name":"InitializePrivate","inputs":[{"name":"pk_enc_x","type":"bytes32","indexed":true,"internalType":"bytes32"},{"name":"pk_enc_y","type":"bytes32","indexed":true,"internalType":"bytes32"},{"name":"r_t_","type":"bytes32","indexed":true,"internalType":"bytes32"},{"name":"signature_","type":"string","indexed":false,"internalType":"string"},{"name":"pk_sig_","type":"string","indexed":false,"internalType":"string"}],"anonymous":false},{"type":"event","name":"NewAdmin","inputs":[{"name":"oldAdmin","type":"address","indexed":false,"internalType":"address"},{"name":"newAdmin","type":"address","indexed":false,"internalType":"address"}],"anonymous":false},{"type":"event","name":"NewImplementation","inputs":[{"name":"oldImplementation","type":"address","indexed":false,"internalType":"address"},{"name":"newImplementation","type":"address","indexed":false,"internalType":"address"}],"anonymous":false},{"type":"event","name":"NewPendingAdmin","inputs":[{"name":"oldPendingAdmin","type":"address","indexed":false,"internalType":"address"},{"name":"newPendingAdmin","type":"address","indexed":false,"internalType":"address"}],"anonymous":false},{"type":"event","name":"PostTally","inputs":[{"name":"proposalId","type":"uint256","indexed":false,"internalType":"uint256"},{"name":"forVotes","type":"uint256","indexed":false,"internalType":"uint256"},{"name":"againstVotes","type":"uint256","indexed":false,"internalType":"uint256"},{"name":"abstainVotes","type":"uint256","indexed":false,"internalType":"uint256"}],"anonymous":false},{"type":"event","name":"ProposalCanceled","inputs":[{"name":"id","type":"uint256","indexed":false,"internalType":"uint256"}],"anonymous":false},{"type":"event","name":"ProposalCreated","inputs":[{"name":"id","type":"uint256","indexed":false,"internalType":"uint256"},{"name":"proposer","type":"address","indexed":false,"internalType":"address"},{"name":"targets","type":"address[]","indexed":false,"internalType":"address[]"},{"name":"values","type":"uint256[]","indexed":false,"internalType":"uint256[]"},{"name":"signatures","type":"string[]","indexed":false,"internalType":"string[]"},{"name":"calldatas","type":"bytes[]","indexed":false,"internalType":"bytes[]"},{"name":"startBlock","type":"uint256","indexed":false,"internalType":"uint256"},{"name":"endBlock","type":"uint256","indexed":false,"internalType":"uint256"},{"name":"description","type":"string","indexed":false,"internalType":"string"}],"anonymous":false},{"type":"event","name":"ProposalExecuted","inputs":[{"name":"id","type":"uint256","indexed":false,"internalType":"uint256"}],"anonymous":false},{"type":"event","name":"ProposalQueued","inputs":[{"name":"id","type":"uint256","indexed":false,"internalType":"uint256"},{"name":"eta","type":"uint256","indexed":false,"internalType":"uint256"}],"anonymous":false},{"type":"event","name":"ProposalThresholdSet","inputs":[{"name":"oldProposalThreshold","type":"uint256","indexed":false,"internalType":"uint256"},{"name":"newProposalThreshold","type":"uint256","indexed":false,"internalType":"uint256"}],"anonymous":false},{"type":"event","name":"RegisterDelegate","inputs":[{"name":"sender","type":"address","indexed":true,"internalType":"address"},{"name":"sender_index","type":"uint256","indexed":true,"internalType":"uint256"},{"name":"lock_of_sender","type":"bool","indexed":false,"internalType":"bool"},{"name":"active_of_sender","type":"bool","indexed":false,"internalType":"bool"},{"name":"delegate_bal","type":"uint256","indexed":false,"internalType":"uint256"}],"anonymous":false},{"type":"event","name":"Undelegated","inputs":[{"name":"sender","type":"address","indexed":true,"internalType":"address"},{"name":"ldid_hash","type":"bytes32","indexed":true,"internalType":"bytes32"},{"name":"lock_of_sender","type":"bool","indexed":false,"internalType":"bool"}],"anonymous":false},{"type":"event","name":"UnregisterDelegate","inputs":[{"name":"sender","type":"address","indexed":true,"internalType":"address"},{"name":"lock_of_sender","type":"bool","indexed":false,"internalType":"bool"},{"name":"active_of_sender","type":"bool","indexed":false,"internalType":"bool"},{"name":"delegate_bal","type":"uint256","indexed":false,"internalType":"uint256"},{"name":"sender_index","type":"uint256","indexed":false,"internalType":"uint256"}],"anonymous":false},{"type":"event","name":"Vote","inputs":[{"name":"proposalId","type":"uint256","indexed":false,"internalType":"uint256"},{"name":"proposer","type":"address","indexed":false,"internalType":"address"},{"name":"support","type":"uint8","indexed":false,"internalType":"uint8"},{"name":"message","type":"string","indexed":false,"internalType":"string"},{"name":"resVote","type":"bytes32[4]","indexed":false,"internalType":"bytes32[4]"}],"anonymous":false},{"type":"event","name":"VoteCast","inputs":[{"name":"voter","type":"address","indexed":true,"internalType":"address"},{"name":"proposalId","type":"uint256","indexed":false,"internalType":"uint256"},{"name":"support","type":"uint8","indexed":false,"internalType":"uint8"},{"name":"votes","type":"uint256","indexed":false,"internalType":"uint256"},{"name":"reason","type":"string","indexed":false,"internalType":"string"}],"anonymous":false},{"type":"event","name":"VotingDelaySet","inputs":[{"name":"oldVotingDelay","type":"uint256","indexed":false,"internalType":"uint256"},{"name":"newVotingDelay","type":"uint256","indexed":false,"internalType":"uint256"}],"anonymous":false},{"type":"event","name":"VotingPeriodSet","inputs":[{"name":"oldVotingPeriod","type":"uint256","indexed":false,"internalType":"uint256"},{"name":"newVotingPeriod","type":"uint256","indexed":false,"internalType":"uint256"}],"anonymous":false},{"type":"event","name":"WhitelistAccountExpirationSet","inputs":[{"name":"account","type":"address","indexed":false,"internalType":"address"},{"name":"expiration","type":"uint256","indexed":false,"internalType":"uint256"}],"anonymous":false},{"type":"event","name":"WhitelistGuardianSet","inputs":[{"name":"oldGuardian","type":"address","indexed":false,"internalType":"address"},{"name":"newGuardian","type":"address","indexed":false,"internalType":"address"}],"anonymous":false}],"bytecode":{"object":"0x60806040523480156200001157600080fd5b506040516200c3863803806200c3868339810160408190526200003491620003ba565b6008546001600160a01b031615620000b95760405162461bcd60e51b815260206004820152603360248201527f476f7665726e6f72427261766f3a3a696e697469616c697a653a2063616e206f60448201527f6e6c7920696e697469616c697a65206f6e63650000000000000000000000000060648201526084015b60405180910390fd5b6001600160a01b038516620001265760405162461bcd60e51b815260206004820152603360248201526000805160206200c36683398151915260448201527f69642074696d656c6f636b2061646472657373000000000000000000000000006064820152608401620000b0565b6001600160a01b038416620001855760405162461bcd60e51b815260206004820152602f60248201526000805160206200c36683398151915260448201526e696420636f6d70206164647265737360881b6064820152608401620000b0565b61168083101580156200019b575062013b008311155b620001f15760405162461bcd60e51b815260206004820152603060248201526000805160206200c36683398151915260448201526f1a59081d9bdd1a5b99c81c195c9a5bd960821b6064820152608401620000b0565b60018210158015620002055750619d808211155b6200025a5760405162461bcd60e51b815260206004820152602f60248201526000805160206200c36683398151915260448201526e696420766f74696e672064656c617960881b6064820152608401620000b0565b683635c9adc5dea0000081101580156200027e575069152d02c7e14af68000008111155b620002e15760405162461bcd60e51b815260206004820152603560248201526000805160206200c36683398151915260448201527f69642070726f706f73616c207468726573686f6c6400000000000000000000006064820152608401620000b0565b600880546001600160a01b038088166001600160a01b03199283161790925560098054928716929091169190911790556004839055600382905560058190556006805490600062000332836200040d565b919050555060405162000345906200038f565b604051809103906000f08015801562000362573d6000803e3d6000fd5b50601580546001600160a01b0319166001600160a01b039290921691909117905550620004359350505050565b616b4c806200581a83390190565b80516001600160a01b0381168114620003b557600080fd5b919050565b600080600080600060a08688031215620003d357600080fd5b620003de866200039d565b9450620003ee602087016200039d565b6040870151606088015160809098015196999198509695945092505050565b6000600182016200042e57634e487b7160e01b600052601160045260246000fd5b5060010190565b6153d580620004456000396000f3fe6080604052600436106103355760003560e01c80635c60da1b116101ab578063b71d1a0c116100f7578063e6ef101d11610095578063f873cb911161006f578063f873cb9114610bfa578063f9d28b8014610c0d578063fc4eee4214610c2d578063fc97027514610c4357600080fd5b8063e6ef101d14610ba5578063e9c714f214610bc5578063f851a44014610bda57600080fd5b8063da35c664116100d1578063da35c66414610a72578063deaaa7cc14610a88578063e23a9a5214610abc578063e48083fe14610b9057600080fd5b8063b71d1a0c14610a12578063c5a8425d14610a32578063d33219b414610a5257600080fd5b80639953336511610164578063a1cbf8aa1161013e578063a1cbf8aa1461098f578063a64e024a146109cf578063b1126263146109e6578063b58131b0146109fc57600080fd5b8063995333651461092f5780639ea459a21461094f578063a157de881461096f57600080fd5b80635c60da1b1461086357806371d8476814610883578063791f5d23146108a35780637bdbe4d0146108c05780637d1d20cd146108d55780638f24f0c21461090257600080fd5b80631dfb1b5a116102855780633932abb1116102235780634d6733d2116101fd5780634d6733d2146107ba5780634e07f059146107da5780634e1e5f9d146108135780634ea713271461083357600080fd5b80633932abb11461072f5780633af32abf146107455780633e4f49e61461078d57600080fd5b806324bc1a641161025f57806324bc1a64146106a657806325fd935a146106c457806326782247146106e257806338bd0dda1461070257600080fd5b80631dfb1b5a1461063c57806320606b701461065c578063215809ca1461069057600080fd5b806310720068116102f257806317977c61116102cc57806317977c61146105a257806317ba1b8b146105cf5780631957e87f146105ef5780631d128e4a1461061c57600080fd5b8063107200681461052a578063109d0af81461054a57806316ef82781461058257600080fd5b8063013cf08b1461033a57806302a251a31461044457806306fdde0314610468578063079a3930146104b75780630ea2d98c146104d9578063103ed8c0146104fb575b600080fd5b34801561034657600080fd5b506103d4610355366004614338565b600a60205260009081526040902080546001820154600283015460078401546008850154601586015460169096015494956001600160a01b039094169492939192909160ff808216926101008304821692620100008104831692630100000082048116926401000000008304821692650100000000009004909116908c565b604080519c8d526001600160a01b03909b1660208d0152998b019890985260608a0196909652608089019490945291151560a0880152151560c0870152151560e0860152151561010085015215156101208401521515610140830152610160820152610180015b60405180910390f35b34801561045057600080fd5b5061045a60045481565b60405190815260200161043b565b34801561047457600080fd5b506104aa604051806040016040528060168152602001755072697661746520476f7665726e6f7220427261766f60501b81525081565b60405161043b9190614397565b3480156104c357600080fd5b506104cc610c63565b60405161043b91906143d3565b3480156104e557600080fd5b506104f96104f4366004614338565b610ce1565b005b34801561050757600080fd5b5061051b610516366004614338565b610e1a565b60405161043b93929190614421565b34801561053657600080fd5b506104f9610545366004614508565b610f32565b34801561055657600080fd5b5060095461056a906001600160a01b031681565b6040516001600160a01b03909116815260200161043b565b34801561058e57600080fd5b506104f961059d36600461461a565b610f88565b3480156105ae57600080fd5b5061045a6105bd36600461470f565b600b6020526000908152604090205481565b3480156105db57600080fd5b506104f96105ea366004614338565b6115c8565b3480156105fb57600080fd5b5061045a61060a36600461470f565b600e6020526000908152604090205481565b34801561062857600080fd5b506104f96106373660046147cc565b611710565b34801561064857600080fd5b506104f9610657366004614338565b611cc9565b34801561066857600080fd5b5061045a7f8cad95687ba82c2ce50e74f7b754645e5117c3a5bec8151c0726d5857980a86681565b34801561069c57600080fd5b5061045a61168081565b3480156106b257600080fd5b5061045a6954b40b1f852bda00000081565b3480156106d057600080fd5b5061045a69152d02c7e14af680000081565b3480156106ee57600080fd5b5060015461056a906001600160a01b031681565b34801561070e57600080fd5b5061045a61071d36600461470f565b600c6020526000908152604090205481565b34801561073b57600080fd5b5061045a60035481565b34801561075157600080fd5b5061077d61076036600461470f565b6001600160a01b03166000908152600c6020526040902054421090565b604051901515815260200161043b565b34801561079957600080fd5b506107ad6107a8366004614338565b611df0565b60405161043b919061488c565b3480156107c657600080fd5b506104f96107d53660046148b4565b611f77565b3480156107e657600080fd5b5061077d6107f536600461470f565b6001600160a01b03166000908152600f602052604090205460ff1690565b34801561081f57600080fd5b506104f961082e3660046148de565b61205d565b34801561083f57600080fd5b5061077d61084e36600461470f565b600f6020526000908152604090205460ff1681565b34801561086f57600080fd5b5060025461056a906001600160a01b031681565b34801561088f57600080fd5b506104f961089e366004614973565b6124fa565b3480156108af57600080fd5b5061045a683635c9adc5dea0000081565b3480156108cc57600080fd5b5061045a600a81565b3480156108e157600080fd5b506108f56108f0366004614973565b6126e1565b60405161043b9190614995565b34801561090e57600080fd5b5061045a61091d36600461470f565b60106020526000908152604090205481565b34801561093b57600080fd5b506104f961094a36600461470f565b61283f565b34801561095b57600080fd5b506104f961096a3660046149a3565b61290c565b34801561097b57600080fd5b506104f961098a366004614ae5565b612fda565b34801561099b57600080fd5b506109af6109aa36600461470f565b61337e565b60408051948552602085019390935291830152606082015260800161043b565b3480156109db57600080fd5b5061045a62013b0081565b3480156109f257600080fd5b5061045a619d8081565b348015610a0857600080fd5b5061045a60055481565b348015610a1e57600080fd5b506104f9610a2d36600461470f565b613435565b348015610a3e57600080fd5b50600d5461056a906001600160a01b031681565b348015610a5e57600080fd5b5060085461056a906001600160a01b031681565b348015610a7e57600080fd5b5061045a60075481565b348015610a9457600080fd5b5061045a7f150214d74d59b7d1e90c73fc22ef3d991dd0a76b046543d4d80ab92d2a50328f81565b348015610ac857600080fd5b50610b5b610ad7366004614b95565b6040805160608101825260008082526020820181905291810191909152506000918252600a602090815260408084206001600160a01b0393909316845260179092018152918190208151606081018352905460ff8082161515835261010082041693820193909352620100009092046bffffffffffffffffffffffff169082015290565b6040805182511515815260208084015160ff1690820152918101516bffffffffffffffffffffffff169082015260600161043b565b348015610b9c57600080fd5b5061045a600181565b348015610bb157600080fd5b506104f9610bc0366004614bc1565b6134fc565b348015610bd157600080fd5b506104f96139bf565b348015610be657600080fd5b5060005461056a906001600160a01b031681565b6104f9610c08366004614338565b613ae9565b348015610c1957600080fd5b506104f9610c2836600461470f565b613c7f565b348015610c3957600080fd5b5061045a60065481565b348015610c4f57600080fd5b5061045a610c5e366004614de5565b613e1b565b60606011805480602002602001604051908101604052809291908181526020016000905b82821015610cd8576000848152602090206040805160808101918290529160048581029091019182845b815481526020019060010190808311610cb157505050505081526020019060010190610c87565b50505050905090565b6000546001600160a01b03163314610d545760405162461bcd60e51b815260206004820152602b60248201527f476f7665726e6f72427261766f3a3a5f736574566f74696e67506572696f643a60448201526a2061646d696e206f6e6c7960a81b60648201526084015b60405180910390fd5b6116808110158015610d69575062013b008111155b610dd45760405162461bcd60e51b815260206004820152603660248201527f476f7665726e6f72427261766f3a3a5f736574566f74696e67506572696f643a604482015275081a5b9d985b1a59081d9bdd1a5b99c81c195c9a5bd960521b6064820152608401610d4b565b600480549082905560408051828152602081018490527f7e3f7f0708a84de9203036abaa450dccc85ad5ff52f78c170f3edb55cf5e882891015b60405180910390a15050565b610e2261411d565b610e2a61411d565b610e3261411d565b600754841115610e7a5760405162461bcd60e51b8152602060048201526013602482015272125b9d985b1a59081c1c9bdc1bdcd85b081251606a1b6044820152606401610d4b565b6000848152600a602052604090819020815160808101928390526009820192600d8301926011019190849060049082845b815481526020019060010190808311610eab57505060408051608081019182905294975086935060049250905082845b815481526020019060010190808311610edb57505060408051608081019182905294965085935060049250905082845b815481526020019060010190808311610f0b57505050505090509250925092509193909250565b6013859055601484905560128390556040518390859087907f82f26d7def2526505498fb42645711a122d5f2a843b41862ef56b317543cc0a990610f799087908790614f01565b60405180910390a45050505050565b600954604051631293efbb60e21b81523360048201526001600160a01b0390911690634a4fbeec90602401602060405180830381865afa158015610fd0573d6000803e3d6000fd5b505050506040513d601f19601f82011682018060405250810190610ff49190614f2f565b6110665760405162461bcd60e51b815260206004820152603a60248201527f757365727320746f6b656e732061726520756e6c6f636b65642074686572652060448201527f6973206e6f20746f6b656e7320746f20756e64656c65676174650000000000006064820152608401610d4b565b6000611073836004614f67565b6001600160401b0381111561108a5761108a614453565b6040519080825280602002602001820160405280156110b3578160200160208202803683370190505b50905060005b6110c4846004614f67565b81101561110a578681815181106110dd576110dd614f7e565b60200260200101518282815181106110f7576110f7614f7e565b60209081029190910101526001016110b9565b508060405160200161111c9190614f94565b60408051601f198184030181529181528151602092830120336000908152600e9093529120541461117f5760405162461bcd60e51b815260206004820152600d60248201526c0d0c2e6d040dad2e6dac2e8c6d609b1b6044820152606401610d4b565b506000865160036111909190614f67565b6001600160401b038111156111a7576111a7614453565b6040519080825280602002602001820160405280156111d0578160200160208202803683370190505b5090506000805b885181101561122c578881815181106111f2576111f2614f7e565b602002602001015183838151811061120c5761120c614f7e565b6020908102919091010152611222600183614fcc565b91506001016111d7565b5060005b87518110156112855787818151811061124b5761124b614f7e565b602002602001015183838151811061126557611265614f7e565b602090810291909101015261127b600183614fcc565b9150600101611230565b5060005b86518110156112de578681815181106112a4576112a4614f7e565b60200260200101518383815181106112be576112be614f7e565b60209081029190910101526112d4600183614fcc565b9150600101611289565b5050600954604051630bdb124f60e21b81523360048201526001600160a01b039091169150632f6c493c906024016020604051808303816000875af115801561132b573d6000803e3d6000fd5b505050506040513d601f19601f8201168201806040525081019061134f9190614f2f565b6113ac5760405162461bcd60e51b815260206004820152602860248201527f757365727320746f6b656e7320646964206e6f74207375636365737366756c6c6044820152677920756e6c6f636b60c01b6064820152608401610d4b565b60005b83518110156114e55760006040518060800160405280878460046113d39190614f67565b815181106113e3576113e3614f7e565b60200260200101518152602001878460046113fe9190614f67565b611409906001614fcc565b8151811061141957611419614f7e565b60200260200101518152602001878460046114349190614f67565b61143f906002614fcc565b8151811061144f5761144f614f7e565b602002602001015181526020018784600461146a9190614f67565b611475906003614fcc565b8151811061148557611485614f7e565b602002602001015181525090508060118684815181106114a7576114a7614f7e565b6020026020010151815481106114bf576114bf614f7e565b90600052602060002090600402019060046114db92919061413b565b50506001016113af565b50836040516020016114f79190614f94565b60408051808303601f190181528282528051602091820120336000818152600e90935292909120819055600954631293efbb60e21b84526004840183905290927f3e89fa0d6e8d613787cae58219b89da908f557d62befc95c74dd561fae0a8cef916001600160a01b031690634a4fbeec90602401602060405180830381865afa158015611589573d6000803e3d6000fd5b505050506040513d601f19601f820116820180604052508101906115ad9190614f2f565b604051901515815260200160405180910390a3505050505050565b6000546001600160a01b0316331461163b5760405162461bcd60e51b815260206004820152603060248201527f476f7665726e6f72427261766f3a3a5f73657450726f706f73616c546872657360448201526f686f6c643a2061646d696e206f6e6c7960801b6064820152608401610d4b565b683635c9adc5dea00000811015801561165e575069152d02c7e14af68000008111155b6116d2576040805162461bcd60e51b81526020600482015260248101919091527f476f7665726e6f72427261766f3a3a5f73657450726f706f73616c546872657360448201527f686f6c643a20696e76616c69642070726f706f73616c207468726573686f6c646064820152608401610d4b565b600580549082905560408051828152602081018490527fccb45da8d5717e6c4544694297c4ba5cf151d455c9bb0ed4fc7a38411bc054619101610e0e565b6006546000036117325760405162461bcd60e51b8152600401610d4b90614fdf565b6000888152600a6020526040902060168101546117cd5760405162461bcd60e51b815260206004820152604d60248201527f5468657265206973206e6f7420612076616c696420736e617073686f7420666f60448201527f72207468697320656c656374696f6e2c206974206d6179206e6f74206861766560648201526c081899595b881cdd185c9d1959609a1b608482015260a401610d4b565b600954604051631293efbb60e21b81523360048201526001600160a01b0390911690634a4fbeec90602401602060405180830381865afa158015611815573d6000803e3d6000fd5b505050506040513d601f19601f820116820180604052508101906118399190614f2f565b6118855760405162461bcd60e51b815260206004820152601a60248201527f596f757220746f6b656e7320617265206e6f74206c6f636b65640000000000006044820152606401610d4b565b336000908152600f602052604090205460ff166118e45760405162461bcd60e51b815260206004820152601e60248201527f596f7520617265206e6f7420616e206163746976652064656c656761746500006044820152606401610d4b565b33600090815260178201602052604090205460ff16156119565760405162461bcd60e51b815260206004820152602760248201527f596f75206861766520616c726561647920766f74656420696e207468697320706044820152661c9bdc1bdcd85b60ca1b6064820152608401610d4b565b60028860ff16111561197a5760405162461bcd60e51b8152600401610d4b9061503c565b6000898152600a60205260409020600701544310156119db5760405162461bcd60e51b815260206004820152601860248201527f547279696e6720746f20766f746520746f6f206561726c7900000000000000006044820152606401610d4b565b6000898152600a6020526040902060080154431115611a3c5760405162461bcd60e51b815260206004820152601760248201527f547279696e6720746f20766f746520746f6f206c6174650000000000000000006044820152606401610d4b565b604080516022808252610460820190925260009160208201610440803683370190505090506000805b600c811015611ab7578881600c8110611a8057611a80614f7e565b6020020151838381518110611a9757611a97614f7e565b6020908102919091010152611aad600183614fcc565b9150600101611a65565b5086828281518110611acb57611acb614f7e565b6020908102919091010152611ae1600182614fcc565b905060005b6014811015611b3857868160148110611b0157611b01614f7e565b6020020151838381518110611b1857611b18614f7e565b6020908102919091010152611b2e600183614fcc565b9150600101611ae6565b5084828281518110611b4c57611b4c614f7e565b6020908102919091010152611b62600182614fcc565b336000908152601785016020526040808220805460ff8f166101000261ffff1990911617600117905580516080810190915291925090808a6008602002015181526020018a6009600c8110611bb957611bb9614f7e565b602002015181526020018a600a600c8110611bd657611bd6614f7e565b602002015181526020018a600b600c8110611bf357611bf3614f7e565b60200201519052905060ff8b16600003611c2a5760008c8152600a60205260409020611c249060090182600461413b565b50611c7c565b8a60ff16600103611c525760008c8152600a60205260409020611c2490600d0182600461413b565b8a60ff16600203611c7c5760008c8152600a60205260409020611c7a9060110182600461413b565b505b7f19e9e38186438a39d1cd3c71141be3f5f021a7be954ffe6fd40434ba71a4a3e58c338d8d85604051611cb395949392919061508a565b60405180910390a1505050505050505050505050565b6000546001600160a01b03163314611d365760405162461bcd60e51b815260206004820152602a60248201527f476f7665726e6f72427261766f3a3a5f736574566f74696e6744656c61793a2060448201526961646d696e206f6e6c7960b01b6064820152608401610d4b565b60018110158015611d495750619d808111155b611db25760405162461bcd60e51b815260206004820152603460248201527f476f7665726e6f72427261766f3a3a5f736574566f74696e6744656c61793a20604482015273696e76616c696420766f74696e672064656c617960601b6064820152608401610d4b565b600380549082905560408051828152602081018490527fc565b045403dc03c2eea82b81a0465edad9e2e7fc4d97e11421c209da93d7a939101610e0e565b60008160075410158015611e0657506006548210155b611e645760405162461bcd60e51b815260206004820152602960248201527f476f7665726e6f72427261766f3a3a73746174653a20696e76616c69642070726044820152681bdc1bdcd85b081a5960ba1b6064820152608401610d4b565b6000828152600a60205260409020601581015460ff1615611e885750600492915050565b8060070154431015611e9d5750600092915050565b806008015443108015611ebb5750601581015462010000900460ff16155b15611ec95750600192915050565b806008015443108015611ee65750601581015462010000900460ff165b15611ef45750600292915050565b60158101546301000000900460ff16611f105750600392915050565b6015810154610100900460ff1615611f2b5750600992915050565b601581015465010000000000900460ff1615611f4a5750600792915050565b6015810154640100000000900460ff1615611f685750600692915050565b50600592915050565b50919050565b6000546001600160a01b0316331480611f9a5750600d546001600160a01b031633145b61200c5760405162461bcd60e51b815260206004820152603960248201527f476f7665726e6f72427261766f3a3a5f73657457686974656c6973744163636f60448201527f756e7445787069726174696f6e3a2061646d696e206f6e6c79000000000000006064820152608401610d4b565b6001600160a01b0382166000818152600c6020908152604091829020849055815192835282018390527f4e7b7545bc5744d0e30425959f4687475774b6c7edad77d24cb51c7d967d45159101610e0e565b336000908152600f602052604090205460ff166120d95760405162461bcd60e51b815260206004820152603460248201527f75736572206973206e6f7420616e206163746976652064656c656761746520736044820152736f2063616e206e6f7420756e64656c656761746560601b6064820152608401610d4b565b600954604051631293efbb60e21b81523360048201526001600160a01b0390911690634a4fbeec90602401602060405180830381865afa158015612121573d6000803e3d6000fd5b505050506040513d601f19601f820116820180604052508101906121459190614f2f565b6121a65760405162461bcd60e51b815260206004820152602c60248201527f757365727320746f6b656e732061726520756e6c6f636b65642063616e206e6f60448201526b7420756e64656c656761746560a01b6064820152608401610d4b565b6040805160098082526101408201909252600091602082016101208036833701905050905089816000815181106121df576121df614f7e565b60200260200101818152505088816001815181106121ff576121ff614f7e565b602002602001018181525050878160028151811061221f5761221f614f7e565b602002602001018181525050868160038151811061223f5761223f614f7e565b6020026020010181815250508a8160048151811061225f5761225f614f7e565b602002602001018181525050858160058151811061227f5761227f614f7e565b602002602001018181525050848160068151811061229f5761229f614f7e565b60200260200101818152505083816007815181106122bf576122bf614f7e565b60200260200101818152505082816008815181106122df576122df614f7e565b602090810291909101810191909152336000908152600f82526040808220805460ff1916905560109092529081205461231a906001906150d8565b90506040518060800160405280888152602001878152602001868152602001858152506011828154811061235057612350614f7e565b906000526020600020906004020190600461236c92919061413b565b50600954604051630bdb124f60e21b81523360048201526001600160a01b0390911690632f6c493c906024016020604051808303816000875af11580156123b7573d6000803e3d6000fd5b505050506040513d601f19601f820116820180604052508101906123db9190614f2f565b6124205760405162461bcd60e51b8152602060048201526016602482015275746f6b656e20636f756c64206e6f7420756e6c6f636b60501b6044820152606401610d4b565b600954604051631293efbb60e21b81523360048201819052917f6e0296b5ece6ca27e264fdb77bec463103567b5f977d5dee1df75b6b695560e5916001600160a01b0390911690634a4fbeec90602401602060405180830381865afa15801561248d573d6000803e3d6000fd5b505050506040513d601f19601f820116820180604052508101906124b19190614f2f565b336000908152600f6020908152604091829020548251931515845260ff1615159083015281018f90526060810184905260800160405180910390a2505050505050505050505050565b60065460000361251c5760405162461bcd60e51b8152600401610d4b90614fdf565b6000828152600a60205260409020600101546001600160a01b031633146125a05760405162461bcd60e51b815260206004820152603260248201527f596f7520617265206e6f7420746865206f726967696e616c2070726f706f73656044820152711c881bd9881d1a1a5cc81c1c9bdc1bdcd85b60721b6064820152608401610d4b565b6000828152600a602052604090206007015443101561260c5760405162461bcd60e51b815260206004820152602260248201527f547279696e6720746f20737461727420656c656374696f6e20746f6f206561726044820152616c7960f01b6064820152608401610d4b565b6000828152600a60205260409020600801544311156126775760405162461bcd60e51b815260206004820152602160248201527f547279696e6720746f20737461727420656c656374696f6e20746f6f206c61746044820152606560f81b6064820152608401610d4b565b6000828152600a60205260409081902060168101839055601501805462ff0000191662010000179055518190339084907f96aec36079bdd98acd3d106b267644df627cb82734e07a6d41b405f46658c77f906126d5906011906150eb565b60405180910390a45050565b6126e961411d565b6007548211156127315760405162461bcd60e51b8152602060048201526013602482015272125b9d985b1a59081c1c9bdc1bdcd85b081251606a1b6044820152606401610d4b565b60028311156127525760405162461bcd60e51b8152600401610d4b9061503c565b826000036127a1576000828152600a60205260409081902081516080810190925260090160048282826020028201915b8154815260200190600101908083116127825750505050509050612839565b826001036127ef576000828152600a602052604090819020815160808101909252600d0160048282826020028201918154815260200190600101908083116127825750505050509050612839565b82600203612839576000828152600a602052604090819020815160808101909252601101600482828260200282019181548152602001906001019080831161278257505050505090505b92915050565b6000546001600160a01b031633146128b25760405162461bcd60e51b815260206004820152603060248201527f476f7665726e6f72427261766f3a3a5f73657457686974656c6973744775617260448201526f6469616e3a2061646d696e206f6e6c7960801b6064820152608401610d4b565b600d80546001600160a01b038381166001600160a01b031983168117909355604080519190921680825260208201939093527f80a07e73e552148844a9c216d9724212d609cfa54e9c1a2e97203bdd2c4ad3419101610e0e565b600954604051631293efbb60e21b81523360048201526001600160a01b0390911690634a4fbeec90602401602060405180830381865afa158015612954573d6000803e3d6000fd5b505050506040513d601f19601f820116820180604052508101906129789190614f2f565b156129e05760405162461bcd60e51b815260206004820152603260248201527f757365727320746f6b656e7320617265206c6f636b65642063616e206e6f742060448201527164656c656761746520796f757220766f746560701b6064820152608401610d4b565b885160006129ef82600e614f67565b6129fa906018614fcc565b6001600160401b03811115612a1157612a11614453565b604051908082528060200260200182016040528015612a3a578160200160208202803683370190505b50905060135481600081518110612a5357612a53614f7e565b60200260200101818152505060145481600181518110612a7557612a75614f7e565b6020908102919091010152600260005b8d51811015612ada578d8181518110612aa057612aa0614f7e565b6020026020010151838381518110612aba57612aba614f7e565b6020908102919091010152612ad0600183614fcc565b9150600101612a85565b5060005b8c51811015612b33578c8181518110612af957612af9614f7e565b6020026020010151838381518110612b1357612b13614f7e565b6020908102919091010152612b29600183614fcc565b9150600101612ade565b5060005b8b51811015612b8c578b8181518110612b5257612b52614f7e565b6020026020010151838381518110612b6c57612b6c614f7e565b6020908102919091010152612b82600183614fcc565b9150600101612b37565b5089828281518110612ba057612ba0614f7e565b6020908102919091010152612bb6600182614fcc565b905060005b8951811015612c1057898181518110612bd657612bd6614f7e565b6020026020010151838381518110612bf057612bf0614f7e565b6020908102919091010152612c06600183614fcc565b9150600101612bbb565b5087828281518110612c2457612c24614f7e565b6020908102919091010152612c3a600182614fcc565b905060005b8751811015612c9457878181518110612c5a57612c5a614f7e565b6020026020010151838381518110612c7457612c74614f7e565b6020908102919091010152612c8a600183614fcc565b9150600101612c3f565b5060005b8651811015612ced57868181518110612cb357612cb3614f7e565b6020026020010151838381518110612ccd57612ccd614f7e565b6020908102919091010152612ce3600183614fcc565b9150600101612c98565b505060095460405163f435f5a760e01b81523360048201526001600160a01b03909116925063f435f5a791506024016020604051808303816000875af1158015612d3b573d6000803e3d6000fd5b505050506040513d601f19601f82011682018060405250810190612d5f9190614f2f565b612dba5760405162461bcd60e51b815260206004820152602660248201527f757365727320746f6b656e7320646964206e6f74207375636365737366756c6c60448201526579206c6f636b60d01b6064820152608401610d4b565b60005b8251811015612ef3576000604051806080016040528086846004612de19190614f67565b81518110612df157612df1614f7e565b6020026020010151815260200186846004612e0c9190614f67565b612e17906001614fcc565b81518110612e2757612e27614f7e565b6020026020010151815260200186846004612e429190614f67565b612e4d906002614fcc565b81518110612e5d57612e5d614f7e565b6020026020010151815260200186846004612e789190614f67565b612e83906003614fcc565b81518110612e9357612e93614f7e565b60200260200101518152509050806011858481518110612eb557612eb5614f7e565b602002602001015181548110612ecd57612ecd614f7e565b9060005260206000209060040201906004612ee992919061413b565b5050600101612dbd565b5089604051602001612f059190614f94565b60408051808303601f190181528282528051602091820120336000818152600e90935292909120819055600954631293efbb60e21b84526004840183905290927f07baef4809c09f300171a351f404fcb0b671bd480bd0d66ad33ca0c1dc64ed7c916001600160a01b031690634a4fbeec90602401602060405180830381865afa158015612f97573d6000803e3d6000fd5b505050506040513d601f19601f82011682018060405250810190612fbb9190614f2f565b604051901515815260200160405180910390a350505050505050505050565b6000838152600a60205260409020600881015443101561303c5760405162461bcd60e51b815260206004820152601960248201527f656c656374696f6e20686173206e6f742066696e6973686564000000000000006044820152606401610d4b565b604080516011808252610240820190925260009160208201610220803683370190505090506013548160008151811061307757613077614f7e565b6020026020010181815250506014548160018151811061309957613099614f7e565b60209081029190910101526009820160000154816002815181106130bf576130bf614f7e565b60209081029190910101526009820160010154816003815181106130e5576130e5614f7e565b602090810291909101015260098201600201548160048151811061310b5761310b614f7e565b602090810291909101015260098201600301548160058151811061313157613131614f7e565b6020908102919091010152600d8201600001548160068151811061315757613157614f7e565b6020908102919091010152600d8201600101548160078151811061317d5761317d614f7e565b6020908102919091010152600d820160020154816008815181106131a3576131a3614f7e565b6020908102919091010152600d820160030154816009815181106131c9576131c9614f7e565b6020908102919091010152601182016000015481600a815181106131ef576131ef614f7e565b6020908102919091010152601182016001015481600b8151811061321557613215614f7e565b6020908102919091010152601182016002015481600c8151811061323b5761323b614f7e565b6020908102919091010152601182016003015481600d8151811061326157613261614f7e565b6020908102919091010152835181518290600e90811061328357613283614f7e565b6020908102919091010152836001602002015181600f815181106132a9576132a9614f7e565b60209081029190910101528360026020020151816010815181106132cf576132cf614f7e565b60209081029190910181019190915260158301805463ff000000191663010000001790558401518451111561331a5760158201805464ff00000000191664010000000017905561332b565b60158201805464ff00000000191690555b835160208086015160408088015181519485529284019190915282015285907fb595321ee52e57d8d5e40ea2bfa82b529cef1aac857ad502ae3f0b11d977b9ed9060600160405180910390a25050505050565b6001600160a01b0381166000908152601060205260408120548190819081908160116133ab6001846150d8565b815481106133bb576133bb614f7e565b60009182526020909120604080516080810191829052926004908102909201919082845b8154815260200190600101908083116133df57505050505090508060006004811061340c5761340c614f7e565b602090810291909101519082015160408301516060909301519199909850919650945092505050565b6000546001600160a01b031633146134a25760405162461bcd60e51b815260206004820152602a60248201527f476f7665726e6f72427261766f3a5f73657450656e64696e6741646d696e3a2060448201526961646d696e206f6e6c7960b01b6064820152608401610d4b565b600180546001600160a01b038381166001600160a01b031983168117909355604080519190921680825260208201939093527fca4f2f25d0898edd99413412fb94012f9e54ec8142f9b093e7720646a95b16a99101610e0e565b336000908152600f602052604090205460ff161561355c5760405162461bcd60e51b815260206004820152601f60248201527f7573657220616c726561647920616e206163746976652064656c6567617465006044820152606401610d4b565b600954604051631293efbb60e21b81523360048201526001600160a01b0390911690634a4fbeec90602401602060405180830381865afa1580156135a4573d6000803e3d6000fd5b505050506040513d601f19601f820116820180604052508101906135c89190614f2f565b1561361f5760405162461bcd60e51b815260206004820152602160248201527f757365727320746f6b656e73206172652063757272656e746c79206c6f636b656044820152601960fa1b6064820152608401610d4b565b604080516008808252610120820190925260009160208201610100803683370190505090506013548160008151811061365a5761365a614f7e565b6020026020010181815250506014548160018151811061367c5761367c614f7e565b602002602001018181525050868160028151811061369c5761369c614f7e565b6020026020010181815250506000801b816003815181106136bf576136bf614f7e565b60200260200101818152505085816004815181106136df576136df614f7e565b60200260200101818152505084816005815181106136ff576136ff614f7e565b602002602001018181525050838160068151811061371f5761371f614f7e565b602002602001018181525050828160078151811061373f5761373f614f7e565b602090810291909101810191909152336000908152600f82526040808220805460ff19166001179055601090925290812054900361379657601154613785906001614fcc565b336000908152601060205260409020555b336000908152601060205260408120546137b2906001906150d8565b601154909150810361382657604080516080810182528881526020810188905290810186905260608101859052601180546001810182556000919091526138209160049182027f31ecc21a745e3968a04e9570e4425bc18fa8019c68028196b546d1669c200c68019161413b565b50613878565b6040518060800160405280888152602001878152602001868152602001858152506011828154811061385a5761385a614f7e565b906000526020600020906004020190600461387692919061413b565b505b60095460405163f435f5a760e01b81523360048201526001600160a01b039091169063f435f5a7906024016020604051808303816000875af11580156138c2573d6000803e3d6000fd5b505050506040513d601f19601f820116820180604052508101906138e69190614f2f565b6138ef57600080fd5b600954604051631293efbb60e21b81523360048201819052839290917f2d3ebdb70e42a6f5a47ab392976dcbde9a767df86ebe054a322112abde24cb68916001600160a01b031690634a4fbeec90602401602060405180830381865afa15801561395d573d6000803e3d6000fd5b505050506040513d601f19601f820116820180604052508101906139819190614f2f565b336000908152600f6020908152604091829020548251931515845260ff1615159083015281018c905260600160405180910390a35050505050505050565b6001546001600160a01b0316331480156139d857503315155b613a3b5760405162461bcd60e51b815260206004820152602e60248201527f476f7665726e6f72427261766f3a5f61636365707441646d696e3a2070656e6460448201526d696e672061646d696e206f6e6c7960901b6064820152608401610d4b565b60008054600180546001600160a01b038082166001600160a01b031980861682179096559490911690915560408051919092168082526020820184905292917ff9ffabca9c8276e99321725bcb43fb076a6c66a54b7f21c4e8146d8519b417dc910160405180910390a1600154604080516001600160a01b03808516825290921660208301527fca4f2f25d0898edd99413412fb94012f9e54ec8142f9b093e7720646a95b16a99101610e0e565b6000818152600a602052604081206003810180549192918291908290613b1157613b11614f7e565b60009182526020822001546004850180546001600160a01b03909216929091613b3c57613b3c614f7e565b906000526020600020015484600601600081548110613b5d57613b5d614f7e565b90600052602060002001604051613b749190615195565b60006040518083038185875af1925050503d8060008114613bb1576040519150601f19603f3d011682016040523d82523d6000602084013e613bb6565b606091505b509150915081613c2e5760405162461bcd60e51b815260206004820152603960248201527f457865633a3a657865637574655472616e73616374696f6e3a205472616e736160448201527f6374696f6e20657865637574696f6e2072657665727465642e000000000000006064820152608401610d4b565b60158301805461ff0019166101001790556040517f712ae1383f79ac853f8d882153778e0260ef8f03b504e2866e0593e04d2b291f90613c719086815260200190565b60405180910390a150505050565b6000546001600160a01b03163314613ce55760405162461bcd60e51b8152602060048201526024808201527f476f7665726e6f72427261766f3a3a5f696e6974696174653a2061646d696e206044820152636f6e6c7960e01b6064820152608401610d4b565b60065415613d4e5760405162461bcd60e51b815260206004820152603060248201527f476f7665726e6f72427261766f3a3a5f696e6974696174653a2063616e206f6e60448201526f6c7920696e697469617465206f6e636560801b6064820152608401610d4b565b806001600160a01b031663da35c6646040518163ffffffff1660e01b81526004016020604051808303816000875af1158015613d8e573d6000803e3d6000fd5b505050506040513d601f19601f82011682018060405250810190613db2919061520b565b600781905560065560085460408051630e18b68160e01b815290516001600160a01b0390921691630e18b6819160048082019260009290919082900301818387803b158015613e0057600080fd5b505af1158015613e14573d6000803e3d6000fd5b5050505050565b6000600654600003613e3f5760405162461bcd60e51b8152600401610d4b90614fdf565b6000613e4b43856140c3565b90506000613e5982856140c3565b600780549192506000613e6b83615224565b90915550506007546000818152600a60205260409020805415613ee65760405162461bcd60e51b815260206004820152602d60248201527f476f7665726e6f72427261766f3a3a70726f706f73653a20546869732069642060448201526c1a185cc81899595b881d5cd959609a1b6064820152608401610d4b565b818160000181905550338160010160006101000a8154816001600160a01b0302191690836001600160a01b03160217905550600081600201819055508d816003019080519060200190613f3a929190614179565b508c816004019080519060200190613f539291906141ce565b508b51613f6990600583019060208f0190614208565b508a51613f7f90600683019060208e019061425a565b506007810184905560088101839055613f9d6009820189600461413b565b50613fad600d820189600461413b565b50613fbd6011820189600461413b565b5060008160150160006101000a81548160ff02191690831515021790555060008160150160016101000a81548160ff02191690831515021790555060008160150160026101000a81548160ff02191690831515021790555060008160150160036101000a81548160ff02191690831515021790555060008160150160046101000a81548160ff02191690831515021790555060008160150160056101000a81548160ff0219169083151502179055507fc30a05cc579f435ce93c79a9a9eda1ac23b98133c03fb6fe985f8831399ec5b481600001543386868d8f6040516140a99695949392919061523d565b60405180910390a1549d9c50505050505050505050505050565b6000806140d08385614fcc565b9050838110156141165760405162461bcd60e51b81526020600482015260116024820152706164646974696f6e206f766572666c6f7760781b6044820152606401610d4b565b9392505050565b60405180608001604052806004906020820280368337509192915050565b8260048101928215614169579160200282015b8281111561416957825182559160200191906001019061414e565b506141759291506142ac565b5090565b828054828255906000526020600020908101928215614169579160200282015b8281111561416957825182546001600160a01b0319166001600160a01b03909116178255602090920191600190910190614199565b828054828255906000526020600020908101928215614169579160200282018281111561416957825182559160200191906001019061414e565b82805482825590600052602060002090810192821561424e579160200282015b8281111561424e578251829061423e90826152e0565b5091602001919060010190614228565b506141759291506142c1565b8280548282559060005260206000209081019282156142a0579160200282015b828111156142a0578251829061429090826152e0565b509160200191906001019061427a565b506141759291506142de565b5b8082111561417557600081556001016142ad565b808211156141755760006142d582826142fb565b506001016142c1565b808211156141755760006142f282826142fb565b506001016142de565b50805461430790615161565b6000825580601f10614317575050565b601f01602090049060005260206000209081019061433591906142ac565b50565b60006020828403121561434a57600080fd5b5035919050565b6000815180845260005b818110156143775760208185018101518683018201520161435b565b506000602082860101526020601f19601f83011685010191505092915050565b6020815260006141166020830184614351565b8060005b60048110156143cd5781518452602093840193909101906001016143ae565b50505050565b6020808252825182820181905260009190848201906040850190845b81811015614415576144028385516143aa565b92840192608092909201916001016143ef565b50909695505050505050565b610180810161443082866143aa565b61443d60808301856143aa565b61444b6101008301846143aa565b949350505050565b634e487b7160e01b600052604160045260246000fd5b604051601f8201601f191681016001600160401b038111828210171561449157614491614453565b604052919050565b600082601f8301126144aa57600080fd5b81356001600160401b038111156144c3576144c3614453565b6144d6601f8201601f1916602001614469565b8181528460208386010111156144eb57600080fd5b816020850160208301376000918101602001919091529392505050565b600080600080600060a0868803121561452057600080fd5b85359450602086013593506040860135925060608601356001600160401b038082111561454c57600080fd5b61455889838a01614499565b9350608088013591508082111561456e57600080fd5b5061457b88828901614499565b9150509295509295909350565b60006001600160401b038211156145a1576145a1614453565b5060051b60200190565b600082601f8301126145bc57600080fd5b813560206145d16145cc83614588565b614469565b8083825260208201915060208460051b8701019350868411156145f357600080fd5b602086015b8481101561460f57803583529183019183016145f8565b509695505050505050565b60008060008060008060c0878903121561463357600080fd5b86356001600160401b038082111561464a57600080fd5b6146568a838b016145ab565b9750602089013591508082111561466c57600080fd5b6146788a838b016145ab565b9650604089013591508082111561468e57600080fd5b61469a8a838b016145ab565b955060608901359150808211156146b057600080fd5b6146bc8a838b016145ab565b94506080890135935060a08901359150808211156146d957600080fd5b506146e689828a01614499565b9150509295509295509295565b80356001600160a01b038116811461470a57600080fd5b919050565b60006020828403121561472157600080fd5b614116826146f3565b600082601f83011261473b57600080fd5b6040516101808082018281106001600160401b038211171561475f5761475f614453565b6040528301818582111561477257600080fd5b845b8281101561478c578035825260209182019101614774565b509195945050505050565b600082601f8301126147a857600080fd5b6040516102808082018281106001600160401b038211171561475f5761475f614453565b6000806000806000806000806104c0898b0312156147e957600080fd5b88359750602089013560ff8116811461480157600080fd5b965060408901356001600160401b038082111561481d57600080fd5b6148298c838d01614499565b97506148388c60608d0161472a565b96506101e08b013595506148508c6102008d01614797565b94506104808b013593506104a08b013591508082111561486f57600080fd5b5061487c8b828c01614499565b9150509295985092959890939650565b60208101600a83106148ae57634e487b7160e01b600052602160045260246000fd5b91905290565b600080604083850312156148c757600080fd5b6148d0836146f3565b946020939093013593505050565b6000806000806000806000806000806101408b8d0312156148fe57600080fd5b8a35995060208b0135985060408b0135975060608b0135965060808b0135955060a08b0135945060c08b0135935060e08b013592506101008b013591506101208b01356001600160401b0381111561495557600080fd5b6149618d828e01614499565b9150509295989b9194979a5092959850565b6000806040838503121561498657600080fd5b50508035926020909101359150565b6080810161283982846143aa565b6000806000806000806000806000806101408b8d0312156149c357600080fd5b8a356001600160401b03808211156149da57600080fd5b6149e68e838f016145ab565b9b5060208d01359150808211156149fc57600080fd5b614a088e838f016145ab565b9a5060408d0135915080821115614a1e57600080fd5b614a2a8e838f016145ab565b995060608d0135985060808d0135915080821115614a4757600080fd5b614a538e838f016145ab565b975060a08d0135965060c08d0135915080821115614a7057600080fd5b614a7c8e838f016145ab565b955060e08d0135915080821115614a9257600080fd5b614a9e8e838f016145ab565b94506101008d0135915080821115614ab557600080fd5b614ac18e838f016145ab565b93506101208d0135915080821115614ad857600080fd5b506149618d828e01614499565b600080600060a08486031215614afa57600080fd5b83359250602085603f860112614b0f57600080fd5b604051606081016001600160401b038282108183111715614b3257614b32614453565b816040528291506080880189811115614b4a57600080fd5b602089015b81811015614b665780358452928501928501614b4f565b50839650803594505080841115614b7c57600080fd5b505050614b8b86828701614499565b9150509250925092565b60008060408385031215614ba857600080fd5b82359150614bb8602084016146f3565b90509250929050565b60008060008060008060c08789031215614bda57600080fd5b863595506020870135945060408701359350606087013592506080870135915060a08701356001600160401b03811115614c1357600080fd5b6146e689828a01614499565b600082601f830112614c3057600080fd5b81356020614c406145cc83614588565b8083825260208201915060208460051b870101935086841115614c6257600080fd5b602086015b8481101561460f57614c78816146f3565b8352918301918301614c67565b600082601f830112614c9657600080fd5b81356020614ca66145cc83614588565b82815260059290921b84018101918181019086841115614cc557600080fd5b8286015b8481101561460f5780356001600160401b03811115614ce85760008081fd5b614cf68986838b0101614499565b845250918301918301614cc9565b600082601f830112614d1557600080fd5b81356020614d256145cc83614588565b82815260059290921b84018101918181019086841115614d4457600080fd5b8286015b8481101561460f5780356001600160401b03811115614d675760008081fd5b614d758986838b0101614499565b845250918301918301614d48565b600082601f830112614d9457600080fd5b604051608081018181106001600160401b0382111715614db657614db6614453565b604052806080840185811115614dcb57600080fd5b845b8181101561478c578035835260209283019201614dcd565b60008060008060008060008060006101808a8c031215614e0457600080fd5b89356001600160401b0380821115614e1b57600080fd5b614e278d838e01614c1f565b9a5060208c0135915080821115614e3d57600080fd5b614e498d838e016145ab565b995060408c0135915080821115614e5f57600080fd5b614e6b8d838e01614c85565b985060608c0135915080821115614e8157600080fd5b614e8d8d838e01614d04565b975060808c0135915080821115614ea357600080fd5b614eaf8d838e01614499565b965060a08c0135915080821115614ec557600080fd5b50614ed28c828d01614499565b945050614ee28b60c08c01614d83565b92506101408a013591506101608a013590509295985092959850929598565b604081526000614f146040830185614351565b8281036020840152614f268185614351565b95945050505050565b600060208284031215614f4157600080fd5b8151801515811461411657600080fd5b634e487b7160e01b600052601160045260246000fd5b808202811582820484141761283957612839614f51565b634e487b7160e01b600052603260045260246000fd5b6020808252825182820181905260009190848201906040850190845b8181101561441557835183529284019291840191600101614fb0565b8082018082111561283957612839614f51565b60208082526039908201527f476f7665726e6f72427261766f3a3a70726f706f73653a20476f7665726e6f7260408201527f20427261766f2070726976617465206e6f742061637469766500000000000000606082015260800190565b6020808252602e908201527f766f7465732076616c7565206d75737420626520302c312c206f72203220746860408201526d329034b7383aba1034b9901f101960911b606082015260800190565b8581526001600160a01b038516602082015260ff84166040820152610100606082018190526000906150be83820186614351565b9150506150ce60808301846143aa565b9695505050505050565b8181038181111561283957612839614f51565b60006020808301602084528085548083526040860191506000925086600052602060002060005b82811015615154578382865b600481101561513b5781548352918801916001918201910161511e565b5050506080939093019260049190910190600101615112565b5091979650505050505050565b600181811c9082168061517557607f821691505b602082108103611f7157634e487b7160e01b600052602260045260246000fd5b60008083546151a381615161565b600182811680156151bb57600181146151d0576151ff565b60ff19841687528215158302870194506151ff565b8760005260208060002060005b858110156151f65781548a8201529084019082016151dd565b50505082870194505b50929695505050505050565b60006020828403121561521d57600080fd5b5051919050565b60006001820161523657615236614f51565b5060010190565b86815260018060a01b038616602082015284604082015283606082015260c06080820152600061527060c0830185614351565b82810360a08401526152828185614351565b9998505050505050505050565b601f8211156152db576000816000526020600020601f850160051c810160208610156152b85750805b601f850160051c820191505b818110156152d7578281556001016152c4565b5050505b505050565b81516001600160401b038111156152f9576152f9614453565b61530d816153078454615161565b8461528f565b602080601f831160018114615342576000841561532a5750858301515b600019600386901b1c1916600185901b1785556152d7565b600085815260208120601f198616915b8281101561537157888601518255948401946001909101908401615352565b508582101561538f5787850151600019600388901b60f8161c191681555b5050505050600190811b0190555056fea264697066735822122060079717726e10aab4935e2b5b21063da021e48343cfa417740878117c3e58da64736f6c63430008170033608060405234801561001057600080fd5b50616b2b80620000216000396000f3fe608060405234801561001057600080fd5b506004361061009e5760003560e01c806378736c941161006657806378736c941461016d578063af08f4ff14610193578063d12b1056146101b9578063d169b579146101df578063ef4132391461020557600080fd5b806345eeb582146100a357806349663c13146100d85780635b24341c146100fe5780636378d2c814610124578063746581c51461014a575b600080fd5b7fc1aa592abd01596e23127c6587f61f08e583db51f95f3cd2d930c0ca7bcefc855b6040519081526020015b60405180910390f35b7f0965cc1a70f8b0d99b6d4933c5fdf9e4ddf209910793f6dc2a2d2caf2f0b94346100c5565b7fd3827a634416580403deb305dba4735a321db3a2addb2a2639a4c1388f074db66100c5565b7ffe32a2a0735be3695189063bca11bda34612498dbeef300329d2779b8b70b9756100c5565b61015d610158366004616959565b61022b565b60405190151581526020016100cf565b7f83c43649c6d52531bab91160778948cc4679cee3a45ea93bfc513776801e21596100c5565b7ff661f10a02a46bd566585e0fe9fad36fdd4dd3fe6486fc4318ca462bde0499336100c5565b7fadd83e8b43220b9a27318831369346f94099bd877a6c4d1f97bdeebf08ac98f36100c5565b7fa88c2874e3d2898f66c97f30f093ad46d9528b2fc67053f8e0c3bfdc114c6aff6100c5565b7f5214dbd5dfc3aeeb1dfbd7d554f69788aad5f5301103dd7cc78705239cb0a59a6100c5565b60008160ff166002036109955762080000610380526101306103a0527f2260e724844bca5251829353968e4915305258418357473a5c1d597f613f6cbd6103c0527f3064486657634403844b0eac78ca882cfd284341fcb0615a15cfcd17b14d82016103e0527f2c6685248b7a1f5eaa2bc0ae57450ff8f1cd9ea15a3590d0990febc33ad085ae610400527f0d7f0bcbaee88426391da88d633d3eff21f7e7956c972dffa8df2eabb12cef78610420527f1a56eb7f2609ad7d5d3a105fa4aa8ff5b93d75d0aeb0b531b39a63e11520cc27610440527f20fb33f1de27833d11b82a76ff832392ec11f47c445b3211e9ba9e070ef07272610460527f1d9064b80aeffdabc6598c57e68f340448f603baa830a824016bf6733f17a020610480527f21915d92b520f838642da95d0c026adedf08b30ce2c3b59ec69c9451150e8b7c6104a0527f0982fbf779d405b37c5c3ff61d938388fd26b1d4a9b30399deba97acc0fe80656104c0527f17acf6728bc954c3ea853da13fa99993c608b392f65c6428fa5ca949eb3469e26104e0527f08f66e1d74798dc7d5788af26c5168ef695fba3bac05e911bcddc1969d4df377610500527f233750a5d955d4f936ad6ba65867e468144fb98480e9153bef19b104ca56afc7610520527f1a8b7b8f702c53073662d0d43bb5a8de6df1f8127755ebe8d6ddd6f868c078f8610540527f2042eeb5fb1742be51bfbf098cce241b3790c9e42170dd9da651bafffe9981a2610560527f10bcf9046d598b313fdd66a248bdf4e03153f62c07a9b55ea47ec55941910f61610580527f048b5a7d7ea06363d2d73486f9ef8b2123cb6c89a4329e30bdecdaecae2197326105a0527f1b8766f07bb622a4c9267404ad44647aedb08462dc7a4e21315ed235ff81d92c6105c0527f1e9dfd842a09db8ae0e5fa0ab6a171269ab4c67f59426eb529ff683b8514a4c46105e0527f0346eb76deee9a3ae7b350f402a778b1d6d269fccd2036db0ec5fe39439b1e9a610600527f12b9c69aa4d51eb3920484e5f218388542023c239f7cb66db4175af241497622610620527f1a78811645b84bbd89672882483e957625cf3aec430bbb2096c060a3b45fe470610640527f1e083a3d76abacbf139701a1d2fc905090056fde016569cfb325b37e997c6845610660527f1d22cf039bd009baccd63656c5f64dada51582744f4c14656a0b0fc6e2c2c932610680527f06bce0ecf34e3c6867146754d9895419d25f5d6cc8078f59aa0ca80af890d0996106a0527f2343f40e6a0cf56d41858be594d6f2b9c58ab2909f491a3f81eb6ea8c995a4a66106c0527f1806c0e4de863ae965e741f95ce231e26e05b1d2782276b31c3eda05de57cb836106e0527f099c343786345ee22c710af9544ffe631ea5b835759ba2df3e22be0bd01d49e3610700527f1d775bcd9df1b128c1cf332d27ecbcdfc9a4207d5303ad622c4b4a165427ec26610720527f04335f7d01e3b9f68489861c3e6c97c6e7b433f327242f5dc2d4a089f2dcc018610740527f2cf6e02fc1fe82bd4dcc86fd472154cc0d5cfe6f2ce41977c6c316af522b4d34610760527f2711b7375e2546141ab13ad0f74188540f350fc88fbde536885c9b38ce6f5d35610780527f0ac6469d0af0041582be60f35f6ff3a98bfaaf760544256ac851482d2e58acca6107a0527f2874300094cb0d4fdef7e486326d1138892d802c87c663aa1bde8dc3cf5bb1696107c0527f093666b9fcfac4a86f7f0b73d3722aa5bb18a731dcc33124b4b310d0c10af95e6107e0527f166a6b8cc0a396db510b10dadfb768df7823882fa46cdc86e907db0b83c87206610800527f208190016ccbce24c09556329ca349c180a442158cbe58abd483fd0b1e013f91610820527f054a8c6e1442f31e9520dd0645d1c7331e6b322e9e15304e5d97299b568174af610840527f0884f57f4a72c77ae7d75c4e59a04d8bc98644a5fdaf367c0c4f89026c56ad22610860527f16490fa24a57060ddf7b1fac4e9725d6b2c2d48afb7a20e986188b248f31b2ed610880527f2183b87b84a44df79a3f6880b6fc9d10d872eb158645065c2937b74bd69f16e96108a0527f01e5feaaae36dcd24c9c144cb6d41ae216ad8e833818be0f5ec14a3bac44890a6108c0527f28a7c924052c397a97ed260fbc5e0867da8a43a5414d45cbb8a619fe814d66b36108e0527f2a7a3d2263d163e14d8950a8eeabefbca1753c4d9a78d5ef7654bd984fbe71c5610900527f021a87c2e52a3ee9f24818f3f000b90d1cd445ef3bb751d52be2c25d4d88a53a610920527f2190141fd07edb806371eeb761d8a4683d329ed1636d614f8a7b2e6dbd731203610940527f1cfd20eac3ee55fc8fcc13e0fddf8fff2d6b5267573bb4fdf7f35206797d498f61096052600080516020616a7683398151915261098052600080516020616ab68339815191526109a05260006109c08190526109e052600080516020616a56833981519152610a0052600080516020616a96833981519152610a2052600080516020616a36833981519152610a4052600080516020616ad6833981519152610a60527f06e402c0a314fb67a15cf806664ae1b722dbc0efe66e6c81d98f9924ca5353216134005261454e565b8160ff166003036110fb576180006103805260086103a0527f2d1ba66f5941dc91017171fa69ec2bd0022a2a2d4115a009a93458fd4e26ecfb6103c0527f3063edaa444bddc677fcd515f614555a777997e0a9287d1e62bf6dd004d820016103e0527f1f3f9ddc538ddbf4c033ffd8b7cc0967b43882016c70fc1fd8e07d006dfaa773610400527f2f59e4ac28afeb6711cb713758c637a0b5bbc19e29e89db7251fa45819d492f8610420527f1c046fdb722a8c8f29fdba55addf8cddeeb3275e14b5431c52f8fff1d75600b2610440527f203c6906338f40b615df2c9d08d5bf931c41f731b53148cae03811efd4cd32d2610460527f1303504e76e0a0941ba6768f398f0111f41c337d91def9bfb6ec1f3d0c732deb610480527f0619feb7f05a4c71b402b82c95868d36d3b0877932473ad8f388b5c994706c2b6104a0527f2a1a4064bc6ef924bed1e22784c9d45441b37b332af09988d2f7be7c008be3556104c0527f29b121efdfb14341241f24629e5f0940311477193ffd0718d7fbf983920862f06104e0527f01318697ea52e73987f11e3c569406e20491bbb800438cda4ed121a3c1e4e9b2610500527f071a8569a6670c4cf76b1b22423e51c57e6a2292930f6ea3d8505d5ac533830f610520527f25a8418d50153aa05dc4f335d79cf2bea0dfb28ab6bcda9c7fd449997a24f17d610540527f01efee74f656dfea15d9d26f4403f086783fd66f5b4ff20ab49f4461bf531cb5610560527f22e33fb94a1749fd2fbdbe04e53832fa18a0c1fd840b7a9ff98f937dd27fd8c3610580527f177352e673d2aa6446a53268ed15773fd71ae0e8d53bcaeae490eec222a6023b6105a0527f17de1ad04387d41136801f4a1b8ed7ac6147858366cce063f6820f5229cc10ca6105c0527f2af0a108ed7faa4f4e968b871de1d39983518b22bcd43ff0c98bf36892763dd96105e0527f21959276775cd4749236c8bf773a9b2403cecb45fbf70e6439f73d75442e8850610600527f017714509f01d1a9ee7ebaf4d50745e33a14150b4fe9850a27e44de56d88cb14610620527f2e76c4474fcb457db84fb273ccc10a4647a1a37444369f2f275bb74540f5e2d0610640527f209035caddd02a78acd0ed617a85d782533bd142c6cad8e3338f3142b919c3a4610660527f2f17bba618b20354a4df2744ae60e4e7cfaa1f3bd6e5eead89a003c7be52c067610680527f268a6f4f98d087d3ccc9bc6bedeebcd3666bab09e0d22e2b7c0ed1fcc1eed92f6106a0527f24aa338dcb6b186ce017452afe11b61f9e3ae645ad54a71fe3f9d0d294fbb02a6106c0527f07fbaa24db3121e93f3df7dab757771b941b0536064ff88a34cd722fe7c771ec6106e0527f11f48352f4036bce6280e57447b4787d1cb0e07a6034aafbc19c94453511b845610700527f0c45add3fd75a480e7f11eb4278780cc25caccbebb5cba3efb80db617812f7e5610720527f0f06b5e20a9382b55bfbabf70e89b138bee0c8b35d3a1447f72d51edab6b9d7e610740527f1c14301b4ec63228b63879be1d834ecad7c068fbffc7086eb5a8b9351051bc0e610760527f0c14de0a66a29fef89dd6b25fd3dad2c934048825338d32c9be06295d6895cd3610780527f27e139fd5f94a95aed910fc16c4497e04e258a714b90ff5b7cb6a25af764b5526107a0527f2d283760e83465149e358f2910d2515f4df4e281eb18f1ef89f9ad7e72bbf9bf6107c0527f1e7bc1bdd03c522b54abfc3879fea26bcda8b544a524e1ca08ef3d5c5f615c066107e0527f26ac63c1f22adb0e7f8bbcb49f009546c50d24b1247a743a505416bd4bf12e27610800527f1542e08ee844541bb7f00b5d7e456b1454a0f66a8793e87ee99a04b4686631b1610820527f2c5519e9f4218e2873b91dacf2c455670a5bbbd72ce413230f8b88aea0b1cda8610840527f207960ab6d379cbcdd1ec8b7d562f474d2df14bcf4faa4346a82d4dcbba683dd610860527f254c7c79f29e6f05184889d52a7c01375832d53ea8dd60b93162a5805d715657610880527f23558713233600d8847c983db3c2771210aad83fc39e33f4821c4b483fe579c16108a0527f0706e29711a30848299262823fcda696c0628e2344c1873df3152bf2d1e653b16108c0527f053f5878c8aae8f43baa0d783a6a11da490ba56b9c37fe98c9f27b02c66606146108e0527f18632667b32553a50fe32c70575bfdd284c248cbced691cb386e0470ce61f2c3610900527f1cf95522b33973c7aa8b704535d54b9e47c356c79c6a30e3934d73e1ae1514cd610920527f2d98b7bdf9030175f410c44df10bb43c7be1d03313846afedc75617f1992f2d8610940527f1b534e8c8dc40aaeba533860f48f1ff1f5218d07459905279c63d684e841f9ce61096052600080516020616a7683398151915261098052600080516020616ab68339815191526109a05260006109c08190526109e052600080516020616a56833981519152610a0052600080516020616a96833981519152610a2052600080516020616a36833981519152610a4052600080516020616ad6833981519152610a60527f05d33766e4590b3722701b6f2fa43d0dc3f028424d384e68c92a742fb2dbc0b46134005261454e565b8160ff1660040361186157620100006103805260226103a0527eeeb2cb5981ed45649abebde081dcff16c8601de4347e7dd1628ba2daac43b76103c0527f30641e0e92bebef818268d663bcad6dbcfd6c0149170f6d7d350b1b1fa6c10016103e0527f0f47fa432ea77996a0479c3037daf7614bf6e3684e93529449f21ef98fbada4b610400527f21c165703062cccd96b8b2b8cdeb102449ba2795f0eb0c14f5258e2fdb1de445610420527f04847f35f833800885674b5027efee16d5d2c9123184e3077c9613603868afc2610440527f04f247a76ee732dae94668dd16c0dcbcbdd75ce1c109d443315a3e52e6247357610460527f171297487942069bc2314f1eea50632b0b13d68c267862e1eeed481288893105610480527f08c7b8f362d36f50c237ba782133af9a682f30c3b7ff87d09ba792cdbcb5ed376104a0527f0e69dcb6f2298a72c0a6ac79ba4722d5626a0492ae3c016fad8de3cce04094e66104c0527f12c431268489ee0bc8f51b5478ce9d127faa44a7839f63f2a65eb60e701347706104e0527f060ce978c7a0e5c8f21341cf22c1110053511ea5b93c93336170e0964cff903b610500527f2190938641b8ef51ee1656f902f053afc23094ea32449dff1eae77832c40ce6e610520527f11328a2cda20d1ca23131e26c88d9e6a40a51ca21d39f1107030818f73135983610540527f2df40da7ca1eaa24506879e84beb91450def0850b490f06b3c433d83c38122d5610560527f032678889093759a70d64484cd25740e0aa6c10e6878c44d1e072b201c6a25e8610580527f2ef7109c871ae156f9fef0f0a76d4112b92684bc5aa1d8e48dc07b4b5f93fb0e6105a0527f267c51393730a531077816e9cbc47afa4982ea9ea26f94189561b739cc8a69e76105c0527f0ac3598a83a1b747f29b3eccd46ed7208c8abd8a58e32757a7e09434d24a692b6105e0527f21245d6c0a4d2ff12b21a825f39f30e8f8cf9b259448d111183e975828539576610600527f16a409532c8a1693536e93b6ce9920bfc2e6796e8dfe404675a0cdf6ee77ee7a610620527f2f213c7a4c064a63d6a07366df0ea85aef9ad2125a188c3e656f95471e416a0a610640527f067a270bed55e72ffb3cfa39af3e5b8bcb4961d72bb301978af13c4ddc73e5df610660527f1c54b19feca075decde2bae316a370c59a9281be3411d2d5f31a1e27f4aca05c610680527f018e1183b3c2d3dce137fd98e33a7eaa47197757993eb60035cc30e6a9db40a86106a0527f017736b2bbe52ff5415584dd53bba93dc5f27b7062ae709b00e3eee0080c89866106c0527f3040d71ab13d4373d950a9e46eb72129b5b42d763a3c418b6f7b9dd5ffb532286106e0527f0d430cf4c2d2a2214eae9c6a52d2001ed0c20179a8769c54b5f8b05eb1fd3e44610700527f2e597994dad327470f651b625b298d1e6ab79107820d5d3a0ce78694cec45ab8610720527f1d287105c193224210ec4a75f0bf919c4f2a4ac680b74c8a6d0e71b31e4b620c610740527f0cd47c1b449ee2d9ce2fd9a44e4115709f845a3ac5dc177ca2b3d9c9806d79c9610760527f187e7e35d0116a6672b2670f83bf4f3257d2c5f95ca990943deb07f98e573f87610780527f01d2b37054e35124153a8d470749d60e55759ae7aa52dd33c253d7f49f31b7686107a0527f2043ac05206a2f580ed0a148adfaa26ef5516184126c9e67a8741e133af924cc6107c0527f2bf9b2f5f18eac63843fec205836e0e4cf77146523cb2b703ec9fd6f505b2a326107e0527f01239374280500d61d963adeadc1cfef87ce7f19adb4f4f90c79f63d96468023610800527f0290f83ff91799507e620788f5072a71dd03df9c5605f9594bec63d1763724ca610820527f089ec02dcc6b3216cf9b4418e0827ad4b07d55d3ffa2b21da0743809bae4c2c8610840527f1c522d467e79e574c6bce1ef45cbb9598cc3a99de2de1ce994d0b657450b05b2610860527f2546faf6466689ca90de400304774d39e62e214c390b3a8673079fdbddecbd33610880527f1d6d3e828b1f70d792d184284184663d315a9e15827e8b76bcb8118293212f186108a0527f1109fc0fefc148777c02782b673c4d1cea1e1333a8231384dbb4870a8eb34b346108c0527f3042c8ce4f0f82cb5d19234e3f91eab8cc112fab187c5c163b29a59422d23def6108e0527f183230d2c1a40476a4764a0903a89b67635d3b1252dca052c305557ee1875ea8610900527f12a4e7e3b459e636a58e5c586a3b537000ec2d52c35c45e7bfa859d03e9bff6f610920527f146f4c2616c985d5252cdc93dc85cec993a3e474c6a791cbdc444300ef85e3cf610940527f086903b356b486a9cda9f5d5ed75cf0e193b402d3553f9426fdbb490480196da61096052600080516020616a7683398151915261098052600080516020616ab68339815191526109a05260006109c08190526109e052600080516020616a56833981519152610a0052600080516020616a96833981519152610a2052600080516020616a36833981519152610a4052600080516020616ad6833981519152610a60527f0b5d56b77fe704e8e92338c0082f37e091126414c830e4c6922d5ac802d842d46134005261454e565b8160ff16600603611fc75761080061038081905260096103a0527f027a358499c5042bb4027fd7a5355d71b8c12c177494f0cad00a58f9769a2ee26103c0527f305e41e912d579f5b3193badcab128321c8ee1cb70aa396331b979553d8200016103e0527f29e38cb69ad6d70d3e65cc661e2a4f241a3fd7300b4001dd44d7fbdd2024e038610400527f0e820b36108a2c8c69c09165092e50ab97b33c31fa4f30302fced010127d78df610420527f239aecf6150a6bd26a752900a352a8c35d227f8f1c173d9ea7b51115a6146b75610440527f141b153c077a52c816f34037e45c06d51ab12a6f518b6d168b753f7a84a33f14610460527f1808685cb7eb3e1d1c051de3e710c16fe98ce411740fce7ed2b3988c41aafe68610480527f154da4749995433619dbc3d1d04aabe9914ceea0efba28fe398699eb37e0d7a16104a0527f094ecec2cc345cfbb94d9742c01871265fe55ae2a4c50ca3f45fc97464e3d5266104c0527f21e26cf685653dfdaa2cc47d5f5a7cd1ca8d18512e4576218b314972835344e96104e0527f04aee58c3ead80b93e1f452eaf1fa052cb5596776a545a2ba932f2a324cbada2610500527f19f20ba6494cddc8946d445258e6efbe8ad5c09a4fefb64dd5c2ace449e3dd39610520527f1229fe5fdb6f8eb34cdf695977dce1862afcd72a7a7432cb5ba4c57b93d73b4f610540527f19c1ec36aaed223e1642f9a30be756fca0b83f3aa6f9995e4719b9b26ba2a765610560527f2bd507f300664103016e42c198858fb557add613750dcdd96a51857a32a92009610580527f210f7a5c8f537d9448f82aa235ca5f0758ae68689dd46fd77f715c2434e8d95f6105a0527f212cbe7bff2a75e5891302b32859684b8b18b7ff444d6bc8983a3bb9f3056a8c6105c0527f11a3b3686168e3cefbb1c9c86ce1da04e18050063b128f0a34b0e4ca79f0371d6105e0527f267302f63d129c05fe1ddc1449ce3483d5ff1b943384a3173a40e7395310f526610600527f09e8592d07b97663aaf2956e5ee136274e9ce0118f09deb4daab83fad76e78f3610620527f01aeeaa2478912af12266b5910ceb966d73be7a982cf4a35e94e64921eedf7e5610640527f2f612b9bb2a6c45fa28795f7849e8dbd7e24dca8350195f14c4e609201be4889610660527f2689aed6fa3df3604422879d89609d000ea4fc9e4c73059c17698c436ab61bb0610680527f239966ec5724ad8abd1d36f062610d4dbae0f7a6a6d60008016df6533bf730f26106a0527f2a1b6da2da6fa4bfc50785a7b1a88e1552d0eb6ee486b4023cb272787a13389c6106c0527f2fc05f604af8375075a614c79f1576fdc3f2154b0a2def5b7c24f04605eab3426106e0527f038dda10a55ddcb030397b4809480347ac1f7f33d9214d3090f28bac536e726d610700527f0f07e8f22201319f89ebd350373c3683d46a84ffdead1fcf478a833a6919dc1c610720527f2c2409803078e4c020a036e48709e562e6b10f27e9500a941abbed1132381b23610740527f11101eb4876958c482670294f545147225ef7bc492d29f35e6ba551dfcd958ab610760527f2fe1f6f64807de2f149bb5cc089d144ac28834fef221acbebd02c257a07ac2b3610780527f1cb0bf797f59e7289aa96c3e82b29cafe2c7787b19d913dcb65f1713cf6cbb246107a0527f2c4bdf3bce5f0b79f75af077bf476231433c221814c04ff8cbc7b20773c12e326107c0527f30584447e0e01072e13afcded59a4017ca595f08af84ea5d513c0697912ea4236107e0527f0f17bb4aee244c33e33b58fdcc19b0e3aab885e02711b4429464fd5ac88a4c0c90527f1e74927e1c8b08244da4b135d9896f4087081c0d7b8578b0298857e0b8ed3752610820527f27dc8a579d7f7dd4f0e9c6b795ce733fbaa3a4f24401935fd4fd9c9c37c4950a610840527f2d9b73e412e7f5be39bc1bfd988994edd79c4ad33db96df3587e15a3d4dac7a8610860527f0721a91cb8da4b917e054f72147e1760cfe0ef3d45090ac0f4961d84ec199696610880527f1a25e787b26bd8b50b1a99450f77a424a83513c2b33af268cd253b0587ff50c76108a0527f22d6d608ec024d5da666e4a1d7e160e4a31138d14cb94cda25b3d2a3e0b00ae96108c0527f1f22d84b5897b363d1e8d087cd451630f12833219e478399a96d5e77025eda846108e0527f276843f284e02dda8828f354dd4018059e6629fd190749c0cc3db788df286214610900527f2b7c64dbf6ea977ca3b70e48e1351a873fd8be1a2dc86d7e1bf18c1977f89c38610920527f25fe08fea77a5af0ccf233ba9ebb458095e269a58fa6b38242ea7fa813678b87610940527f2598a9a7862ddbc92922076b39057f5f7e9a3393b9b0175d4df5a9fe899da7d361096052600080516020616a7683398151915261098052600080516020616ab68339815191526109a05260006109c08190526109e052600080516020616a56833981519152610a0052600080516020616a96833981519152610a2052600080516020616a36833981519152610a4052600080516020616ad6833981519152610a60527f0fa9bb21bc73d07b3bb6dcd7fddabf54fd7efed80adc442020a3a65d579d71ae6134005261454e565b8160ff1660070361275157620200006103805260286103a0527f1bf82deba7d74902c3708cc6e70e61f30512eca95655210e276e5858ce8f58e56103c0527f30643640b9f82f90e83b698e5ea6179c7c05542e859533b48b9953a2f53608016103e0527f18d9442da3e67af3783d468ea64999fef4a8d4e7bf98cf31c9969b02efccda86610400527f286d02498892b50a2b89dc67f91285d87722b6fbc5a94a4e2d596a3c0def9709610420527f1049ed8f63206ef50c0c3f55db5678381d5fbeccfa0361675bd9143565aab5eb610440527f22f39c5810c491ab22fdd85e0bd5690789d88efec7bbe29d236a2bb4f457f2fb610460527f14fac867239b83fdd573ca198dbd29ec946f4c07e00001cff5f2864670729910610480527f0ae8f2384679b26af7acd82b58778b4ffec3bbee118e1ff6760f6103690223496104a0527f0caf9cc3618f0c9593f4c5c5e99a75b208d8d18add91c3175f69f079118c1d086104c0527f24aa4881d37d4ef0d404caa8f80d058cae6ce61f206bd459b841372089104f586104e0527f2c424a00dd4b11e6951b1155c4ba03118faec2298998d6fc8c24713421833388610500527f2e9447e087e0603280fb3b8cc7ae4b84e612b32b1d49a46249ad061987f352a5610520527f0dc77077172edd1844a663fa745a7e78f2fa6fc8de773bdd1c4452fe301252bb610540527f042e7a884214be52e5a31293ab769ec81ae52f5cb13ad1af61940d28e31b9bac610560527f047d46833940a518fce89efb639f63d51d7cc0e8440ba6847e6be6c5339bcd12610580527f1a7e8b8ef7146b9c4be3d9a20a532df40899f6a75a07ce766cf5238ac619802f6105a0527f1ae0f288a9ba7d14d86aa70f8b4d7e66593901604db2bf79aece65307bc5ac016105c0527f1c621a6018c95880fde480c9426871081472b5a16cbf58ea0a37060c95c49ff66105e0527f28b955aac4c043cbcfde06eee59b44363f96fe0a6fa93b0b36ef07fbe285d4c7610600527f16e1bbb0a7728dcb7696fdf3361b39510c6a4f83cc2159f5fc65ceb2be0599f9610620527f1414af76247139fa9e8fef8b393a3e03227ee3a6fedb1e55f5db82cb2352782a610640527f2c7895a68d2fab5b2bce4d7703daebf9011e63d675bc6898c7f06087d6d83d99610660527f1f56234404a65750d447ec51b51f510c0ccf348f7aaf02f9c583e39648aeaf1b610680527f055235501995a5d0b3612a5ef6f1a3ec4c077ea367eb3800345b4a3dc7a1182e6106a0527f2c51d75ded7c0becd448e17f5c5904ed9a59dbbb3427d9fc8b1a27baec85640f6106c0527f2009af787f66eceb4595bb704032b17749ad45829625cff0ebb2b68a723652b76106e0527f2e243c9eb9f64ebfb61e51db86ed094e743b4272dc023a18a2e2fcb5849a73b4610700527f0db6e19f6d1d94c4795b530d1e4005575b665c9e0033e75437aaa50d77ab7717610720527f2c5a86a144c95c042206aa9d00521646491e88613f1917cf8dcb5990fddd4266610740527f1fdf3b48146984da72b758928c886b427dbee3344cc73fea57854372cfc9b591610760527f28faa42b5c13a5e9927d13e54a2ed806854cd23c6662b320439aa3168beffe03610780527f1e5c18afa66b4c0d19473e0536e64f678c1b094d1b2eff1d7f499dc289efc0846107a0527f10a001251e9f3a9f283ff8f6bd14cba9c706f3c5040ec8ef10ff44988441251c6107c0527f12138fab93fce066ddb2f9be4eff97b0fe128a2a2c079f749b8452698cace8bf6107e0527f133738f359ce2e0f909a0b76a78c602e66e39c41d99f65bfea25f47998283ccd610800527f2dd03593caea05125f520c0d02a3bbbdc5519822ba0e0b00984c5a9281143a81610820527f09ec9b0aca4e9671903e0577f2a4efd36f7a58af0a5102f5a42e1b8061f62421610840527f15affeadf66c8428f4f44d2ebe66e9dc0f04215bef81efbbee166d3f4544feab610860527f1fd912d00da77afb70848e4442324157606f77f54ebc05d1a1a5fc2030836b13610880527f1b1c85cc22723d352d37c86cfd66d45e809a813b99a452fe452c7ae975de22866108a0527f2921caa6fb7ec40f99ff673240cceafe47fa004e39fe6acfa130b2a577768a636108c0527f09610d870de91712a425f520ddc1b4b03e104e6904517471e1d4fda2a08f46426108e0527f0ac70db2009900c8f7cbf9a55c0c35e1bff2e77044e474a0aabdb9113ec4f698610900527f0eb1544fd9401eb9b5222771ac439ac99a3732de44cf0adcfbb0d82e828bc6cd610920527e8643bc8309b6075212cc1f337ff054756901c3947890f632c971d3fdb9ec33610940527f04ce5187288dede4f3fdcef37068645bcfde9756d8946f6736b8449ab74c523c610960527f073bc5885390979e5d836f1692186b4e97f06af392e28bf63cc4f90265c8a8fa610980527f2afea4e85f423335ca5b788d5848e569b20f77c3c75b97e3e3ba2d4326eb1fa26109a05260006109c08190526109e052600080516020616a56833981519152610a0052600080516020616a96833981519152610a2052600080516020616a36833981519152610a4052600080516020616ad6833981519152610a60527f244cf010c43ca87237d8b00bf9dd50c4c01c7f086bd4e8c920e75251d96f0d226134005261454e565b8160ff16600803612edb57620200006103805260116103a0527f1bf82deba7d74902c3708cc6e70e61f30512eca95655210e276e5858ce8f58e56103c0527f30643640b9f82f90e83b698e5ea6179c7c05542e859533b48b9953a2f53608016103e0527f0d577fa0d3dbac286c9b6cbced9e682a2bb3eb7d85308f87e45319a0dee41551610400527f2bc090f2324cf613c791ba16fd23f14d14ba52b3d3ab65cfd54b357989819c08610420527f2843396376174462714c0cbd5af623aae1eec5a3782b4c496278ad7e1cd5bb6f610440527f08249aec3c877514a0c8362b904d699d7ca800e6bb61460c7c1d6c665ccce7b0610460527f1a1426e6ffd9e3efb5c86be0ed929ec0c88e4c5c824cec0075c7c766a0f13b57610480527f18c3c0049d0b0b2b37578d114724148d326033e60a0de5dd3396bb19832be9176104a0527f06f9baa4696fa5a6f3d5ebaf5cfb94524c04649822e83b9fba030976fec533c46104c0527f2919a1a20bdb5543c232dccea9a8d21d54aa40c404eb5941fcb1891e2706f8916104e0527f0bef0de27c37fa0f5e761eb4286df92d0dd381fb49e564bc0ad44159cdf6a423610500527f17cb93d3d4ed7357f787c82cfd54307424436dec1b03621329bfc76017660985610520527eed62603ec60eb39acf4295e3aaf9b924412647180d855a7cf0d8cc26c97e0d610540527f2db0e124bcd4deaf4b8a45d05068c321cfe6887e0f30dd4367c9c64c7ef81c60610560527f092cf5f6c966a28951e2f47200e4de36f5ab4a4c5478257d8d777d92a6a2a1fd610580527f2c38057854d61ff79a2dbed8ea0765c6c08cf1826a19cb867af6eaf4871bd25e6105a0527f09cb9211630eb1237e57870bdf07e10e505d804bb06fbe35f4e9108a39158eb76105c0527f01da397e84a93a29dba7ca0e147cad40d831ab4c99aa7f3d959c83dc3c4d1eb56105e0527f28b955aac4c043cbcfde06eee59b44363f96fe0a6fa93b0b36ef07fbe285d4c7610600527f16e1bbb0a7728dcb7696fdf3361b39510c6a4f83cc2159f5fc65ceb2be0599f9610620527f1414af76247139fa9e8fef8b393a3e03227ee3a6fedb1e55f5db82cb2352782a610640527f2c7895a68d2fab5b2bce4d7703daebf9011e63d675bc6898c7f06087d6d83d99610660527f2e88476a1b7f38fcce5548d32ebb72408067a453d9b784bd146d21aa2a28b5bb610680527f2706dc32411880bb3dd14916f104be8f0ce419985e3c0381e2c16be4b8bb3dd66106a0527f16bd4413b43e058730c90f56f8055a872b0505aa14e9c49c2e041848623e7ae76106c0527f2f60b2ed49b92d8c3d8287bd9b9b598de0ba8b9650972412cc2e2c174719fa686106e0527f155c9bd8888d4406a7c32f1146054a2925a71cb973ab9d7fbf9e6d73fc6eb96d610700527f22054d51ebe5cac4cffa4dca9a87db124e107fa89a5f19e56e3725ec5daf2135610720527f1e2bbffab025cf586a970031f5e9ffe108a4911e603c148df0ec2108c3a69c51610740527f2b419109aec7e78f155a1528eca21b24c9dcac950a892716d6ac9405a5a72f42610760527f28faa42b5c13a5e9927d13e54a2ed806854cd23c6662b320439aa3168beffe03610780527f1e5c18afa66b4c0d19473e0536e64f678c1b094d1b2eff1d7f499dc289efc0846107a0527f10a001251e9f3a9f283ff8f6bd14cba9c706f3c5040ec8ef10ff44988441251c6107c0527f12138fab93fce066ddb2f9be4eff97b0fe128a2a2c079f749b8452698cace8bf6107e0527f133738f359ce2e0f909a0b76a78c602e66e39c41d99f65bfea25f47998283ccd610800527f2dd03593caea05125f520c0d02a3bbbdc5519822ba0e0b00984c5a9281143a81610820527f09ec9b0aca4e9671903e0577f2a4efd36f7a58af0a5102f5a42e1b8061f62421610840527f15affeadf66c8428f4f44d2ebe66e9dc0f04215bef81efbbee166d3f4544feab610860527f1fd912d00da77afb70848e4442324157606f77f54ebc05d1a1a5fc2030836b13610880527f1b1c85cc22723d352d37c86cfd66d45e809a813b99a452fe452c7ae975de22866108a0527f07d738e475ed11a64f559c83c2fa7e9cae6cd08f022820131e71ccb455d74c656108c0527f21a89aa1d220f8774c198b913822da0b52717afb10ffe58f9d86c34696e095ab6108e0527f25ecbeda1488320db3a1d6523da5b6dfe49ce53151c3d16947cbc40094a1a97c610900527f24165fbb9f06bfc24433fd2a85602d982f6bf5a072a04be4457b5cfe2a57201b610920527f20d617e640a10f02cb54919d5b3df3a1fca0bda475c4588cb2199cd15a6771a9610940527f22c66e35bc1d3f633bcfa969ee311abd2fb54b3512f3a7d58b5919169b33b5c3610960527f0b6c3c069656dbcc297e48170179bccc317bd7d47f837f7b81752f10a35155d8610980527f1ef5a76f1a787040d4e551bcb0d9b7e255430e77b5faba3eac74f3481844c24f6109a05260006109c08190526109e052600080516020616a56833981519152610a0052600080516020616a96833981519152610a2052600080516020616a36833981519152610a4052600080516020616ad6833981519152610a60527f244cf010c43ca87237d8b00bf9dd50c4c01c7f086bd4e8c920e75251d96f0d226134005261454e565b8160ff16600903613641576110006103805260f06103a0527f0931d596de2fd10f01ddd073fd5a90a976f169c76f039bb91c4775720042d43a6103c0527f3061482dfa038d0fb5b4c0b226194047a2616509f531d4fa3acdb77496c100016103e0527f03bbe04ab13b33392dff5b50836e267dc782f89f94ef9db2cf7c099d8941e37c610400527f13cd76c3d5c169c563eb5419d40c9135a5d443eb1308d3e0ea28c88a313c99a2610420527f2abff8d28144d574ebb6030b5487d2aced0207d4e834dda0cbe9791c03cb6d69610440527f1878f6e557cb8d61d4ed8747e766637e576b6fc2ecb54ba2bec90ed734d97f2d610460527f0f0026f1a0cbd6298097e33e023fcd20ed17c3acd3955631628952cab003370c610480527f178a32e84c2be184762282996ba4332ccb19206b7524f44ff9241a4fff5e2dc16104a0527f07ef51ac967c06f754c189c9a228bff1ed08126aacd7c68ffdc36b1fee1624066104c0527f1b5eca060aa6019d59d29a2c1f8e6ff40b18e2e3f6a5826c740309e667eab6cd6104e0527f25e89e4e5e8796f42a365de646a4d7d02ee1d10ce46b13cbbe5074beef51eb80610500527f22f4d28c2c1236270a264aee3a92258d9d1f30b5c7c138193942992eeef9ddef610520527f060a2a0478ef5d0201e339e8823f7a3af2e3e2c93c481c1df68357811c43c36d610540527f0ae6b254ecb1b342ea604455d4ae36c431890a5e6f2591c5bd353d8684d18309610560527f1fb3ca5b949f820d7d2acc1a626100cd18a821c3cea34692b47bd53f900835d0610580527f187052d626709604953f1c27f01e61cd133c149e6c402fb92bdad5a27f5002406105a0527f08eea98681635fb5e933ec451e2b81d0d2ab8a5876e5d554c2d620bd23e84d606105c0527f0eff026e9724fc371676400bf5445210e4e3305eaccba2b8edff7fc38534108d6105e0527f13982fd0cf8da5082a77561113bb5ee51e2e82380da3da5ad0f24e49e5f32208610600527f1aa5ffd5aa4c16d1c66e18c4574a3ab0b25e9b4e4e04ad1280d1a264237717e0610620527f1750f44d3f9dfad78a1e2127ef91051ce018f20536fe45ca28dcc7b248389fc0610640527f1a05418f502a965c39994cd3f83e39164b49c0f27d4f5ac4550751cc0a24bb58610660527f066dd32de684569fc408a3ff4fc05f266dfb9b25c898ea011d3195cecd2b296e610680527f25490dbe21ba8e6605c98e7ffd98c55b7490ced57af645d586d647c40179e2156106a0527f070814815be389fe7c7be8681a278e577fcbaf3825490d32f2e381002d2ecdf06106c0527f1625488a17cfe0fbf7ed526541c9e06c457880ab5df4d417b5cb8fde52573a2d6106e0527f19e203b80b2b342db7178a59f7fd7a4e9f155f80294b553df43948c881b8e785610700527f296d1d0aec3c0735bb64ce35418be2933c6a448904bdbe22e2b3dd1bbd44fc61610720527f1666fffc12336a8c85cc5870b919770c2ea1337cb8b7691e0430127db7b41327610740527f0633a3b9de63670108372227b2d061933c5f73da3a3c5cfbc381a9d8130bc1fd610760527f259f452dc7fd2dda4013dba2196852bcf43c285b1d1f7f85341f3615d25fe97b610780527f117500555dd886209c0b10ee8cd10e711e890a1c99a8f689419da8c52d2e8e9d6107a0527f2577f542178a07dac262fdabad6f55a84fca32b13b92e520bb91a7455f78ccf16107c0527f0fc87ae27122e60eaacc070bd59aafe12644a82ee1345497f8c0302e92925c686107e0527f1612f501335a4b72ac55dbe2fd1a75e5fe2c041687603b6577581d673d13be50610800527f160e8ef7ff5315cb640ec82e965db270846e904bb7d1c7ff02f32823de6c1c71610820527f2d540ff1653b38acbcb9cda315442364007633f529476b2f169a0ff131bfb319610840527f2198b9feb61f8160e357b8bb7ca329713898655cc94a0ac2d84944c737cf57e5610860527f11c8df52c3ef754f80d11792cea4b7ad74612e486596cbe7f7d6a05f19c69444610880527f10c8a36cbb2fd9ed8875b5106a37162ac2932f3bd1b6942b132546d2110a63e26108a0527f1df9fae58966640fb910a6cbf7350281d0940268003e9cbcd9ded9411683dc556108c0527f047ad9e3d6db146bcca4a4e258f52decbc466452b96700f7cfbda168e3889e9c6108e0527f1a7dd95812827190efd4a33e641a89e063f511e3b18c0e59c9d338b6687c9070610900527f09cdb14fecc64143675343083761fd963c8aa797d7eb7fda6224e12d0873dbb9610920527f18405bc8dac4280ed6ce6e774b41d31fa0523e37611aafe4269b6a070a6765ee610940527f1c8a9c188925f28ea42de33f0c5ca669e1809781ede34abcd18e9b7e55b91d4e61096052600080516020616a7683398151915261098052600080516020616ab68339815191526109a05260006109c08190526109e052600080516020616a56833981519152610a0052600080516020616a96833981519152610a2052600080516020616a36833981519152610a4052600080516020616ad6833981519152610a60527f1af864d211b88d9ccf2e371c2ba088d9269d3fdea04e05acb6f70f8dc79e0e576134005261454e565b8160ff16600a03613da7576204000061038052605e6103a0527f19ddbcaf3a8d46c15c0176fbb5b95e4dc57088ff13f4d1bd84c6bfa57dcdc0e06103c0527f30644259cd94e7dd5045d7a27013b7fcd21c9e3b7fa75222e7bda49b729b04016103e0527f07472d372e94ed5fd2b5f60bd191f23b33f1b715fa59a0870bfdaa40a3bfa477610400527f057f56c27137369ebe1202be6af6206bb4cb1003f360c3157114245db06e34f0610420527ea92c4ed8cbd0301c462b828385a953cde9c72bcd71f5788be8e111ff8cc5bc610440527f25ce0676eca08a424692e5307f51b3a72ec8e7fb798e0da01d11760c4c61f0e7610460527f1ae0edf4ceb7ab35f83bb2a76ed98ade83f9abd892ce25d4d36db6760cdd32ad610480527f2cae11e32417757146553d49232ac64d136ede229291f38781bc35f1b9d956636104a0527f17f7dfc0106a05fc2aa559a76a43dcf50b5438fd349b750d3f682b96220887786104c0527f1fe7ec31aa4f2d4e1cf56cfe28fbb588a3025c9087783f50bf4a477f89e4f6216104e0527f15636f75dd1c29b6b443b1b7c936f54b8fc0f24f5f11407d65425860a24ff7a8610500527f104e28d93485ec927311b099fdae6a9e5f7f5608f4dd37f73918358d7be149a1610520527f27a10d63f81d25f34f660b6eddc4c5db8d9b751a75ec1ecf84744797d5a66aa0610540527f1ac40f52b7a55af0561c7f476628a4d270f6918f6d616459986770266fac3b16610560527f2c7ca8ca2ece871a1373773d479ac495ad2bd2cab1794b2f191772b5975bb93d610580527f0b89d29e0b1a22e38d229866efe65eee45a51c0d52908d0e9af52e97564826ad6105a0527f224fa02763241495e18ac9f41c8251e04a0085ddcebec38be65f1f2bd8421b4d6105c0527f03d120ada22b3ba6598e69fe59e520e0e5864b9fcd4256adf994dfa4bb97d15c6105e0527f2d5247c138f521f72a738d5497ad48d7fac4e2369d9a8e99a9b9f8070d931963610600527f055c8ea419d61ab8dcc3533ad944e83262d0648c1864002d48a5f4907aa301a4610620527f286b5e87c07e6bfb9f1b4dd9b2758f6abbe43245a0e9e8e6a81778ffec9f3edb610640527f2afe03cafd4700d14adecb1f54be2e983f0ee45d675e388cef839bba868ea2b2610660527f23736ba4c86eb22ba5c8bc66223e38ba64d0ae20d35879b157cac3021801615c610680527f22e3254b49a36f35fe713a8daca70a060f0603929614c72574fa98faa66381196106a0527f1e3043c17e24db9a6aefb863fce9b57056974abd5a3b08a40b55b8d616c585f56106c0527f200cca7a13dea903bbc764a4a32de76ad143a8c59916a6af4f6330d55c6d72e46106e0527f041835129a2baeb22738be2561d5c4730c2b2b377c0cbf9b18385c5d050410ea610700527f0212a9913ae4cfd9b83b2156ebfda674fff1eb39699b49eb28e7aae7c9ed1ee5610720527f1fba58890ea69a1ac6ae4ebe834a829693dac94b6f97e26b851fdf3d5dcbdb53610740527f159fd81f5b1a16fd4d950908357a8f90e4c9a6e14094b6ffdbb8a920436e2c54610760527f192711fca2f5b36970aae483f46068b91f52060c02f8325294db54bb0a11933e610780527f1bff24689c6227448a09dbed17ef39405aa88aedd9f9384dfe3f3d0a0480cbac6107a0527f194b5ba84c106e0146f0952b5454de8274ff80a9f83cf14c4f6f0742eeb198646107c0527f1ec2dc36740cd8f027ac2c850a042d4482e3b79c8105eef51df522056ae7605a6107e0527f2263709bd57b4b6419d0e9ddb56ac9c9419a18e11184552647e1788e62f3daf3610800527f28473c39c8ad63fc67af038fa2594679efec0bf7da69050d9ddee43a5837f731610820527f0c55dfdec4ea5722f75304d9d07d41349451120f02efda3f0355fc1c953256c6610840527f2018b108aefa236db9e8d68ca15fd206e209683379f8cb36fe3a8a7d0456bf08610860527f044840c394aea0c66af2b47aacc5c67b7f95b1b817e8215ff706e6adf02370fd610880527f1b231e208d637332ff2182fe11f11404be27e4c2486620025dbaefe957144cbe6108a0527f035ebd1548894cb2db1a5c0adf6da48aa89e68423636db3a2296c78cca20dffb6108c0527f0f7ad0a423f2780296ea7fede4d34171db3f81c85ae3b08d12e5d3564af7243c6108e0527f25ec92e061efabd9940d00fceb3b335d9c89b0ff31d3832e99e11b922e21eee4610900527f2b38d3d920f3cabb93769b43067f85d40080fc94d902ba6f8e03171e0ad2105e610920527f2fd95d8f1f07f2f0b43c6d4d6d3f3dea9aa941c05d707de54d994862f838fb63610940527f028dbb67156942ed1b05a7369c40ab20ede55f027f33cf1ba7e44dc30a67f92161096052600080516020616a7683398151915261098052600080516020616ab68339815191526109a05260006109c08190526109e052600080516020616a56833981519152610a0052600080516020616a96833981519152610a2052600080516020616a36833981519152610a4052600080516020616ad6833981519152610a60527f036853f083780e87f8d7c71d111119c57dbe118c22d5ad707a82317466c5174c6134005261454e565b8160ff16600b0361450e57620400006103805260a46103a0527f19ddbcaf3a8d46c15c0176fbb5b95e4dc57088ff13f4d1bd84c6bfa57dcdc0e06103c0527f30644259cd94e7dd5045d7a27013b7fcd21c9e3b7fa75222e7bda49b729b04016103e0527f290430080881f465d95e094dd89f2b841f2a23eb988bdb203363dd636629dc01610400527f05a4266096e5e188f0d2486d8b663210ee4a492d4aede08aab4b39a787b61c78610420527f073e8d511908141302fd077599ffa4bbb3b236b1d1578c33897e27bc1b2ab256610440527f0a8bb7c2a78db4f2f9a0de77113e9e2e3b5b4c66dc624f8ef16d5330c1afcb8a610460527f26cab0e567ded65682c4d81230e41593fbf5b91f76ade8feff88377c652e3eaa610480527f05d3b30837f6daf1140ce57e8786b6841138ca8825314054ebab731ffbd437786104a0527f17f7dfc0106a05fc2aa559a76a43dcf50b5438fd349b750d3f682b96220887786104c0527f1fe7ec31aa4f2d4e1cf56cfe28fbb588a3025c9087783f50bf4a477f89e4f6216104e0527f01cb912518a9e013591ca985a445e59aaf07c8ebd9a078faab6616ea8d288bab610500527f0f971d6583cc6fa7c4be4640abda4e42f5ecc1a47278def7d223d101c9c95ce3610520527f15c2e8bd62697fb984afad095cbc2cbedfa9267dc4b4e8351b565f4b882f6a5e610540527f0e9519fd3daee175cade419cadd17e8423d44c4bc1867c9a94f8f8e194edbab6610560527f061ff8bfa831618b8f76ef0c3a76f66634ddd42aab0e904c277b4f699d7dd03e610580527f0d62bedfa52745c6a15f1f3eb9cba765450408bb5c0ec01487ff79c019788e546105a0527f224fa02763241495e18ac9f41c8251e04a0085ddcebec38be65f1f2bd8421b4d6105c0527f03d120ada22b3ba6598e69fe59e520e0e5864b9fcd4256adf994dfa4bb97d15c6105e0527f2d5247c138f521f72a738d5497ad48d7fac4e2369d9a8e99a9b9f8070d931963610600527f055c8ea419d61ab8dcc3533ad944e83262d0648c1864002d48a5f4907aa301a4610620527f286b5e87c07e6bfb9f1b4dd9b2758f6abbe43245a0e9e8e6a81778ffec9f3edb610640527f2afe03cafd4700d14adecb1f54be2e983f0ee45d675e388cef839bba868ea2b2610660527f1a189fd891261c4a9f70231787a2d62f0285796c7d8c532ab4ef84b0c3a557b9610680527f2cdc2f6fb97054d8a0bb7d3e8ac4d44caa21a54c99f00e2e8d153475d2d415be6106a0527f17224ada322e4330821b680caab1ec88c2750b916276ad1d72dfa709df4931dc6106c0527f21340c43bc0bd70921608d96934a22a140605cf5c816ec9e55597b6e34e194e06106e0527f1317a69d22f3a2979d424dd10d8065aace7b62189808b5036a3ccf73e5ed03b0610700527f1fef7075037565f4933a92e5e6b302a0a80bd7488ee35eb28b146d3e69cde2f0610720527f1b3420beb84d5696a60b2e9cb9fb64f2b1361644f5cdb2aa17bad06d70ba5ca2610740527f299f74b320f6da82e60e8396b0252295565b5fccfd9f2633377e4a3a9b4ac59d610760527f192711fca2f5b36970aae483f46068b91f52060c02f8325294db54bb0a11933e610780527f1bff24689c6227448a09dbed17ef39405aa88aedd9f9384dfe3f3d0a0480cbac6107a0527f194b5ba84c106e0146f0952b5454de8274ff80a9f83cf14c4f6f0742eeb198646107c0527f1ec2dc36740cd8f027ac2c850a042d4482e3b79c8105eef51df522056ae7605a6107e0527f2263709bd57b4b6419d0e9ddb56ac9c9419a18e11184552647e1788e62f3daf3610800527f28473c39c8ad63fc67af038fa2594679efec0bf7da69050d9ddee43a5837f731610820527f0c55dfdec4ea5722f75304d9d07d41349451120f02efda3f0355fc1c953256c6610840527f2018b108aefa236db9e8d68ca15fd206e209683379f8cb36fe3a8a7d0456bf08610860527f044840c394aea0c66af2b47aacc5c67b7f95b1b817e8215ff706e6adf02370fd610880527f1b231e208d637332ff2182fe11f11404be27e4c2486620025dbaefe957144cbe6108a0527f0fb8336c167c7b0739f5eb0df254d0c79f26e9ce5c2513f86d8c80d814f1a5fc6108c0527f0f3223b156c3d4993119f2d3d19b1f057df12f54c635af3baffccfe8c4bef6836108e0527f1d455c016d3642c72ed9bd4172f613fd47f487993577b7fe5cc9269cfd87e22c610900527f15d3b7976638f93a13ee83486e024c28aaa773f6bb2e513be659c87ae3935172610920527f21f79f7464fa9f41c1fb3c49a5076cad41a14e325e6f975b902275dfbd2983c2610940527f13ffc9c8711ff73ac4d29c976dff9d1543702b5b771ad68c64cc161016462fec61096052600080516020616a7683398151915261098052600080516020616ab68339815191526109a05260006109c08190526109e052600080516020616a56833981519152610a0052600080516020616a96833981519152610a2052600080516020616a36833981519152610a4052600080516020616ad6833981519152610a60527f036853f083780e87f8d7c71d111119c57dbe118c22d5ad707a82317466c5174c6134005261454e565b60405162461bcd60e51b815260206004820152601060248201526f24b73b30b634b21039b2b632b1ba37b960811b60448201526064015b60405180910390fd5b6103a05183811461457c57604051637667dc9b60e01b81526004810182905260248101859052604401614545565b7f30644e72e131a029b85045b68181585d97816a916871ca8d3c208c16d87cfd477f30644e72e131a029b85045b68181585d2833e84879b9709143e1f593f00000016024600435018281350661122052826020820135066112005282604082013506611260528260608201350661124052826080820135066112a0528260a082013506611280528260c0820135066112e0528260e0820135066112c05282610100820135066113205282610120820135066113005282610140820135066113605282610160820135066113405282610180820135066113a052826101a08201350661138052826101c0820135066113e052826101e0820135066113c05282610200820135066114205282610220820135066114005282610240820135066114605282610260820135066114405282610280820135066114a052826102a08201350661148052816102c08201350661160052816102e0820135066116205281610300820135066116405281610320820135066116605281610340820135066116805281610360820135066116a05281610380820135066116c052816103a0820135066116e052816103c08201350661170052816103e0820135066117205281610400820135066117405281610420820135066117605281610440820135066117805281610460820135066117a05281610480820135066117c052816104a0820135066117e052816104c08201350661180052816104e0820135066119605281610500820135066119805281610520820135066119a05281610540820135066119c052816105608201350661184052816105808201350661186052816105a08201350661188052816105c0820135066118a052816105e0820135066118c05281610600820135066118e05281610620820135066119005281610640820135066119205281610660820135066119405281610680820135066119e052816106a08201350661200052816106c08201350661202052816106e0820135066120405281610700820135066120605281610720820135066120805281610740820135066120a05281610760820135066120c05281610780820135066120e052816107a08201350661210052816107c08201350661212052826107e08201350661232052826108008201350661230052826108208201350661236052826108408201350661234052506109c051156149de576024803501806109e05160051b0190508035602082013560441b81019050604082013560881b81019050606082013560cc1b81019050608082013560a083013560441b8101905060c083013560881b8101905060e083013560cc1b8101905061010083013561012084013560441b8101905061014084013560881b8101905061016084013560cc1b810190506101808401356101a085013560441b810190506101c085013560881b810190506101e085013560cc1b8101905083613500528261352052816135405280613560528681108784101687831088861016166149d8576375d4fa5360e11b60005260046000fd5b50505050505b6103805160e01b6000526103a05160e01b60045260086000208061358052602480350160206103a05102808260206135800137600435602401915060c0826135a083013760e0016135802083810661266081905290925090508281800961268052828161268051096126a05250806000526112e0516020526112c051604052611320516060526113005160805260a0600020905081810661260052806000526001602053506021600090812082810661262052815261136051602052611340516040526113a0516060526113805160805260a09020818106612640819052828180096134205282816134205109613440528281613440510961346052806134805250806000526113e0516020526113c05160405261142051606052611400516080526114605160a0526114405160c0526114a05160e052611480516101005261012060002090508181066126c052806126e0525061260051612620516103c051600180856001602480350160206103a0510281018360058a0984600c8b0999505b81831015614b9e57823585811085169450858a82089050858183018909975085818c01880996505084888209905084888b099950602083019250614b5f565b50505080614bb75763374a972f60e01b60005260046000fd5b50508161300052806130205250505050508081600161260051086126205109806103805160015b81811015614bf3578483840992508001614bde565b5050613100528181800990508181820961312052506126c05161038051819060015b81811015614c2a578483840992508001614c15565b50508061304052826001840382089050613400518084036103e051858286088684840992508687848808820990508684840992508687848808820990508687888686098808820990506103c051925086828609915086600188038708878485099450876001890389898b888d8b8c0909090896506130205194508493508782860994508488878709955085898388099650868a61312051890997508760206000526020805260206040528b8b8a0960605260028c036080528b60a0526020600060c0600060055afa614d0757633e2529ef60e21b60005260046000fd5b60005198508b818a0990508b8b8a0998508b828a0991508b613120518a0998508b838a0992508b858a0998508b848a0993508b8a8a0998508b888a0997508b868a0998508b613020518d8b8c090998508b896130005109613060528b888b09613080528b848709613780528b8388096130a0528b826131005109613140528b8188096130c052505050505050505050505061264051506126005161262051828361190051840982611620510101846118e051850983611600510101098384611940518509836116605101018561192051860984611640510101098485868385096116a051096134805109858661198051870985611620510101876119605188098661160051010109925085866119c051870985611660510101876119a0518809866116405101010991508586878885870961208051096134805109870382089050856126405161348051096134805285868788613060518a0361208051086130c0510961348051098208905085612640516134805109613480528586878860018a036116a051086130a05109613480510982086136005250505050508061264051613480510961348052806117205161266051098182836120205161178051096116405108820890508161266051820990508182836120005161176051096116205108820890508161266051820990508182836119e0516117005109611600510882089050816118405183846126605161186051098586612680516118805109876126a0516118a05109080808826120c0518485612660516120e051098687612680516121005109886126a051612120510908080883846001612600510861262051098461262051866118c051870908935084818687612600518609860808925084838509935084856001612600510885099350846130a05161264051099250848385089350846116c0518509935084838603850893508481868761260051612060510961168051080892505050826130c05161342051098381850383089150836120a05183099150838461314051830983089150508261348051848386038508096136205250508061344051613480510961348052806116e0516116005109816117005161162051098261172051611640510983611740516116605109847f183227397098d014dc2822db40c0ac2e9419f4243cdcb848a1f0fac9f80000008687600389036117a0510888611760518a6116205161160051090909098586878889858a08880886088408611780510894505050505081828384856116605161160051086119e051870308611760510884600286036117a05108096126405109828384858685612040510887600189036117a051080985086117a05109613480510961364052505080613420516134805109613480526002810360038203826116005184036116205108836116205185036116405108846116405186036116605108856116605187036119e05108866134805188898888088a8b8b8a088c8a8e038e8c8d09080909099350868788612640516134805109898a8988088b8c8c8a088d8a8f038f8c8d090809090985089350868788613420516134805109898a8987088b8c8c89088d898f038f8b8c090809090985089350868788613440516134805109898a8986088b8c8c88088d888f038f8a8b090809090985089350505050836117c051820961366052505061346051613480518392500961348052806116205182036119e051088161204051612040510982611640516116405109836116e05185612040516116405109098485868384088785870888030886878788098889611620516119e0510861200051080908925050508261348051848561176051870360010884090990508261202051611640510883611640518503856116e05161204051090884858287611620518903612000510809868685090893505050828361264051613480510984856117605187036001088509099150826117e0518484840809613680525050806116205161162051098161164051611640510982611620518460118408098360048309915083600982099050836003840992508381850385848788611620516116205108612000510809089150508283846120205161164051088561164051611640510809840384856120005187036116205108850908915082613480518209905082836126405161348051098309915082611760518209905082611760518309915082836117e0518585850809613680510861368052505080613460516134805109613480528081611620516119e05109826120005161160051090881612020518303838461164051611620510985611660516116005109080882600160441b82099050826120405184038208905082828208905082611740518209905082600160441b830991508283612000516119e05109830891508261172051848561166051611640510886038508098361176051858661204051612020510887038761166051880808099250836117005185858786860808096136c0525050612000518291506140009009816119e0518208905081614000820990508161164051820890508161400082099050816116205182089050816140008209905081611600518208905081611660518303820890508161174051820990508161400061202051098261200051820890508261400082099050826119e05182089050826140008209905082611660518208905082614000820990508261164051820890508261204051840382089050826117605182099050826117205184838508096136e0525050806126605161164051098161162051820890508161266051820990508161160051820890508161266051820990508161178051820890508082611660518403830891508161374052826116005184036119e05108836116605185036120405108848560018703840883098586848803600108830991508585876126405189858b61264051890908090861372052856126605161202051099450856120005186089450856126605186099450856119e0518608945085612660518609945085858703612040510894508561164051870361202051089150858687878903600108840987858903600108099150858487036116605108868760018903830882099050868760018903880887099550866126405184099250868284089250866126405184099250868684089250866126405184099250868184089250508161370052505083611620518503612000510892508361164051850385868488036001088609089250836117005161372051099150838461174051850983089150838461176051613740510983089150836116e0518309915083846117a051613700510983089150836136c05183089250836136e05184089250836118005184099250836134805184099250826136a05283613440516134805109613480525050508061378051826136a0518461368051866136605188613640518a61362051613600510808080808096137608190526126e0516137a08190526137c0919091526102e460043501610520816137e03750506105606137a020818106612700526000819052600160205381602160002006612720526002602053816021600020066127405260036020538160216000200661276052600460205381602160002006612780526005602053816021600020066127a0526006602053816021600020066127c0526007602053816021600020066127e0526008602053816021600020066128005260096020538160216000200661282052600a6020538160216000200661284052600b6020538160216000200661286052600c6020538160216000200661288052600d602053816021600020066128a052600e602053816021600020066128c052600f602053816021600020066128e05260106020538160216000200661290052601160205381602160002006612920526012602053816021600020066129405260136020538160216000200661296052601460205381602160002006612980526015602053816021600020066129a0526016602053816021600020066129c0526017602053816021600020066129e052601860205381602160002006612a0052601960205381602160002006612a2052601a60205381602160002006612a4052601b60205381602160002006612a6052601c60205381602160002006612a8052601d60205381602160002006612aa052601d6020535060216000908120828106612ac05281526123205160205261230051604052612360516060526123405160805260a08120829006612b00526113c0516113e0518482800985600387838609088683840914935050816131605280602061316001525050611400516114205184828309856003878386090886838409148416935050816000528060205250506130405160405260406131a06060600060075afa16604061316060808160065afa81169050611440516114605184828309856003878386090886838409148416935050816000528060205250508161304051613040510960405260406131a06060600060075afa16604061316060808160065afa81169050611480516114a05184828309856003878386090886838409148416935050816000528060205250508161304051836130405161304051090960405260406131a06060600060075afa16604061316060808160065afa81169050611200516112205184828309856003878386090886838409148416935050816000528060205250508161270051836001612b0051080960405260406131a06060600060075afa16604061316060808160065afa81169050611240516112605184828309856003878386090886838409148416935050816000528060205250508161272051836001612b0051080960405260406131a06060600060075afa16604061316060808160065afa81169050611280516112a05184828309856003878386090886838409148416935050816000528060205250508161274051836001612b0051080960405260406131a06060600060075afa16604061316060808160065afa811690506112c0516112e05184828309856003878386090886838409148416935050816000528060205250508161276051836001612b0051080960405260406131a06060600060075afa16604061316060808160065afa81169050611300516113205184828309856003878386090886838409148416935050816000528060205250508161278051836001612b0051080960405260406131a06060600060075afa16604061316060808160065afa8116905061134051611360518482830985600387838609088683840914841693505081600052806020525050816127a051836001612b0051080960405260406131a06060600060075afa16604061316060808160065afa81169050611380516113a0518482830985600387838609088683840914841693505081600052806020525050816127c051836001612b0051080960405260406131a06060600060075afa16604061316060808160065afa81169050610400516104205184828309856003878386090886838409148416935050816000528060205250506127e05160405260406131a06060600060075afa16604061316060808160065afa81169050610440516104605184828309856003878386090886838409148416935050816000528060205250506128005160405260406131a06060600060075afa16604061316060808160065afa81169050610480516104a05184828309856003878386090886838409148416935050816000528060205250506128205160405260406131a06060600060075afa16604061316060808160065afa811690506104c0516104e05184828309856003878386090886838409148416935050816000528060205250506128405160405260406131a06060600060075afa16604061316060808160065afa81169050610500516105205184828309856003878386090886838409148416935050816000528060205250506128605160405260406131a06060600060075afa16604061316060808160065afa81169050610540516105605184828309856003878386090886838409148416935050816000528060205250506128805160405260406131a06060600060075afa16604061316060808160065afa81169050610580516105a05184828309856003878386090886838409148416935050816000528060205250506128a05160405260406131a06060600060075afa16604061316060808160065afa811690506105c0516105e05184828309856003878386090886838409148416935050816000528060205250506128c05160405260406131a06060600060075afa16604061316060808160065afa81169050610600516106205184828309856003878386090886838409148416935050816000528060205250506128e05160405260406131a06060600060075afa16604061316060808160065afa81169050610640516106605184828309856003878386090886838409148416935050816000528060205250506129005160405260406131a06060600060075afa16604061316060808160065afa81169050610680516106a05184828309856003878386090886838409148416935050816000528060205250506129205160405260406131a06060600060075afa16604061316060808160065afa811690506106c0516106e05184828309856003878386090886838409148416935050816000528060205250506129405160405260406131a06060600060075afa16604061316060808160065afa81169050610700516107205184828309856003878386090886838409148416935050816000528060205250506129605160405260406131a06060600060075afa16604061316060808160065afa81169050610740516107605184828309856003878386090886838409148416935050816000528060205250506129805160405260406131a06060600060075afa16604061316060808160065afa81169050610780516107a0518482830985600387838609088683840914841693505081600052806020525050816129a051836001612b0051080960405260406131a06060600060075afa16604061316060808160065afa811690506107c0516107e0518482830985600387838609088683840914841693505081600052806020525050816129c051836001612b0051080960405260406131a06060600060075afa16604061316060808160065afa8116905061080051610820518482830985600387838609088683840914841693505081600052806020525050816129e051836001612b0051080960405260406131a06060600060075afa16604061316060808160065afa811690506108405161086051848283098560038783860908868384091484169350508160005280602052505081612a0051836001612b0051080960405260406131a06060600060075afa16604061316060808160065afa81169050610880516108a0518482830985600387838609088683840914841693505081600052806020525050612a205160405260406131a06060600060075afa16604061316060808160065afa811690506108c0516108e0518482830985600387838609088683840914841693505081600052806020525050612a405160405260406131a06060600060075afa16604061316060808160065afa8116905061090051610920518482830985600387838609088683840914841693505081600052806020525050612a605160405260406131a06060600060075afa16604061316060808160065afa8116905061094051610960518482830985600387838609088683840914841693505081600052806020525050612a805160405260406131a06060600060075afa16604061316060808160065afa81169050610980516109a0518482830985600387838609088683840914841693505081600052806020525050612aa05160405260406131a06060600060075afa16604061316060808160065afa8116905081826116005184612b00516119e051090861270051098283846116205186612b00516120005109086127205109820890508283846116405186612b00516120205109086127405109820890508283846116605186612b00516120405109086127605109820890508283846116805186612b00516120605109086127805109820890508283846116a05186612b00516120805109086127a05109820890508283846116c05186612b00516120a05109086127c051098208905082836116e0516127e051098208905082836117005161280051098208905082836117205161282051098208905082836117405161284051098208905082836117605161286051098208905082836117805161288051098208905082836117a0516128a051098208905082836117c0516128c051098208905082836117e0516128e051098208905082836118005161290051098208905082836119605161292051098208905082836119805161294051098208905082836119a05161296051098208905082836119c0516129805109820890508283846118405186612b00516120c05109086129a05109820890508283846118605186612b00516120e05109086129c05109820890508283846118805186612b00516121005109086129e05109820890508283846118a05186612b0051612120510908612a0051098208905082836118c051612a2051098208905082836118e051612a40510982089050828361190051612a60510982089050828361192051612a80510982089050828361194051612aa0510982089050826137605182089050600160005260026020528083036040525060406131a06060600060075afa16604061316060808160065afa16613360819052612b00516126c05161230051612320518682800987600389838609088883840914955050816000528060205250508060405260406131a06060600060075afa831692506040613160608061316060065afa8316925061234051612360518682830987600389838609088883840914861695505081600052806020525050836103c05185838509096040525060406131a06060600060075afa821691506040613220608061316060065afa8216915061230051600052612320516020526123405160405261236051606052806080526040806060604060075afa8216915060406131e06080600060065afa82169150613200518403613200526109c0511561680a5761350051613520518582830986600388838609088783840914851694505081600052806020525050828182096040526040606080600060075afa8216915061354051613560518582830986600388838609088783840914851694505081600052806020525050604060006060600060075afa821691506132205160a0526132405160c05260406132206080606060065afa821691506131e0516040526132005160605260406131e06080600060065afa821691505b50806168215763f755f36960e01b60005260046000fd5b806133805261322051600052613240516020527f198e9393920d483a7260bfb731fb5d25f1aa493335a9e71297e485b7aef312c26040527f1800deef121f1e76426a00665e5c4479674322d4f75edadd46debd5cd992f6ed6060527f090689d0585ff075ec9e99ad690c3395bc4b313370b38ef355acdadcd122975b6080527f12c85ea5db8c6deb4aab71808dcb408fe3d1e7690c43d37b4ce6cc0166fa7daa60a0526131e05160c0526132005160e052610a005161010052610a205161012052610a405161014052610a60516101605260206000610180600060085afa9050806133a0526000516133c05250505061336051613380516133c0516133a051161616616938576301c47f3b60e21b60005260046000fd5b600160005260206000f35b803560ff8116811461695457600080fd5b919050565b60008060008060006060868803121561697157600080fd5b853567ffffffffffffffff8082111561698957600080fd5b818801915088601f83011261699d57600080fd5b8135818111156169ac57600080fd5b8960208285010111156169be57600080fd5b6020928301975095509087013590808211156169d957600080fd5b818801915088601f8301126169ed57600080fd5b8135818111156169fc57600080fd5b8960208260051b8501011115616a1157600080fd5b602083019550809450505050616a2960408701616943565b9050929550929590935056fe04fc6369f7110fe3d25156c1bb9a72859cf2a04641f99ba4ee413c80da6a5fe4260e01b251f6f1c7e7ff4e580791dee8ea51d87a358e038b4efe30fac09383c12eea648c8732596b1314fe2a4d2f05363f0c994e91cecad25835338edee2294f0118c4d5b837bcc2bc89b5b398b5974e9f5944073b32078b7e231fec938883b00ab49886c2b94bd0bd3f6ed1dbbe2cb2671d2ae51d31c1210433c3972bb6457822febda3c0c0632a56475b4214e5615e11e6dd3f96e6cea2854a87d4dacc5e55a26469706673582212209a2eb8dec2a3643fa0bab1cb9cd098f338b6344cec160460bea70f3c8b1331be64736f6c63430008170033476f7665726e6f72427261766f3a3a696e697469616c697a653a20696e76616c","linkReferences":{}},"methodIdentifiers":{"BALLOT_TYPEHASH()":"deaaa7cc","DOMAIN_TYPEHASH()":"20606b70","MAX_PROPOSAL_THRESHOLD()":"25fd935a","MAX_VOTING_DELAY()":"b1126263","MAX_VOTING_PERIOD()":"a64e024a","MIN_PROPOSAL_THRESHOLD()":"791f5d23","MIN_VOTING_DELAY()":"e48083fe","MIN_VOTING_PERIOD()":"215809ca","_acceptAdmin()":"e9c714f2","_initiate(address)":"f9d28b80","_setPendingAdmin(address)":"b71d1a0c","_setProposalThreshold(uint256)":"17ba1b8b","_setVotingDelay(uint256)":"1dfb1b5a","_setVotingPeriod(uint256)":"0ea2d98c","_setWhitelistAccountExpiration(address,uint256)":"4d6733d2","_setWhitelistGuardian(address)":"99533365","active(address)":"4ea71327","admin()":"f851a440","comp()":"109d0af8","decrypt_tally(uint256,bytes32[3],bytes)":"a157de88","delegate(bytes32[],bytes32[],bytes32[],bytes32,bytes32[],bytes32,bytes32[],bytes32[],uint256[],bytes)":"9ea459a2","election_setup(address[],uint256[],string[],bytes[],string,string,bytes32[4],uint256,uint256)":"fc970275","election_start(uint256,bytes32)":"71d84768","exec(uint256)":"f873cb91","getCiphertext(address)":"a1cbf8aa","getLd()":"079a3930","getReceipt(uint256,address)":"e23a9a52","get_proposal_votes(uint256,uint256)":"7d1d20cd","get_proposal_votes_all(uint256)":"103ed8c0","implementation()":"5c60da1b","initialProposalId()":"fc4eee42","initialize_private(bytes32,bytes32,bytes32,string,string)":"10720068","isWhitelisted(address)":"3af32abf","is_active(address)":"4e07f059","l_d_index(address)":"8f24f0c2","l_did(address)":"1957e87f","latestProposalIds(address)":"17977c61","name()":"06fdde03","pendingAdmin()":"26782247","proposalCount()":"da35c664","proposalMaxOperations()":"7bdbe4d0","proposalThreshold()":"b58131b0","proposals(uint256)":"013cf08b","quorumVotes()":"24bc1a64","register_delegate(bytes32,bytes32,bytes32,bytes32,bytes32,bytes)":"e6ef101d","state(uint256)":"3e4f49e6","timelock()":"d33219b4","undelegate(bytes32[],bytes32[],bytes32[],uint256[],uint256,bytes)":"16ef8278","unregister_delegate(bytes32,bytes32,bytes32,bytes32,bytes32,bytes32,bytes32,bytes32,bytes32,bytes)":"4e1e5f9d","vote(uint256,uint8,string,bytes32[12],bytes32,bytes32[20],bytes32,bytes)":"1d128e4a","votingDelay()":"3932abb1","votingPeriod()":"02a251a3","whitelistAccountExpirations(address)":"38bd0dda","whitelistGuardian()":"c5a8425d"},"id":0}